<0xe285,3.3>
:020000040000FA
:060000008A110A12582CBF
:080008008B13FF0003088312B3
:100010000313F1000A08F2000408F4008316031326
:10002000010883120313F300831203130C08F50075
:100030000D08F600831603130C0883120313F5054D
:10004000831603130D0883120313F6058A110A168B
:10005000F51AC2298A110A16751A882A8A110A16EF
:100060007618AC2A8A110A168B1E37280B19C22B58
:100070008B133928831203137408840072088A00D2
:10008000730883160313810083120313710883001E
:06009000FF0E7F0E0900C7
:0400960000340034FE
:06009A00840A8000023E12
:1000A00083120317D80B4D280800840A80008003B0
:1000B0008003000883120317D80B55280800831209
:1000C00003171930D800831203178313031B8317F8
:1000D0000F30840066305520831203171930D80082
:1000E000831203178313031B8317283084006430A3
:1000F0004D20831203171930D8008316031383137E
:10010000031B8317AE30840064304D208312031725
:100110001930D800831603138313031B8317C730CA
:10012000840066305520831203171930D8008316D7
:1001300003178313031B83178F30840032304D2045
:10014000831203171930D800831603178313031B78
:100150008317A83084003230552008005F208316B2
:100160000313091083120313091083160313891054
:1001700083120313891083160313091183120313C7
:100180000911831603130710831203130714831234
:100190000317C20183120317FF30CF00831203132A
:1001A0003911B91183120317FF30C700C800C90005
:1001B000831203130130C500831203131930C800E2
:1001C000831203134A30C6000130C70083120313A1
:1001D000391359232030662320307523203084239F
:1001E0000800831203174A08183C0318FF288312DB
:1001F0000313B91A0800831203171830CA008312B8
:100200000313B91A3829831203174A0883120317F4
:100210008313031B8317293E8400000883120317EE
:10022000C7000222831203174A088316031383139D
:10023000031B8317C83E8400000883120317C800FD
:100240001322831203174A08831603178313031B11
:100250008317A93E8400000883120317C9002422D3
:1002600083120317CA0BDE2983120313B916DE2982
:10027000831203174A08831203178313031B831780
:10028000103E8400000883120317C7000222831265
:1002900003174A08831603138313031B8317AF3E08
:1002A0008400000883120317C80013228312031767
:1002B0004A08831603178313031B8317903E840099
:1002C000000883120317C900242283120317CA0AE5
:1002D000DE29831203135A08831203174F060319EA
:1002E0000800831203135A0883120317CF007F39C3
:1002F000CA00183C03187E291830CA008312031361
:10030000DA1BB029831203174A08831203178313D9
:10031000031B8317293E8400000883120317C700BC
:100320000222831203174A08831603138313031B45
:100330008317C83E8400000883120317C8001322E5
:10034000831203174A08831603178313031B8317AB
:10035000A93E8400000883120317C9002422DE2965
:10036000831203174A08831203178313031B83178F
:10037000103E8400000883120317C7000222831274
:1003800003174A08831603138313031B8317AF3E17
:100390008400000883120317C80013228312031776
:1003A0004A08831603178313031B8317903E8400A8
:1003B000000883120317C9002422DE2983120317C1
:1003C000470859020318E92959084702D400421680
:1003D000EB29D400421248085A020318F4295A089B
:1003E0004802D500C216F629D500C21249085B02A0
:1003F0000318FF295B084902D6004217012AD600DC
:100400004213D32A83160313290703182A088316D5
:1004100003132A0203180E2A2A080F2A2A0283121B
:100420000317C7000800831603132B0703182C08B3
:10043000831603132C0203181F2A2C08202A2C02CF
:1004400083120317C8000800831603132D0703182F
:100450002E08831603132E020318302A2E08312A81
:100460002E0283120317C900080083120317D40158
:10047000D501D601831603132908831203174502F9
:10048000031C442AD4004212831603132B08831240
:1004900003174402031C4E2AD500C212831603130D
:1004A0002D08831203174602031C582AD600421354
:1004B000D32A080083160313260802228316031387
:1004C00027081322831603132808242283120317F4
:1004D00047085906031D752A48085A06031D752A40
:1004E00049085B06031D752A08008A110A12A7260F
:1004F000C526831203131E0883120317C50098260E
:10050000C526831203131E0883120317C400B626E0
:10051000C526831203131E0883120317C6008A110F
:100520000A12592335228A110A12A726C5268312D8
:1005300003131E0883120317D9009826C5268312B9
:1005400003131E0883120317DA00B626C52683128A
:1005500003131E0883120317DB008A110A12831289
:100560000317D401D501D601831203174708590296
:100570000318BE2A59084702D400421683120317F3
:1005800048085A020318C82A5A084802D500C21659
:100590008312031749085B020318D22A5B08490239
:1005A000D6004217D32A831203174214C2144215ED
:1005B00083120317421EE02A5408D907CF30E32ADA
:1005C0005408D902DF30662383120317C21EEC2AB7
:1005D0005508DA07DF30EF2A5508DA02CF307523E5
:1005E00083120317421FF82A5608DB07DF30FB2A65
:1005F0005608DB02CF30842383120317421C082BDA
:10060000D408031D072B42104E306623082BD40359
:1006100083120317C21C142BD508031D132BC21001
:100620004E307523142BD50383120317421D282B3C
:10063000D608031D1F2B42114E308423282BD603CE
:1006400083120317421F262BDF30272BCF30842342
:100650008312031742080F39031908008312031786
:10066000FF30D700442383120317DE30D700442322
:1006700083120317421D3E2B4F308423831203172E
:100680009630D7004423FC2A831203130715000079
:100690000000000000000000000007110000000042
:1006A000000000000000000083120317D70B442B4A
:1006B0000800831603130711831203139201831298
:1006C00003131708F039970007110800831203136A
:1006D00088008312031309148A110A167A248A11D6
:1006E0000A128312031309100800831203138800EF
:1006F0008312031389148A110A167A248A110A12A2
:1007000083120313891008008312031388008312D5
:10071000031309158A110A167A248A110A12831200
:100720000313091108008A110A129826C52683129C
:1007300003131E0883120317C400A726C5268312BD
:1007400003131E0883120317C500B626C52683129D
:1007500003131E0883120317C6008A110A1283129C
:1007600003174B08003A031DC12B83120317D40152
:10077000D501D601831203176430CD00CB0A0800DF
:10078000372C013A031DE72B83120317CD08031DF5
:10079000080059238312031714304502031CD32B7E
:1007A000D4004212D72B4508143CD40042168312C1
:1007B000031714304402031CE02BD500C212E42BB3
:1007C0004408143CD500C216CB0AD322372C033A76
:1007D000031DF92B831203171E30D400D50064309B
:1007E000D6004212C2124213D32283120317CB0A3D
:1007F000372C013A031D042CEA2083120317C8305A
:10080000CD00CB0A0800372C073A031D372C831282
:100810000317CD08031D080083120317440883162D
:100820000313AB0083120317450883160313A900B3
:1008300083120317460883160313AD0083160313B0
:100840000230A9072908E13EAA00831603130230EB
:10085000AB072B08E13EAC00831603130230AD0753
:100860002D08553EAE00831203133B11080008000B
:10087000831203130530CA00831203134213831239
:100880000313B91383120313450883120313C9001A
:1008900083120313480883120317CA008312031339
:1008A000B912831203133913831203133912080088
:1008B0008312031300308B00831603138C008316FE
:1008C00003138D00831203138313031B8317383024
:1008D000840004084B3A0319702C8001840A692CA7
:1008E000831203138313031B8317573084000408F8
:1008F000593A03197E2C8001840A772C8A110A1632
:10090000C0248A110A168B218A110A12CB268A1159
:100910000A1603208A110A1628258A110A12AE2007
:100920008A110A16AF238A110A12831603130030A4
:100930008800831203138801831603138611831220
:100940000313861183160313861283120313861270
:100950008316031306158316031305168316031354
:10096000061483120313B80183120313D7018B17E4
:100970000B17831203133A138312031338178312CE
:100980000313BA1483120313BA1CCB2C6400831212
:1009900003138611C22C83120313C2016826892611
:1009A0008A110A160A3073248A110A12C526831284
:1009B00003131E0883120313C00083120313C01F06
:1009C000E82C83160313A401831203134212EF2CA5
:1009D000831603130130A4008312031342168312FB
:1009E0000313051EF72C831203133814FA2C8312F9
:1009F00003133810831203133813831203133A13AB
:100A0000831203133912831203133913831203134E
:100A1000B91383120313391E232D391283120313C2
:100A20000608083A8600831203134208083AC200F7
:100A3000831203134208403AC20068268A110A1240
:100A4000F1208A110A12831203133B1C312D3B1033
:100A50008A110A167E208A110A1283120313381390
:100A6000482D83120313391C482D39108A110A1698
:100A70001D218A110A12831203133818482D83127C
:100A80000313B91D482D8A110A1269218A110A120D
:100A900083120313BB1CB42DBB10831203133C0839
:100AA000033A031D7B2D83120313381C6D2D8A110D
:100AB0000A1238248A110A1283120313391283127C
:100AC0000313C21568268A110A12F1208A110A122C
:100AD00083120313C2116826702D83120313391277
:100AE00083120313C216C21168268312031339112D
:100AF000B915B12DB12D073A031DA22D8A110A1285
:100B000038248A110A1283120313C216C2116826EE
:100B10008A110A12F1208A110A128312031346085D
:100B200083120313D20083120313470883120313A3
:100B3000D300831203133917831203133911B91524
:100B4000B12DB12D83120313B9113915831203137B
:100B5000C212C211421368268A110A125A228A113D
:100B60000A12831203133813831203133B1DD92D6A
:100B7000831203133A178A110A1293238A110A1255
:100B8000831203133B19D82D831203133A138B13CB
:100B90000B138A110A16CC248A110A128B170B1711
:100BA0008A110A168B218A110A1283120313381331
:100BB000092D83120313BA1FDE2D68268312031337
:100BC000BB1D3A2EBB11831203135708003A031DB5
:100BD0000D2EA726C526831203131E0883120317A2
:100BE000C5009826C526831203131E088312031717
:100BF000C400B626C526831203131E0883120317EA
:100C0000C60083120313D9018A110A1644258A11DA
:100C10000A1283120313D70A3A2E013A031D1D2E1E
:100C20007A26C526831203131E0883120313BD0000
:100C300083120313D70A3B263A2E033A031D2C2EA8
:100C400083120313D90A8A110A1644258A110A123B
:100C500083120313D70A3A2E013A031D3A2E7A263D
:100C6000C526831203131E0883120313BE008312CA
:100C70000313D701092D83160313210883120313CD
:100C80003D02031C462E83120313C217831603135F
:100C90002008831203133D020318512E83120313FD
:100CA000C213831603132208831203133D02031C8D
:100CB0005C2E83120313B8178316031323088312C1
:100CC00003133D020318672E83120313B8130800A1
:100CD0008312031342088312031388008312031341
:100CE00086168A110A167A248A110A1283120313AD
:100CF00086120800831203139F121F169F15831676
:100D000003139F13831203131030C300C30B862EEB
:100D10000800831203139F161F129F1183160313DB
:100D20009F13831203131030C300C30B952E0800CA
:100D3000831203139F121F129F11831603139F1315
:100D4000831203131030C300C30BA42E08008312B8
:100D500003139F121F169F11831603139F138312F1
:100D600003131030C300C30BB32E08008312031308
:100D70009F121F129F15831603139F1383120313D1
:100D80001030C300C30BC22E0800831203131F15BB
:060D90001F19C82E080027
:0A0D96008316031305081F388500BB
:100DA0008316031302309F00831203139F019F17C2
:100DB0001F1483120313D401D501D6010800831236
:100DC00003135408003A0319E72ED40308008312D2
:100DD00003131F190800831203135618FB2ED6188D
:100DE000202F5619452FD6196A2F561A8F2FD60144
:100DF0005616D50108005519142FD5180F2F831634
:100E000003139F13831203139F121F129F11831248
:100E10000313D514831203130230D40008005515B0
:100E2000831203131F150800831203131E08831275
:100E30000317C40083120313D601D614D50108008A
:100E40005519392FD518342F831603139F13831286
:100E500003139F121F129F1583120313D5148312BD
:100E600003130230D40008005515831203131F1515
:100E70000800831203131E0883120317C60083128F
:100E80000313D6015615D501080055195E2FD51844
:100E9000592F831603139F13831203139F121F16D8
:100EA0009F1183120313D514831203130230D4004D
:100EB00008005515831203131F150800831203132E
:100EC0001E0883120317C50083120313D601D6151B
:100ED000D50108005519832FD5187E2F83160313CB
:100EE0009F13831203139F121F169F158312031360
:100EF000D514831203130230D40008005515831251
:100F000003131F150800831203131E088312031313
:100F1000BF0083120313D6015616D50108005519D8
:100F2000A82FD518A32F831603139F13831203131F
:100F30009F161F129F1183120313D51483120313DC
:100F40000230D40008005515831203131F15080042
:100F5000831203131E0883120313C00083120313AA
:0A0F6000D6015614D5010800080060
:060F6A008312031330089E
:100F70001F39013A031DBF2F8A110A16722D013A3B
:100F8000023A031DC62F8A110A16BB2D023A033AF4
:100F9000031DCD2F8A110A16B42D033A043A031DFE
:100FA000D42F8A110A16A42D043A053A031DDB2F0B
:100FB0008A110A16AD2D053A063A031DE22F8A1151
:100FC0000A168D2D063A073A031DE92F8A110A16D3
:100FD0009A2D073A083A031DF02F8A110A16802D20
:100FE000083A0434831383120313B108031D8317D3
:100FF000300884000008B500840A0008B4000634F4
:06200000521630333033AC
:0A20060083160313871083120313DF
:102010008714831603138712831203138712831600
:1020200003138711831203138711831603131413E9
:10203000831203131416141494160330E700E70BED
:102040001F2883120313DB01DC01DE01DF01E00145
:10205000E101DA010800831203130430E700E70B03
:102060002F2808008312031387102B2083120313D9
:10207000630883120313930083160313141C3E2872
:10208000831203136208831203139300831603134E
:10209000141C48282B208312031387148312031364
:1020A0002130E700E70B52288312031387102B20FF
:1020B000831203136308831203139300831603131D
:1020C000141C602883120313130883120313E50002
:1020D00083120313620883120313930083160313FE
:1020E000141C702883120313130883120313E400D3
:1020F0002B208312031387142B200800831603134D
:102100001413831203131416141494168312031356
:102110003A1783120313BE30E3000230E20032208C
:102120000A308A110A1673248A110A1601308312A2
:102130000313E200B630E3003220083083120313A9
:10214000E200B830E3003220C8308A110A16732446
:102150008A110A160C3083120313E3003220831213
:10216000031365083F39E5008312031364088312E3
:102170000313A60083120313650883120313A70039
:10218000831203135B0883120313A000831203134B
:102190005C0883120313A100403083120313A007CD
:1021A0000318A10A3830A1078A110A16D3228A110E
:1021B0000A1683120313983083120313E300831269
:1021C0000313200883120313E20032209930831294
:1021D0000313E30083120313210883120313E200A5
:1021E0003220BE30E300083083120313E2003220B5
:1021F00014308A110A1673248A110A1683120313E3
:102200003A130800840A8009000884038009800AC0
:102210000319013E840A800008000314831203138B
:10222000801F1C298009000884038009800A031983
:10223000013E840A80000310080083160313141360
:10224000831203131416141494160F3083120313FD
:10225000E300322083120313E51E31296508C038DC
:10226000332965083F39E5000B1383120313640813
:1022700083120313DE008312031365088312031312
:10228000DF000B17831203135E0883120313A000F1
:10229000831203135F0883120313A1008312031335
:1022A000600883120313A6008312031361088312CC
:1022B0000313A7008A110A16D3228A110A16831261
:1022C00003138313031B8317213084000D21831212
:1022D0000313031C6D295D146E295D1028308A11CB
:1022E0000A1632238A110A16831203132208143C99
:1022F00003187B29A00A0B138312031320088312EF
:102300000313DA00831203135D1C8829DA13892969
:06231000DA170B170800AC
:0A231600831203138313031B8317C4
:102320002B308400383A03199A2900308000840A3F
:1023300004089229831203132F30AE003330AD000E
:10234000831603132F30990024309800831203134F
:102350008030980090309800831603130C128C166E
:10236000981283120313003090051D080A389D004F
:102370008E018F01831603130612831203130612B4
:102380000800080083120313AB012E082F3A03192B
:10239000CE292E08323A0319052A142A9A1A1F2A1E
:1023A0001A081F39163A031D1F2AAB16831203138E
:1023B000FF309B000530F038831203139C009C0E05
:1023C00003109C0C1014831603130D1483120313B3
:1023D0001A0883120313AC01C039003A031DF22915
:1023E0002C14142A003A403A031DF829AC14142A7C
:1023F000403AC03A031DFE292C15142AC03A803AEF
:10240000031D042AAC15142A1F2A1A08B7002F0826
:10241000300631063706031D1F2A2B1683160313B9
:102420008C1283120313181283132E0884001A08C7
:1024300080002B1A332AAE0A8A110A123A28831214
:102440000313AF01B001B101B2012F30AE0083120E
:1024500003130D1010108E018F01831603130D103E
:102460008A110A123A282F30AE00831203130D107E
:1024700010108E018F01831603130D1083120313A6
:102480002F08B300AC19562A2C184A2A2C19602A96
:10249000AC18502A8A110A12B5278A110A166A2A1C
:1024A0008A110A12F2278A110A166A2A8312031362
:1024B0003008B4008A110A16EB248A110A166A2A17
:1024C000831203133008B4008A110A1618258A11E2
:1024D0000A166A2A83120313063A0319752A063A62
:1024E000B500073A031DFF30B4008312031333080D
:1024F00034063506B6007C2A8312031306168312AF
:1025000003133330AD008316031398160C168B2A71
:1025100083120313AB018313831203132D0884006A
:10252000383A031DA42A83120313AC018316031344
:1025300098120C128C1683120313181683120313AD
:1025400006128A110A123A2883120313000899000E
:10255000AD0A8A110A123A2883120313AB018316BB
:1025600003130D10831203130D10831203131010A5
:102570008E018F01831203132F30AE00AB018A113D
:102580000A123A28831603130C128C1298120800B0
:10259000831203132608A002031CA1032708A1022B
:1025A000031CA2030800831203132608A002031CC5
:1025B000A1032708A102080083120313A201260821
:1025C000A0070318A10A2708A1070318A20A0800F8
:1025D00083120313A101A00C0318A107A10CA00CE6
:1025E0000318A107A10CA00C0318A107A10CA00CB3
:1025F0000318A107A10CA00C0318A107A10CA00CA3
:102600000318A107A10CA00C0318A107A10CA00C92
:102610000318A107A10CA00C080083120313A20148
:10262000A8001030AA0028080310201C182BA207AD
:10263000A20CA10CA00C0310AA0B152B08008312EE
:102640000313A301A8001830AA0028080310201CB7
:102650002A2BA307A30CA20CA10CA00C0310AA0BFD
:10266000272B080083120313A600A2010830AA003A
:10267000210DA20D2608A2020318402BA207031069
:10268000A10DAA0B382BA8010830AA00200DA20D1D
:10269000A80D2608A202A9010301031C290FA80204
:1026A00003185A2B2608A207A90103010318290FB2
:1026B000A8070310A00DAA0B462B080083120313D2
:1026C000A600A3011830AA00200DA10DA20DA30D94
:1026D000A00D2608A30203182014201CA307AA0B90
:1026E000642B080083120313A301A4011830AA006D
:1026F000200DA10DA20DA30DA40DA00D2608A3026F
:102700002708031C270FA4020318201420188B2B62
:10271000A4072608A307AA0B782B0800831203132B
:102720002030AA00A501A4010310A00DA10DA20D47
:10273000A30DA40DA50D0318A52B27082502031D25
:10274000A32B26082402031CAC2B2608A402031C7E
:0E275000A5032708A5022014AA0B942B08004D
:02275E008316E0
:102760000313811101118110011481128B16831240
:1027700003130A30CB000A30CC000A30CD001430ED
:10278000D000080083120313381C252C8312031376
:10279000B91D252C83120313391FE92B8312031350
:1027A000D208031DE72BD308031DE62B8312031366
:1027B000391683120313460883120313D2008312BF
:1027C0000313470883120313D300252CD303D2032A
:1027D000252C83120313B91B132C83120313061D1C
:1027E0000E2C83120313CA0B252C0530CA0083124A
:1027F0000313B91783120313C90B252C8312031378
:10280000460883120313D20083120313470883126E
:102810000313D300831203133917122C83120313EB
:102820000530CA00252C831203130619212C8312AC
:102830000313CA0B252C0530CA0083120313B913E6
:10284000252C831203130530CA0083120313CB0B0C
:102850006F2C0A30CB00831203134F1C322CCE0B8B
:10286000322C4F1083120317CD0383120313CC0BAA
:102870006F2C0A30CC0083120313BA1C462C83122F
:102880000313D00B462C83120313BA1083120313C5
:10289000391483120313B919562C831203133A1FE8
:1028A000562C831203130608083A8600831203137A
:1028B000BA1783120313BB1583120313CD0B6F2CAE
:1028C0000A30CD0083120313B9196F2C831203133E
:1028D0003A1B6F2C831203130608083A86000B116B
:1028E0008A110A123A2883120313CE004F144F188C
:1028F000772C0800831203132830D100D10B7E2CD3
:0E290000080083120313D100D10B842C0800B1
:02290E00831232
:1029100003178D00A0308D02831603178C130C143F
:10292000831203170C0808008313831603178C18EF
:10293000972C0408831203178D00A0308D02831298
:1029400003130008831203178C00831603178C13DC
:102950000C158B1BB42C55308D00AA308D008C14B7
:102960000C118C18B12C08008B1355308D00AA3037
:102970008D008C140C118C18BB2C8B1708000800D0
:102980008313A0308400040887248000840A04088C
:10299000AF3A031DC32C08008313A0308400942495
:1029A000840A0408AF3A031DCF2C080083131530A6
:1029B0008A00040859258A110A1680009424080008
:1029C0008313A0308400D624840A0408AF3A031984
:0629D0000800E32C0800E2
:0A29D6008312031330088400B400DC
:1029E000831203133108031DFB2C83130008831289
:1029F0000313B5000634013A031D042D83170008A4
:102A000083120313B5000634033A031D112D040885
:102A10008A110A1687248A110A1683120313B50035
:102A2000063404088A110A1659258A110A16063432
:102A3000831203133008B40084008313831203133A
:102A400041188317831203133108B5008000063440
:102A5000831603138610831203138614831603133D
:102A600087128312031387128316031387118312AD
:102A7000031387110800831203138C11930083162C
:102A80000313141808003F2D8316031340309400DD
:102A900083120313203094008312031386104130F5
:102AA0003B258312031359083B2583120313861415
:022AB00008001C
:0E2AB200A03CFF3C013E0F3C03190034031C06
:102AC00000340F3C8207A034A334AC34A734003464
:102AD00000340034003432340034FF340034FF3426
:042AE0000034FF348B
:0C2AE400831203133108013A031D7C2DFE
:102AF00083120313BA157F2D831203133812073480
:102B000083120313B108031D892D8312031341108F
:0A2B10008C2D8312031341140734C7
:062B1A0083120313381BB7
:102B200000343817BB1483120313310883120313C4
:042B3000BC000734AA
:0C2B340083120313381B003438173B15C4
:082B400083120317CB010734D7
:082B480083120313381B003453
:0A2B5000831203133B1438170734F7
:062B5A00831203135A0868
:082B600083120313B5000634D3
:082B680083120313C401831260
:062B70000313B812073444
:0A2B7600033083120313B50003308F
:042B8000B400063463
:02400E00721F1F
:10420000A000A300AC00A700000000000000000018
:0E42100032000000FF000000FF000000FF0071
:00000001FF
