<0x25c8,3.2>
:020000040000FA
:060000008A110A129E2B7A
:080008008B13FF0003088312B3
:100010000313F1000A08F2000408F4008316031326
:10002000010883120313F300831203130C08F50075
:100030000D08F600831603130C0883120313F5054D
:10004000831603130D0883120313F6058A110A168B
:10005000F51A3A288A110A16751A00298A110A1601
:10006000761824298A110A128B1E37280B198F2F14
:100070008B133928831203137408840072088A00D2
:10008000730883160313810083120313710883001E
:06009000FF0E7F0E0900C7
:0400960000340034FE
:06009A00840A8000023E12
:1000A00083120317D80B4D280800840A80008003B0
:1000B0008003000883120317D80B55280800831209
:1000C00003171930D800831203178313031B8317F8
:1000D0000F30840066305520831203171930D80082
:1000E000831203178313031B8317283084006430A3
:1000F0004D20831203171930D8008316031383137E
:10010000031B8317AE30840064304D208312031725
:100110001930D800831603138313031B8317C730CA
:10012000840066305520831203171930D8008316D7
:1001300003178313031B83178F30840032304D2045
:10014000831203171930D800831603178313031B78
:100150008317A83084003230552008005F208316B2
:100160000313091083120313091083160313891054
:1001700083120313891083160313091183120313C7
:100180000911831603130710831203130714831234
:100190000317C201FF30CF00831203133911B911C5
:1001A00083120317FF30C700C800C900BF222030E8
:1001B000CC222030DB222030EA22080083120313F5
:1001C0005A08831203174F060319080083120313FA
:1001D0005A0883120317CF007F39CA00183C03184E
:1001E000F3281830CA0083120313DA1B2129831263
:1001F00003174A08831203178313031B8317293E2F
:100200008400000883120317C7006E214A08831672
:1002100003138313031B8317C83E84000008831253
:100220000317C8007F214A08831603178313031B93
:100230008317A93E8400000883120317C900902188
:100240004A29831203174A08831203178313031BD7
:100250008317103E8400000883120317C7006E2125
:100260004A08831603138313031B8317AF3E8400CE
:10027000000883120317C8007F214A08831603175A
:100280008313031B8317903E840000088312031717
:10029000C9009021831203174708590203185529F2
:1002A00059084702D40042165729D4004212480880
:1002B0005A02031860295A084802D500C21662295A
:1002C000D500C21249085B0203186B295B0849027A
:1002D000D60042176D29D60042133F2A8316031316
:1002E000290703182A08831603132A0203187A29F8
:1002F0002A087B292A0283120317C70008008316E5
:1003000003132B0703182C08831603132C0203185E
:100310008B292C088C292C0283120317C800080093
:10032000831603132D0703182E08831603132E02BA
:1003300003189C292E089D292E0283120317C90039
:10034000080083120317D401D501D60183160313C5
:100350002908831203174502031CB029D400421256
:10036000831603132B08831203174402031CBA29B4
:10037000D500C212831603132D08831203174602F9
:10038000031CC429D60042133F2A08008316031316
:1003900026086E218316031327087F218316031373
:1003A000280890218312031747085906031DE129E5
:1003B00048085A06031DE12949085B06031DE12987
:1003C00008008A110A126E258C25831203131E0859
:1003D00083120317C5005F258C25831203131E08A3
:1003E00083120317C4007D258C25831203131E0876
:1003F00083120317C6008A110A12BF22A1218A1193
:100400000A126E258C25831203131E08831203170C
:10041000D9005F258C25831203131E08831203174E
:10042000DA007D258C25831203131E08831203171F
:10043000DB008A110A1283120317D401D501D601F9
:10044000831203174708590203182A2A590847023A
:10045000D40042168312031748085A020318342A9C
:100460005A084802D500C2168312031749085B02D6
:1004700003183E2A5B084902D60042173F2A83121E
:1004800003174214C214421583120317421E4C2A4A
:100490005408D907CF304F2A5408D902DF30CC2274
:1004A00083120317C21E582A5508DA07DF305B2A69
:1004B0005508DA02CF30DB2283120317421F642A69
:1004C0005608DB07DF30672A5608DB02CF30EA2206
:1004D00083120317421C742AD408031D732A421086
:1004E0004E30CC22742AD40383120317C21C802AF4
:1004F000D508031D7F2AC2104E30DB22802AD50387
:1005000083120317421D942AD608031D8B2A421119
:100510004E30EA22942AD60383120317421F922AEE
:10052000DF30932ACF30EA228312031742080F39B3
:1005300003190800FF30D700AA22DE30D700AA2214
:1005400083120317421DA62A4F30EA229630D700A5
:10055000AA22682A83120313071500000000000076
:100560000000000000000711000000000000000073
:100570000000000083120317D70BAA2A0800831675
:100580000313071183120313920183120313170835
:10059000F0399700071108008312031388008312B3
:1005A000031309148A110A12D2278A110A1283121C
:1005B0000313091008008312031388008312031326
:1005C00089148A110A12D2278A110A12831203137C
:1005D000891008008312031388008312031309157E
:1005E0008A110A12D2278A110A12831203130911DF
:1005F00008008A110A125F258C25831203131E0836
:1006000083120317C4006E258C25831203131E0862
:1006100083120317C5007D258C25831203131E0842
:1006200083120317C6008A110A12831203174B089C
:10063000003A031D272B83120317D401D501D601DD
:10064000831203176430CD00CB0A08009D2B013ABA
:10065000031D4D2B83120317CD08031D0800BF2275
:100660008312031714304502031C392BD4004212A5
:100670003D2B4508143CD400421683120317143056
:100680004402031C462BD500C2124A2B4408143CDA
:10069000D500C216CB0A3F229D2B033A031D5F2BC8
:1006A000831203171E30D400D5006430D6004212E6
:1006B000C21242133F2283120317CB0A9D2B013A29
:1006C000031D6A2BD72083120317C830CD00CB0A35
:1006D00008009D2B073A031D9D2B83120317CD089D
:1006E000031D080083120317440883160313AB008D
:1006F00083120317450883160313A90083120317F7
:10070000460883160313AD00831603130230A907AE
:100710002908E13EAA00831603130230AB072B0819
:10072000E13EAC00831603130230AD072D08553EA1
:0C073000AE00831203133B110800080008
:04073C00831203130E
:1007400000308B00831603138C00831603138D0077
:10075000831203138313031B8317383084000408A8
:10076000453A0319B62B8001840AAF2B8316031375
:100770008313031B8317EA3084000408EC3A03193F
:10078000C42B8001840ABD2B8A110A1253278A11B7
:100790000A1603208A110A1640218A110A1292258C
:1007A0008A110A1699238A110A12AE208A110A1296
:1007B0007E278A110A1283160313003088008312E1
:1007C0000313880183160313861183120313861102
:1007D00083160313061483120313061083160313E0
:1007E000861283120313861283120313B801831631
:1007F0000313EA018B170B178312031338178312A5
:100800000313BA1483120313BA1C082C6400022CBD
:1008100083120313C2012F2550258A110A120A30B0
:10082000CB278A110A128C25831203131E08831208
:100830000313C00083120313C01F252C8316031358
:10084000A4018312031342122C2C831603130130CC
:10085000A400831203134216831203133813831266
:1008600003133B1C3D2C3B108A110A120D268A11E2
:100870000A12831203133813502C83120313391CEA
:10088000502C39108A110A12AC268A110A128312CE
:100890000313B91D502C8A110A12DE208A110A1284
:1008A00083120313BB1C7B2CBB1083120313380869
:1008B000F039B8003908F039B900831203133C0845
:1008C000033A031D6C2C831203133911B9158312DB
:1008D0000313C216782C782C83120313B91139151F
:1008E00083120313C2128A110A12C6218A110A1234
:1008F000831203133813831203133B1DA02C83129E
:1009000003133A178A110A12F9228A110A12831262
:1009100003133B199F2C831203133A138B130B13EE
:100920008A110A125F278A110A128B170B178A1174
:100930000A1603208A110A128312031338132F2C6C
:1009400083120313BA1FA52C2F2583120313BB1D7B
:10095000012DBB11831603136A08003A031DD42C22
:100960006E258C25831203131E0883120317C500FE
:100970005F258C25831203131E0883120317C400FE
:100980007D258C25831203131E0883120317C600CE
:1009900083160313EC018A110A16B5238A110A1271
:1009A00083160313EA0A012D013A031DE42C4125A5
:1009B0008C25831203131E0883120313BD008316B4
:1009C0000313EA0A0225012D033A031DF32C8316B3
:1009D0000313EC0A8A110A16B5238A110A12831628
:1009E0000313EA0A012D013A031D012D41258C252F
:1009F000831203131E0883120313BE00831603130E
:100A0000EA012F2C831603132108831203133D02DE
:100A1000031C0D2D83120313C21783160313200822
:100A2000831203133D020318182D83120313C213FC
:100A3000831603132208831203133D02031C232D84
:100A400083120313B81783160313230883120313A7
:100A50003D0203182E2D83120313B81308008312CE
:100A600003134208831203138800831203138616AC
:100A70008A110A12D2278A110A12831203138612CC
:100A80000800831203139F121F169F15831603136A
:100A90009F13831203131030C300C30B4D2D0800A6
:100AA000831203139F161F129F11831603139F13A4
:100AB000831203131030C300C30B5C2D0800831294
:100AC00003139F121F129F11831603139F13831288
:100AD00003131030C300C30B6B2D080083120313E4
:100AE0009F121F169F11831603139F138312031364
:100AF0001030C300C30B7A2D0800831203139F121A
:100B00001F129F15831603139F13831203131030B4
:100B1000C300C30B892D0800831203131F151F196F
:040B20008F2D08000D
:0C0B240083160313871083120313871439
:100B3000831603138712831203138712831603137A
:100B4000871183120313871183160313141383125F
:100B500003131416141494160330E700E70BAE2D9C
:100B600083120313DB01DC01DE01DF01E001E1019F
:100B7000DA010800831203130430E700E70BBE2DEF
:100B80000800831203138710BA2583120313630826
:100B900083120313930083160313141CCD2D8312A9
:100BA0000313620883120313930083160313141CA8
:100BB000D72DBA2583120313871483120313213010
:100BC000E700E70BE12D831203138710BA25831288
:100BD0000313630883120313930083160313141C77
:100BE000EF2D83120313130883120313E5008312FE
:100BF0000313620883120313930083160313141C58
:100C0000FF2D83120313130883120313E400BA2584
:100C1000831203138714BA250800831603131413D1
:100C200083120313141614149416831203133A1721
:100C300083120313BE30E3000230E200C1250A3004
:100C40008A110A12CB278A110A1201308312031368
:100C5000E200B630E300C125083083120313E2003E
:100C6000B830E300C125C8308A110A12CB278A1197
:100C70000A120C3083120313E300C12583120313FD
:100C800065083F39E50083120313640883120313D8
:100C9000A60083120313650883120313A7008312AF
:100CA00003135B0883120313A000831203135C0871
:100CB00083120313A100403083120313A00703180B
:100CC000A10A3830A1078A110A1635228A110A12A0
:100CD00083120313983083120313E3008312031368
:100CE000200883120313E200C125993083120313F5
:100CF000E30083120313210883120313E200C125CA
:100D0000BE30E300083083120313E200C125143023
:100D10008A110A12CB278A110A12831203133A137B
:100D20000800840A8009000884038009800A0319E6
:100D3000013E840A80000800031483120313801FFD
:100D4000AB2E8009000884038009800A0319013E44
:100D5000840A8000031008008316031314138312FF
:100D600003131416141494160F3083120313E300A4
:100D7000C12583120313E51EC02E6508C038C22E9C
:100D800065083F39E5000B138312031364088312CF
:100D90000313DE0083120313650883120313DF00BD
:100DA0000B17831203135E0883120313A000831230
:100DB00003135F0883120313A10083120313600857
:100DC00083120313A6008312031361088312031313
:100DD000A7008A110A1635228A110A1283120313F8
:100DE0008313031B8317213084009C268312031373
:100DF000031CFC2E5D14FD2E5D1028308A110A168E
:100E000094228A110A12831203132208143C031835
:100E10000A2FA00A0B138312031320088312031353
:100E2000DA00831203135D1C172FDA13182FDA1759
:040E30000B17080094
:0C0E3400831203178D00A0308D0283167E
:100E400003178C130C14831203170C080800831368
:100E5000831603178C182A2F0408831203178D009A
:100E6000A0308D02831203130008831203178C0035
:100E7000831603178C130C158B1B472F55308D00D1
:100E8000AA308D008C140C118C18442F08008B1381
:100E900055308D00AA308D008C140C118C184E2FFB
:100EA0008B17080008008313A030840004081A2759
:100EB0008000840A0408AF3A031D562F08008313EC
:100EC000A03084002727840A0408AF3A031D622F4C
:100ED0000800831307308A000408DF278A110A12EA
:100EE0008000272708008313A03084006927840A24
:0C0EF0000408AF3A03190800762F080030
:040EFC008316031343
:100F0000811101118110011481128B1683160313B4
:100F10000A30E1000A30E2000A30E30008008316DC
:100F20000313E10BC72F0A30E10083160313651C7E
:100F30009C2FE40B9C2F651083120317CD0383169F
:100F40000313E20BC72F0A30E20083120313BA1017
:100F50003914831203133A1FB22F831203130608A6
:100F6000083A860083120313BA1783120313BB15C2
:100F700083160313E30BC72F0A30E3008312031316
:100F80003A1BC72F831203130608083A86000B1179
:100F90008A110A123A2883160313E40065146518AF
:100FA000CF2F0800831603132830E600E60BD62F58
:0E0FB000080083160313E600E60BDC2F080092
:020FBE00A03C55
:100FC000FF3C013E0F3C03190034031C00340F3C6E
:100FD0008207A034A334AC34A73400340034003486
:100FE000003432340034FF340034FF340034FF3432
:0E0FF000831203135A0883120313B50006344C
:06200000521630333032AD
:0A200600831203138313031B8317D7
:102010002B308400383A0319122800308000840ADB
:1020200004080A28831203132F30AE003330AD00AA
:10203000831603132F309900243098008312031362
:102040008030980090309800831603130C128C1681
:10205000981283120313003090051D080A389D0062
:102060008E018F01831603130612831203130612C7
:102070000800080083120313AB012E082F3A03193E
:1020800046282E08323A03197D288C289A1A972858
:102090001A081F39163A031D9728AB16831203132B
:1020A000FF309B000530F038831203139C009C0E18
:1020B00003109C0C1014831603130D1483120313C6
:1020C0001A0883120313AC01C039003A031D6A28B1
:1020D0002C148C28003A403A031D7028AC148C282C
:1020E000403AC03A031D76282C158C28C03A803A15
:1020F000031D7C28AC158C2897281A08B7002F08D8
:10210000300631063706031D97282B168316031356
:102110008C1283120313181283132E0884001A08DA
:1021200080002B1AAB28AE0A8A110A123A288312B1
:102130000313AF01B001B101B2012F30AE00831221
:1021400003130D1010108E018F01831603130D1051
:102150008A110A123A282F30AE00831203130D1091
:1021600010108E018F01831603130D1083120313B9
:102170002F08B300AC19CE282C18C2282C19D82847
:10218000AC18C8288A110A1611238A110A16E228E7
:102190008A110A164E238A110A16E22883120313A3
:1021A0003008B4008A110A165C238A110A16E22844
:1021B000831203133008B4008A110A1689238A1186
:1021C0000A16E22883120313063A0319ED28063A89
:1021D000B500073A031DFF30B40083120313330820
:1021E00034063506B600F42883120313061683124C
:1021F00003133330AD008316031398160C1603290E
:1022000083120313AB018313831203132D0884007D
:10221000383A031D1C2983120313AC0183160313E0
:1022200098120C128C1683120313181683120313C0
:1022300006128A110A123A28831203130008990021
:10224000AD0A8A110A123A2883120313AB018316CE
:1022500003130D10831203130D10831203131010B8
:102260008E018F01831203132F30AE00AB018A1150
:102270000A123A28831603130C128C1298120800C3
:102280008316031305081F388500831603130230D5
:102290009F00831203139F019F171F1483160313BC
:1022A000E701E801E9010800831603136708003A13
:1022B00003195C29E7030800831203131F190800A0
:1022C0008316031369187029E91895296919BA2921
:1022D000E919DF29691A042AE9016916E8010800E9
:1022E00068198929E8188429831603139F13831218
:1022F00003139F121F129F1183160313E8148316F2
:1023000003130230E70008006815831203131F153A
:102310000800831203131E0883120317C4008316D8
:102320000313E901E914E80108006819AE29E81867
:10233000A929831603139F13831203139F121F12DD
:102340009F1583160313E814831603130230E70066
:1023500008006815831203131F1508008312031366
:102360001E0883120317C60083160313E9016915BB
:10237000E80108006819D329E818CE298316031349
:102380009F13831203139F121F169F1183160313AB
:10239000E814831603130230E7000800681583125F
:1023A00003131F150800831203131E08831203175B
:1023B000C50083160313E901E915E801080068194F
:1023C000F829E818F329831603139F1383120313C4
:1023D0009F121F169F1583160313E8148316031309
:1023E0000230E70008006815831203131F15080068
:1023F000831203131E0883120313BF0083160313F3
:10240000E9016916E801080068191D2AE818182A68
:10241000831603139F13831203139F161F129F111A
:1024200083160313E814831603130230E700080031
:102430006815831203131F150800831203131E0867
:1024400083120313C00083160313E9016914E80122
:042450000800080078
:0C245400831203132608A002031CA1033E
:102460002708A102031CA2030800831203132608F5
:10247000A002031CA1032708A10208008312031372
:10248000A2012608A0070318A10A2708A10703181C
:10249000A20A080083120313A101A00C0318A107CC
:1024A000A10CA00C0318A107A10CA00C0318A107F4
:1024B000A10CA00C0318A107A10CA00C0318A107E4
:1024C000A10CA00C0318A107A10CA00C0318A107D4
:1024D000A10CA00C0318A107A10CA00C08008312EA
:1024E0000313A201A8001030AA0028080310201C22
:1024F0007A2AA207A20CA10CA00C0310AA0B772A1F
:10250000080083120313A301A8001830AA002808AA
:102510000310201C8C2AA307A30CA20CA10CA00C56
:102520000310AA0B892A080083120313A600A20134
:102530000830AA00210DA20D2608A2020318A22A23
:10254000A2070310A10DAA0B9A2AA8010830AA001D
:10255000200DA20DA80D2608A202A9010301031C4B
:10256000290FA8020318BC2A2608A207A901030103
:102570000318290FA8070310A00DAA0BA82A08000A
:1025800083120313A600A3011830AA00200DA10D89
:10259000A20DA30DA00D2608A30203182014201CD1
:1025A000A307AA0BC62A080083120313A301A401E0
:1025B0001830AA00200DA10DA20DA30DA40DA00D91
:1025C0002608A3022708031C270FA40203182014BF
:1025D0002018ED2AA4072608A307AA0BDA2A080068
:1025E000831203132030AA00A501A4010310A00D3B
:1025F000A10DA20DA30DA40DA50D0318072B2708EF
:102600002502031D052B26082402031C0E2B260879
:10261000A402031CA5032708A5022014AA0BF62A6E
:022620000800B0
:0E2622008312031330081F39013A031D1B2BCE
:102630008A110A16CA2B013A023A031D222B8A116B
:102640000A160C2C023A033A031D292B8A110A168A
:10265000052C033A043A031D302B8A110A16FC2B71
:10266000043A053A031D372B8A110A12F82F053A4E
:10267000063A031D3E2B8A110A16E52B063A073A45
:10268000031D452B8A110A16F22B073A083A031D3F
:102690004C2B8A110A16D82B083A04348313831260
:1026A0000313B108031D8317300884000008B50028
:0826B000840A0008B40006349E
:0826B8008312031330088400B3
:1026C000B400831203133108031D6C2B831300081D
:1026D00083120313B5000634013A031D752B8317CB
:1026E000000883120313B5000634033A031D822B3E
:1026F00004088A110A121A278A110A168312031370
:10270000B500063404088A110A12DF278A110A1656
:102710000634831203133008B40084008313831239
:10272000031341188317831203133108B500800087
:0227300006346D
:0E273200831603138610831203138614831676
:10274000031387128312031387128316031387114F
:102750008312031387110800831203138C11930053
:102760008316031314180800B02B8316031340308C
:1027700094008312031320309400831203138610F5
:102780004130AC23831603136C08AC23831203136C
:0427900086140800A3
:0C279400831203133108013A031DD42BFB
:1027A00083120313BA15D72B83120313381207347D
:1027B00083120313B108031DE12B8312031341108D
:0A27C000E42B8312031341140734C5
:0627CA0083120313381B0B
:1027D00000343817BB148312031331088312031318
:0427E000BC000734FE
:0C27E40083120313381B003438173B1518
:0827F00083120317CB0107342B
:0827F80083120313381B0034A7
:0A280000831203133B14381707344A
:06280A0083120313C40158
:0828100083120313B812073410
:08281800033083120313B50025
:062820000230B400063492
:02400E00721F1F
:10420000A000A300AC00A700000000000000000018
:0E42100032000000FF000000FF000000FF0071
:00000001FF
