<0xbdba,2.2>
:020000040000FA
:060000008A110A125128CA
:080008008B13FF0003088312B3
:100010000313F1000A08F2000408F4008316031326
:10002000010883120313F300831203130C08F50075
:100030000D08F600831603130C0883120313F5054D
:10004000831603130D0883120313F6058A110A128F
:10005000F518A22B8A110A12F51A182E8A110A1203
:10006000751ADE2E8A110A127618022F8A110A16C4
:100070008B1E3B280B19FB288B133D28831203137F
:100080007408840072088A007308831603138100C1
:0E0090008312031371088300FF0E7F0E090018
:02009E0000342C
:0200A00000342A
:0E00A2008312031300308B00831603138C00AF
:1000B000831603138D00831203138313031B83170B
:1000C0003830840004084E3A031969288001840AF4
:1000D0006228831603138313031B8317B530840030
:1000E0000408B73A031977288001840A70288A1116
:1000F0000A16D1238A110A1689218A110A12E125CA
:100100008A110A1283160313003088008312031326
:100110008801831603130910831203130910831631
:100120000313891083120313891083160313091113
:100130008312031309118316031387108312031309
:1001400087108316031385128312031385128316F7
:10015000031307108312031307108316031386116A
:100160008312031386118316031386148316031355
:10017000061583160313051683160313061483123C
:10018000031306108A110A1625228A110A128A11EF
:100190000A16EA208A110A1283120313B801831285
:1001A00003138B170B1783120313B917831203134F
:1001B000B91FDC286400D62883120313CD158A11D9
:1001C0000A12CD218A110A128A110A1248228A11B2
:1001D0000A128A110A12F1218A110A128A110A12CC
:1001E00015248A110A128A110A121E278A110A126C
:1001F000DF21CD21831203133A1C0A298312031332
:100200000A30E5005F145F180329831203138B1370
:100210000B13512883120313B91A05228A110A16E7
:100220009D218A110A1283120313381DB3298312E8
:1002300003133C1C6029831203133A118312031326
:100240004A10CA104A11CA11DF21831203134B0846
:10025000003A031D35298316031320088312031364
:10026000E800E70167145B295B29013A031D422975
:1002700083160313210883120313E800E701E71430
:100280005B295B29033A031D4F29831603132208B8
:1002900083120313E800E70167155B295B29013A24
:1002A000031D5B2983160313230883120313E8003D
:1002B000E701E7155B298A110A1224278A110A121D
:1002C00083120313BC1C7329831203133A15831280
:1002D00003134B0883120313E800E7018A110A1283
:1002E00024278A110A12831203133C1D86298312C4
:1002F0000313CE1981298A110A1268238A110A125E
:1003000086298A110A1258228A110A1283120313AB
:10031000BC1D982983120313CE1993298A110A123E
:1003200068238A110A128A110A12F7228A110A1204
:10033000831203133C1FA429831203134B088A1151
:100340000A1632228A110A1283120313BC1FAD2926
:100350008A110A122B248A110A1283120313BC0178
:1003600083120313381183120313B91DB829DF2137
:1003700083120313391EBD29CD218A110A1690223A
:100380008A110A1283120313071ACC29831203134A
:100390004E1183120313CE11FA28831203134D0852
:1003A0008312031388008312031385168A110A1619
:1003B0006C218A110A12831203138512080083121A
:1003C00003134A08831203138800831203130714CC
:1003D0008A110A166C218A110A128312031307105C
:1003E0000800831603130711831603137F3092004E
:1003F00083120313003095002030970004309200E0
:1004000017080C389700071108008312031306140D
:10041000831603133508831203134C06031D372A72
:1004200083120313BA18262A83160313350884008F
:10043000031D202A8A110A16DD238A110A12252A91
:100440008A110A16A5238A110A12372A8316031362
:1004500035088400031D322A8A110A16F1238A11F5
:100460000A12372A8A110A16E7238A110A128312FE
:100470000313B91283160313B501FF30831203135C
:10048000CC008312031306108312031338110800E3
:1004900083160313071683120313CE01CF01D00175
:1004A000D201D30183120313CE112030FE230800A2
:1004B00083120313B8180800831203134E1D652A14
:1004C000831203134E11CE11AB2A831203134E1C59
:1004D0006B2A02300D2CDB30FE238312031378309D
:1004E000D1007D30D000CF01D40183160313FF303B
:1004F0009200831203134E144E13CE164E16CE14D2
:10050000831603138C14831203131215831203131F
:100510004E18862A83120313541CAB2A831203132A
:100520007830D100FF30CF000030D00083160313A5
:10053000FF309200831203134E144E13CE164E1644
:10054000CE10831603138C14831203131215831217
:1005500003134E18A72ACB30FE23831203137830DF
:10056000D1007D30D000CF01D40183160313FF30BA
:100570009200831203134E144E13CE164E16CE1451
:10058000831603138C14831203131215831203139F
:100590004E18C62A831203135418D02A08300D2C83
:1005A000DB30FE23831203137830D100FF30CF00FD
:1005B0000030D000D40183160313FF309200831261
:1005C00003134E144E13CE164E16CE10831603137D
:1005D0008C14831203131215831203134E18EC2A82
:1005E000831203134E15CE154E30FE2308008312DE
:1005F0000313B818080083120313CE1B08008312DC
:1006000003134E1C052B03300D2CCB30FE2383121D
:1006100003137830D10083160313240883120313C5
:10062000CF0083160313250883120313D00083160B
:100630000313FF309200831203134E144E13CE1691
:100640004E16CE14831603138C1483120313121543
:10065000831203134E18282B8316031324088312C6
:100660000313CF0083160313250883120313D0004E
:1006700083120313920192158312031397018312BD
:1006800003138C10CB30FE23831203137830D10078
:1006900083160313FF30920083120313FF30D2003E
:1006A000831203134E144E13CE164E16CE1083161D
:1006B00003138C14831203131215831203134E18A1
:1006C0005D2B83120313CE17CE154E30FE23080088
:1006D000CB30FE23831203137830D100831603132B
:1006E000240883120313CF008316031325088312F3
:1006F0000313D00083160313FF30920083120313F9
:100700004E144E17CE164E16CE10831603138C14AD
:10071000831203131215831203134E188B2B8312AB
:100720000313CE15582A831203134E18A12B8312DC
:100730000313D3080319A12BD303031DA12B4E30A0
:10074000FE23080083120313CE1CAE2B8312031367
:10075000071AAE2B831203135414EF2B83120313C7
:100760004F1CC52B831203134E1EBF2B8312031382
:10077000510883160313120603199203C52B83161F
:1007800003131208FF3A031D920A83120313510840
:10079000831603139200831203134F085004031DA2
:1007A000D52B83120313D414EF2B0130CF02031C7B
:1007B000D0034F08FF3A031DE02BD00803194E1257
:1007C00083120313071500000000000083120313B7
:1007D0000711831203138C108A110A123E28831604
:1007E00003138C1083120313121183120313CE010F
:1007F000831203138C108A110A123E2883120313EA
:1008000088008312031387148A110A166C218A1137
:100810000A12831203138710080083120313B814FB
:0A082000BB00831203130614080046
:06082A008316031387157D
:1008300083160313871683120313D501D517D80126
:10084000D901D601D701FF30DD00DE002030A82518
:1008500020309925080083120313D5018312031356
:10086000B811831603132C08831203135D06031DAE
:100870003C2C55144E309925831603132B088312F4
:1008800003135E06031D472CD5144E30A82583168E
:1008900003132C0883120313DD00831603132B08A4
:1008A00083120313DE00831603132C082702031898
:1008B0005B2C27085C2C2C0883120313D900D80169
:1008C000D80CD90CD80CD80CD90CD80C831603131F
:1008D0002B08260203186E2C26086F2C2B08831277
:1008E0000313D700D601D60CD70CD60C83120313F2
:1008F0009201831203139701831203138C30DC00DF
:1009000083120313D51255128312031355188B2C1F
:10091000D516DB30992583120313D518922C551662
:10092000C730A82583120313831203136430DB003E
:100930005517831203135518B12C83120313871D07
:10094000A92C83120313D51EA82CD5124E3099253D
:10095000B12C83120313551BB12C2030992507307D
:10096000B72D83120313D518C92C83120313871EC6
:10097000C12C83120313551EC02C55124E30A825CE
:10098000C92C83120313551BC92C2030A82506300F
:10099000B72D83120313550830390319D12CD225F2
:1009A000992C831203138C30DC0083120313C8309C
:1009B000DA0083120313D51255128312031355184C
:1009C000E32CDB30992583120313D518E92CC730AB
:1009D000A825D22583120313DA0BE92C8312031303
:1009E0008C30DC0083120313D512551283120313CB
:1009F0005518FD2CD516CB30992583120313D51825
:100A0000042D5516D730A825831203138312031320
:100A10006430DB005517831203135518232D8312FE
:100A2000031387191B2D83120313D51E1A2DD512FC
:100A30004E309925232D83120313551B232D20306F
:100A400099250730B72D83120313D5183B2D831238
:100A50000313871A332D83120313551E322D55129B
:100A60004E30A8253B2D83120313551B3B2D203000
:100A7000A8250630B72D8312031355083039031902
:100A8000432DD2250B2D831203138C30DC008312EF
:100A90000313D51255125513831203135518532DF2
:100AA000D516DB30992583120313D5185A2D551608
:100AB000C730A82583120313D518702D8312031392
:100AC000551E702D8312031356085704031D6C2DF9
:100AD00055124E30A825702D0130D602031CD703C5
:100AE000831203135518862D83120313D51E862DEA
:100AF0008312031358085904031D822DD5124E305A
:100B00009925862D0130D802031CD90383120313C3
:100B10005508303903198E2DD2255A2D831203130F
:100B2000D50183120313B8154E3099254E30A825F0
:100B300008008312031388008312031389148A1197
:100B40000A166C218A110A128312031389100800F5
:100B50008312031388008312031309158A110A16DE
:100B60006C218A110A1283120313091108008312DF
:100B70000313B814BB008312031306148312031368
:100B8000D51783120313FF30DD00DE000800831247
:100B900003135C08143A03190800DC03DC03DC03CC
:100BA000DC0308008312031307150000000007117F
:100BB000831203135C088A110A1683218A110A1210
:020BC00008002B
:0E0BC200831203138313031B83172B3084004D
:100BD000383A0319F02D00308000840A0408E82D0B
:100BE000831203132F30AE003330AD00831603138E
:100BF0002F3099002430980083120313803098001E
:100C000090309800831603130C128C1698128312DE
:100C10000313003090051D080A389D008E018F01D6
:100C2000831603130612831203130612080008002A
:100C300083120313AB012E082F3A0319242E2E081A
:100C4000323A03195B2E6A2E9A1A752E1A081F392A
:100C5000153A031D752EAB1683120313FF309B004C
:100C60000530F038831203139C009C0E03109C0C7B
:100C70001014831603130D14831203131A0883121E
:100C80000313AC01C039003A031D482E2C146A2E00
:100C9000003A403A031D4E2EAC146A2E403AC03A38
:100CA000031D542E2C156A2EC03A803A031D5A2E6D
:100CB000AC156A2E752E1A08B7002F0830063106BB
:100CC0003706031D752E2B16831603138C12831201
:100CD0000313181283132E0884001A0880002B1A9D
:100CE000892EAE0A8A110A123E2883120313AF011D
:100CF000B001B101B2012F30AE00831203130D1009
:100D000010108E018F01831603130D108A110A1221
:100D10003E282F30AE00831203130D1010108E01E9
:100D20008F01831603130D10831203132F08B300D2
:100D3000AC19AC2E2C18A02E2C19B62EAC18A62E41
:100D40008A110A16B9228A110A12C02E8A110A16AD
:100D500019238A110A12C02E831203133008B4001B
:100D60008A110A12CD278A110A12C02E8312031388
:100D70003008B4008A110A16E7248A110A12C02E1C
:100D800083120313063A0319CB2E063AB500073A2D
:100D9000031DFF30B40083120313330834063506F5
:100DA000B600D22E831203130616831203133330B8
:100DB000AD008316031398160C16E12E831203134D
:100DC000AB018313831203132D088400383A031DEB
:100DD000FA2E83120313AC018316031398120C121C
:100DE0008C168312031318168312031306128A112A
:100DF0000A123E288312031300089900AD0A8A11D3
:100E00000A123E2883120313AB01831603130D103D
:100E1000831203130D108312031310108E018F0120
:100E2000831203132F30AE00AB018A110A123E2841
:0C0E3000831603130C128C129812080099
:040E3C008312031307
:100E4000E701203096270800831603132E18862FFB
:100E5000BE27C7278312031368081E020319732FC6
:100E60000318342F6717352F671383120313FF30CE
:100E7000EA00A527831203136716E71683120313EC
:100E8000671B442FDF30452FCF3096278312031383
:100E9000671A4B2F862FC7278312031368081E0279
:100EA0000319732F0318592F83120313671F732F0E
:100EB0005D2F83120313671B732F831203133A1DD5
:100EC0006A2FE713831603131208323A0319692FA6
:100ED0009203722FE713831603131208193A0319AA
:100EE000722F9203462F4E309627831203130F3032
:100EF000E70567080F3983120313CA04C727831253
:100F000003131E0883120313E6000800831603135D
:100F10002E1420309627831203130F30E705831217
:100F20000313680883120313E600080083120313F7
:100F300088008312031309148A110A166C218A117E
:100F40000A12831203130910080083160313FF30DB
:100F50009200831203130030950020309700043074
:100F6000920017080C38970007110800831203132A
:100F7000B814BB0083120313061408008312031372
:100F80009F121F129F11831603139F1308008312D1
:0A0F900003131F151F19CA2F0800D4
:060F9A008312031330086E
:100FA0008400B400831203133108031DDD2F831363
:100FB000000883120313B5000634013A031DE62F1F
:100FC0008317000883120313B5000634033A031D88
:100FD000F32F04088A110A1698238A110A12831221
:100FE0000313B500063404088A110A16FC238A117B
:040FF0000A120634A7
:06200000521630323032AE
:0A200600831203132608A002031C36
:10201000A1032708A102031CA203080083120313D3
:102020002608A002031CA1032708A10208008312AE
:102030000313A2012608A0070318A10A2708A10775
:102040000318A20A080083120313A101A00C0318AD
:10205000A107A10CA00C0318A107A10CA00C031848
:10206000A107A10CA00C0318A107A10CA00C031838
:10207000A107A10CA00C0318A107A10CA00C031828
:10208000A107A10CA00C0318A107A10CA00C08002B
:1020900083120313A201A8001030AA00280803101D
:1020A000201C5328A207A20CA10CA00C0310AA0B01
:1020B0005028080083120313A301A8001830AA00B7
:1020C00028080310201C6528A307A30CA20CA10C50
:1020D000A00C0310AA0B6228080083120313A600A9
:1020E000A2010830AA00210DA20D2608A2020318A1
:1020F0007B28A2070310A10DAA0B7328A8010830A2
:10210000AA00200DA20DA80D2608A202A901030114
:10211000031C290FA802031895282608A207A90165
:1021200003010318290FA8070310A00DAA0B81288B
:10213000080083120313A600A3011830AA00200D83
:10214000A10DA20DA30DA00D2608A30203182014B3
:10215000201CA307AA0B9F28080083120313A301C6
:10216000A4011830AA00200DA10DA20DA30DA40DED
:10217000A00D2608A3022708031C270FA40203189A
:1021800020142018C628A4072608A307AA0BB328E2
:102190000800831203132030AA00A501A401031034
:1021A000A00DA10DA20DA30DA40DA50D0318E028EF
:1021B00027082502031DDE2826082402031CE72821
:1021C0002608A402031CA5032708A5022014AA0BB5
:0421D000CF2808000C
:0C21D40083160313811101118110011406
:1021E00081128B16831203130A30E0000A30E100DB
:1021F0000A30E200080083120313E00B61290A3061
:10220000E00083120313EC1D0829EF08031DEF0300
:1022100083120313671E0F29EA03031967128A1139
:102220000A12C7258A110A1683120313E10B6129CA
:102230000A30E1008A110A1293238A110A168312C6
:102240000313551F2629DB030319551383120313A8
:102250004D08073983120313E4003E3E84008312C5
:1022600003133D08831203138000831203134D08E8
:10227000F839CD0083120313640A0739CD048312A1
:102280000313B91383120313B915391683120313F9
:102290005F1C4D29E50303195F1083120313E20B42
:1022A00061290A30E200831203130608083A860007
:1022B00083120313EC1C61298A110A1676228A11F3
:1022C0000A160B118A110A123E28831203130430D6
:1022D000E400E40B69290800831203132830E400AA
:1022E000E40B70290800831203130A30A0006C214C
:1022F000A00B77290800831203133230A100732149
:10230000A10B7F29080083120313A200A20B8629C8
:022310000800C3
:0E2312008316031305080B388500831603138A
:1023200004309F00831203139F019F171F1483160D
:102330000313B201B301B40108008316031332087A
:10234000003A0319A529B2030800831203131F19C9
:102350000800831603133418B529B418DA29B41900
:10236000FF29B401B415B30108003319CE29B318FD
:10237000C929831603139F13831203139F121F127D
:102380009F1183160313B314831603130030B20096
:1023900008003315831203131F150800831203135B
:1023A0001E0883120313EB0083160313B401B41445
:1023B000B30108003319F329B318EE298316031368
:1023C0009F13831203139F121F129F15831603136B
:1023D000B314831603130030B200080033158312C0
:1023E00003131F150800831203131E08831203131F
:1023F000BD0083160313B401B415B30108003319EB
:10240000182AB318132A831603139F138312031376
:102410009F121F169F1583160313B31483160313FD
:102420000030B20008003315831203131F15080093
:10243000831203131E0883120313C60083160313AB
:0A244000B4013414B30108000800D1
:06244A00831603130516C2
:10245000831603130511831203130511831203134B
:10246000EC01080083120313ED00831203136D1FA8
:10247000522A831203130515831203136C1483125B
:102480000313ED1F512A83120313CE194C2A8A110C
:102490000A1268238A110A168A110A12F7228A116F
:1024A0000A166D2A831203130511831203136C108D
:1024B000EC10EE0183120313ED1F6D2A8312031338
:1024C000CE19682A8A110A1268238A110A166D2AFF
:1024D0008A110A1258228A110A16831203136D08F0
:1024E0003F3903190800EE00EC14080083120313AF
:1024F0003819080083120313EE03031D0800EC10C3
:102500008312031338153C1783120313CB01080001
:1025100083120313B814BB008312031306140800BC
:1025200083120313051E9D2A831203136C199C2A20
:102530006C15EC153230EF00A52A831203136C1DC5
:10254000A52A6C11EC153230EF0083120313EC1D39
:10255000080083120313EF08031D0800EC11831613
:1025600003132D08C0388A110A1632228A110A165E
:02257000080061
:0E2572008312031330081F39013A031DC32AD8
:102580008A110A16D82C013A023A031DCA2A8A1166
:102590000A16FD2C023A033A031DD12A8A110A16A3
:1025A000F32C033A043A031DD82A8A110A16752C13
:1025B000043A053A031DDF2A8A110A165F2C053AF0
:1025C000063A031DE62A8A110A16182C063A073A1B
:1025D000031DED2A8A110A16482C073A083A031DF2
:1025E000F42A8A110A162C2B083A093A031DFB2AF1
:1025F0008A110A16312C093A0A3A031D022B8A1154
:102600000A16B52C0A3A0B3A031D092B8A110A1631
:10261000A02C0B3A0C3A031D102B8A110A168B2C96
:102620000C3A0D3A031D172B8A110A16C82C0D3AC5
:10263000043483120313381900343815BC1783127D
:102640000313300883160313AB00831203133108FE
:0826500083160313AC000734EC
:0826580083120313B8180334C8
:102660008312031338190034831203133108003A1C
:10267000031D422B83120313660883160313A00065
:10268000972B972B013A031D4D2B831203136608DA
:1026900083160313A100972B972B033A031D582B86
:1026A00083120313660883160313A200972B972B3C
:1026B000013A031D632B8312031366088316031369
:1026C000A300972B972B073A031D792B831603132F
:1026D0000130AF0083160313B50183120313CC013D
:1026E00083120313BA10B916831203133815972BEC
:1026F000972B013A031D8F2B831603130030AF0075
:1027000083160313B50183120313CC008312031342
:10271000BA10B916831203133815972B972B033A67
:10272000031D952B0734972B972B0234972B0734D7
:10273000831203178D00A0308D02831603178C13AC
:102740000C14831203170C08080083138316031755
:102750008C18A82B0408831203178D00A0308D025B
:10276000831203130008831203178C0083160317C8
:102770008C130C158B1BC52B55308D00AA308D008A
:102780008C140C118C18C22B08008B1355308D0043
:10279000AA308D008C140C118C18CC2B8B170800D0
:1027A00008008313A0308400040898238000840A62
:1027B0000408B23A031DD42B08008313A030840010
:1027C000A523840A0408B03A031DE02B08008313F4
:1027D00013308A000408FC238A110A168000A523FE
:1027E00008008313A0308400E723840A0408B03A69
:0827F00003190800F42B080096
:0827F800A03CFF3C013E123C35
:1028000003190034031C0034123C82072234613463
:10281000A134DF3440340634BE34FF340034003495
:1028200000340034003414340034003400340034F4
:1028300083120313671A0034831203133819003408
:102840008312031331080C39031D0234831203135E
:102850003C14381583120313310883120313CB0081
:0228600007343B
:0E286200831203134E180034831203133C1923
:102870000734831203133819003438153C158312BA
:1028800003130511831203136C10EC10EE010734CF
:1028900083120313B818033483120313671A003426
:1028A000831203133819003483120313BC14381530
:0E28B00083120313310883120313CB00073485
:0228BE00831283
:1028C0000313B91A00348312031338190034831226
:1028D0000313310883160313B50083120313CC00CE
:0A28E00083120313BA10B91607346F
:0628EA0083120313B91A6A
:1028F0000034831203133819003483120313310890
:1029000083160313B50083120313CC008312031341
:06291000BA14B9160734E9
:0A291600831203134E1800348312DD
:102920000313BC1A07348312031338190034381503
:10293000BC1683120313310883120313CB00073430
:10294000831203134E180034831203133C1A073406
:10295000831203133819003438153C1683120313FD
:0A296000310883120313CB00073483
:06296A00831203134E1856
:10297000003483120313CE1B073483120313BC19D4
:10298000073483120313381900343815BC15073483
:10299000831203133819003438153C1783120313BC
:1029A000310883120313CB0083120313EC10073496
:1029B000831203133108013A031DE32C831203131E
:0E29C0003A143815E62C83120313381007342E
:0229CE00831272
:1029D00003133008B4008400831203133108B500D8
:0629E000831380000634A1
:0A29E60083120313BB0183120313D5
:0A29F000B810831203130610073419
:0629FA00023083120313FA
:082A0000B5000230B4000634F9
:02400E00723FFF
:1042000022006100A100DF0040000600BE00FF00A8
:10421000000000000000000000001400000000008A
:04422000000000009A
:00000001FF
