<0xb14a,2.2>
:020000040000FA
:060000008A110A125128CA
:080008008B13FF0003088312B3
:100010000313F1000A08F2000408F4008316031326
:10002000010883120313F300831203130C08F50075
:100030000D08F600831603130C0883120313F5054D
:10004000831603130D0883120313F6058A110A128F
:10005000F5186C2D8A110A12F51A132E8A110A123C
:10006000751AD92E8A110A127618FD2E8A110A16CF
:100070008B1E3B280B19C3288B133D2883120313B7
:100080007408840072088A007308831603138100C1
:0E0090008312031371088300FF0E7F0E090018
:02009E0000342C
:0200A00000342A
:0E00A2008312031300308B00831603138C00AF
:1000B000831603138D00831203138313031B83170B
:1000C0003830840004084E3A031969288001840AF4
:1000D0006228831603138313031B8317B530840030
:1000E0000408B73A031977288001840A70288A1116
:1000F0000A1699238A110A1651218A110A12DC253F
:100100008A110A1283160313003088008312031326
:100110008801831603130910831203130910831631
:100120000313891083120313891083160313091113
:100130008312031309118316031387108312031309
:1001400087108316031385128312031385128316F7
:10015000031307108312031307108316031386116A
:100160008312031386118316031386148316031355
:10017000061583160313051683160313061483123C
:10018000031306108A110A16ED218A110A128A1128
:100190000A16B2208A110A1283120313B8018312BD
:1001A00003138B170B1783120313B917831203134F
:1001B000B91FDC286400D62883120313CD158A11D9
:1001C0000A12CD218A110A128A110A1214248A11E4
:1001D0000A128A110A12F1218A110A128A110A12CC
:1001E00048228A110A128A110A1603208A110A1259
:1001F000DF21CD21831203133A1C0A298312031332
:100200000A30E5005F145F180329831203138B1370
:100210000B13512883120313B91A05228A110A16E7
:1002200065218A110A1283120313381DB329831220
:1002300003133C1C6029831203133A118312031326
:100240004A10CA104A11CA11DF21831203134B0846
:10025000003A031D35298316031320088312031364
:10026000E800E70167145B295B29013A031D422975
:1002700083160313210883120313E800E701E71430
:100280005B295B29033A031D4F29831603132208B8
:1002900083120313E800E70167155B295B29013A24
:1002A000031D5B2983160313230883120313E8003D
:1002B000E701E7155B298A110A1609208A110A123B
:1002C00083120313BC1C7329831203133A15831280
:1002D00003134B0883120313E800E7018A110A167F
:1002E00009208A110A12831203133C1D86298312E6
:1002F0000313CE1981298A110A1232258A110A1292
:1003000086298A110A1224248A110A1283120313DD
:10031000BC1D982983120313CE1993298A110A123E
:1003200032258A110A128A110A12C1248A110A126C
:10033000831203133C1FA429831203134B088A1151
:100340000A16FA218A110A1283120313BC1FAD295F
:100350008A110A125E228A110A1283120313BC0147
:1003600083120313381183120313B91DB829DF2137
:1003700083120313391EBD29CD218A110A16582272
:100380008A110A1283120313071ACC29831203134A
:100390004E1183120313CE11FA28831203134D0852
:1003A0008312031388008312031385168A110A1619
:1003B00034218A110A128312031385120800831252
:1003C00003134A08831203138800831203130714CC
:1003D0008A110A1634218A110A1283120313071094
:1003E0000800831603130711831603137F3092004E
:1003F00083120313003095002030970004309200E0
:1004000017080C389700071108008312031306140D
:10041000831603133508831203134C06031D372A72
:1004200083120313BA18262A83160313350884008F
:10043000031D202A8A110A16A5238A110A12252AC9
:100440008A110A166D238A110A12372A831603139A
:1004500035088400031D322A8A110A16B9238A112D
:100460000A12372A8A110A16AF238A110A12831236
:100470000313B91283160313B501FF30831203135C
:10048000CC008312031306108312031338110800E3
:10049000831603138715831603138716831203131A
:1004A000D501D517D801D901D601D701FF30DD001C
:1004B000DE002030DB232030CC230800831203131E
:1004C000D50183120313B811831603132C0883126A
:1004D00003135D06031D6F2A55144E30CC2383167B
:1004E00003132B08831203135E06031D7A2AD51407
:1004F0004E30DB23831603132C0883120313DD0015
:10050000831603132B0883120313DE0083160313D1
:100510002C08270203188E2A27088F2A2C088312FA
:100520000313D900D801D80CD90CD80CD80CD90C8D
:10053000D80C831603132B0826020318A12A2608B9
:10054000A22A2B0883120313D700D601D60CD70C8E
:10055000D60C8312031392018312031397018312A3
:1005600003138C30DC0083120313D512551283124F
:1005700003135518BE2AD516DB30CC238312031380
:10058000D518C52A5516C730DB23831203138312EF
:1005900003136430DB005517831203135518E42A44
:1005A00083120313871DDC2A83120313D51EDB2A53
:1005B000D5124E30CC23E42A83120313551BE42AB0
:1005C0002030CC230730EA2B83120313D518FC2AE2
:1005D00083120313871EF42A83120313551EF32A72
:1005E00055124E30DB23FC2A83120313551BFC2AC1
:1005F0002030DB230630EA2B8312031355083039F1
:100600000319042B0524CC2A831203138C30DC003D
:1006100083120313C830DA0083120313D512551264
:10062000831203135518162BDB30CC2383120313CC
:10063000D5181C2BC730DB23052483120313DA0BD8
:100640001C2B831203138C30DC0083120313D5128E
:100650005512831203135518302BD516CB30CC23EB
:1006600083120313D518372B5516D730DB2383128B
:100670000313831203136430DB0055178312031333
:100680005518562B8312031387194E2B831203130D
:10069000D51E4D2BD5124E30CC23562B831203136F
:1006A000551B562B2030CC230730EA2B8312031323
:1006B000D5186E2B83120313871A662B831203132C
:1006C000551E652B55124E30DB236E2B8312031300
:1006D000551B6E2B2030DB230630EA2B83120313CD
:1006E000550830390319762B05243E2B831203134A
:1006F0008C30DC0083120313D5125512551383126C
:1007000003135518862BD516DB30CC238312031325
:10071000D5188D2B5516C730DB2383120313D5183C
:10072000A32B83120313551EA32B83120313560806
:100730005704031D9F2B55124E30DB23A32B013092
:10074000D602031CD703831203135518B92B831247
:100750000313D51EB92B8312031358085904031D24
:10076000B52BD5124E30CC23B92B0130D802031C47
:10077000D90383120313550830390319C12B0524FB
:100780008D2B83120313D50183120313B8154E303A
:10079000CC234E30DB23080083120313880083121E
:1007A000031389148A110A1634218A110A1283123A
:1007B00003138910080083120313880083120313A4
:1007C00009158A110A1634218A110A128312031399
:1007D0000911080083120313B814BB00831203131A
:1007E000061483120313D51783120313FF30DD00A1
:1007F000DE000800831203135C08143A0319080092
:10080000DC03DC03DC03DC0308008312031307159D
:10081000000000000711831203135C088A110A16F6
:080820004B218A110A120800A5
:08082800831603130716831267
:100830000313CE01CF01D001D201D30183120313E0
:10084000CE112030C525080083120313B818080004
:10085000831203134E1D312C831203134E11CE113C
:10086000762C831203134E1C372C0230D42DDB3030
:10087000C525831603137830920083120313783052
:10088000D1007D30D000CF01D401831203134E1468
:100890004E17CE124E16CE14831603138C148312E9
:1008A00003131215831203134E18522C83120313D1
:1008B000541C762C83160313DC309200831203132E
:1008C000C830D1009630CF00D001831203134E14EC
:1008D0004E17CE124E16CE10831603138C148312AD
:1008E00003131215831203134E18722CCB30C52537
:1008F00083160313DC30920083120313C830D10037
:100900002030D000CF01D401831203134E144E17B0
:10091000CE124E12CE14831603138C1483120313BB
:100920001215831203134E18912C831203135418BB
:100930009B2C0830D42DDB30C52583120313C8301F
:10094000D1003230CF00D001D40183160313DC3044
:100950009200831203134E144E17CE124E12CE1075
:10096000831603138C1483120313121583120313BB
:100970004E18B62C831203134E15CE154E30C525D6
:10098000080083120313B818080083120313CE1B48
:100990000800831203134E1CCF2C0330D42DCB3010
:1009A000C52583120313C830D1008316031324080E
:1009B00083120313CF008316031325088312031336
:1009C000D00083160313DC309200831203134E14FD
:1009D0004E17CE124E16CE14831603138C148312A8
:1009E00003131215831203134E18F22C83160313EC
:1009F000240883120313CF008316031325088312E0
:100A00000313D00083120313920192158312031370
:100A10009701831203138C10CB30C5258312031367
:100A20007830D100831603137830920083120313B9
:100A3000FF30D200831203134E144E17CE124E16FF
:100A4000CE10831603138C14831203131215831212
:100A500003134E18272D83120313CE17CE154E30D5
:100A6000C5250800CB30C525831203137830D1008B
:100A700083160313240883120313CF008316031372
:100A8000250883120313D00083160313FF3092004E
:100A9000831203134E144E17CE124E16CE10831629
:100AA00003138C14831203131215831203134E18AD
:100AB000552D83120313CE15242C831203134E18C5
:100AC0006B2D83120313D30803196B2DD303031D5E
:100AD0006B2D4E30C525080083120313CE1C782DD4
:100AE00083120313071A782D831203135414B62D9F
:100AF000831203134E1F902D831203134E1E892D54
:100B00008312031351088316031312060319920369
:100B10008F2D831603131208FF3A031D920A962D98
:100B200083120313510883160313920083120313D5
:100B30004F085004031DA02D83120313D414B62DA7
:100B40000130CF02031CD003500803194E12831248
:100B500003130715000000000000831203130711A0
:100B6000831203138C108A110A123E288316031372
:100B70008C1083120313121183120313CE018312FC
:100B800003138C108A110A123E2883120313880063
:100B90008312031387148A110A1634218A110A1248
:100BA000831203138710080083120313B814BB00C9
:080BB000831203130614080070
:080BB800831203138313031BD6
:100BC00083172B308400383A0319EB2D0030800056
:100BD000840A0408E32D831203132F30AE00333050
:100BE000AD00831603132F30990024309800831230
:100BF00003138030980090309800831603130C1272
:100C00008C16981283120313003090051D080A38C1
:100C10009D008E018F0183160313061283120313A6
:100C200006120800080083120313AB012E082F3AA6
:100C300003191F2E2E08323A0319562E652E9A1AC2
:100C4000702E1A081F39153A031D702EAB16831229
:100C50000313FF309B000530F038831203139C0010
:100C60009C0E03109C0C1014831603130D14831296
:100C700003131A0883120313AC01C039003A031D91
:100C8000432E2C14652E003A403A031D492EAC1415
:100C9000652E403AC03A031D4F2E2C15652EC03AE2
:100CA000803A031D552EAC15652E702E1A08B7001C
:100CB0002F08300631063706031D702E2B168316BB
:100CC00003138C1283120313181283132E0884004B
:100CD0001A0880002B1A842EAE0A8A110A123E28A6
:100CE00083120313AF01B001B101B2012F30AE0086
:100CF000831203130D1010108E018F01831603133E
:100D00000D108A110A123E282F30AE0083120313F1
:100D10000D1010108E018F01831603130D10831216
:100D200003132F08B300AC19A72E2C189B2E2C19D7
:100D3000B12EAC18A12E8A110A1681228A110A122C
:100D4000BB2E8A110A16E1228A110A12BB2E8312C7
:100D500003133008B4008A110A16C4238A110A1238
:100D6000BB2E831203133008B4008A110A16DC2448
:100D70008A110A12BB2E83120313063A0319C62ED8
:100D8000063AB500073A031DFF30B400831203137F
:100D9000330834063506B600CD2E8312031306162B
:100DA000831203133330AD008316031398160C1609
:100DB000DC2E83120313AB018313831203132D085C
:100DC0008400383A031DF52E83120313AC018316F9
:100DD000031398120C128C16831203131816831225
:100DE000031306128A110A123E2883120313000805
:100DF0009900AD0A8A110A123E2883120313AB012F
:100E0000831603130D10831203130D1083120313A3
:100E100010108E018F01831203132F30AE00AB012F
:100E20008A110A123E28831603130C128C12981290
:020E30000800B8
:0E0E3200831203132608A002031CA103270845
:100E4000A102031CA2030800831203132608A002B8
:100E5000031CA1032708A102080083120313A201A7
:100E60002608A0070318A10A2708A1070318A20A49
:100E7000080083120313A101A00C0318A107A10C01
:100E8000A00C0318A107A10CA00C0318A107A10C2A
:100E9000A00C0318A107A10CA00C0318A107A10C1A
:100EA000A00C0318A107A10CA00C0318A107A10C0A
:100EB000A00C0318A107A10CA00C080083120313B7
:100EC000A201A8001030AA0028080310201C692FD6
:100ED000A207A20CA10CA00C0310AA0B662F0800FD
:100EE00083120313A301A8001830AA0028080310D6
:100EF000201C7B2FA307A30CA20CA10CA00C031099
:100F0000AA0B782F080083120313A600A201083051
:100F1000AA00210DA20D2608A2020318912FA207F4
:100F20000310A10DAA0B892FA8010830AA00200DDB
:100F3000A20DA80D2608A202A9010301031C290F76
:100F4000A8020318AB2F2608A207A9010301031862
:100F5000290FA8070310A00DAA0B972F08008312D2
:100F60000313A600A3011830AA00200DA10DA20DA5
:100F7000A30DA00D2608A30203182014201CA3070C
:100F8000AA0BB52F080083120313A301A401183084
:100F9000AA00200DA10DA20DA30DA40DA00D2608E1
:100FA000A3022708031C270FA402031820142018EB
:100FB000DC2FA4072608A307AA0BC92F0800831259
:100FC00003132030AA00A501A4010310A00DA10D58
:100FD000A20DA30DA40DA50D0318F62F27082502B9
:100FE000031DF42F26082402031CFD2F2608A4024B
:100FF000031CA5032708A5022014AA0BE52F08004F
:06200000521630323032AE
:0A20060083120313E70120307B2052
:102010000800831603132E186B28A320AC2083120C
:10202000031368081E020319582803181928671794
:102030001A28671383120313FF30EA008A208312E1
:1020400003136716E71683120313671B2928DF3073
:102050002A28CF307B2083120313671A30286B287D
:10206000AC208312031368081E02031958280318B2
:102070003E2883120313671F582842288312031334
:10208000671B5828831203133A1D4F28E713831642
:1020900003131208323A03194E2892035728E71304
:1020A000831603131208193A0319572892032B2891
:1020B0004E307B20831203130F30E70567080F397A
:1020C00083120313CA04AC20831203131E08831265
:1020D0000313E6000800831603132E1420307B2020
:1020E000831203130F30E70583120313680883126A
:1020F0000313E600080083120313880083120313FE
:1021000009148A110A1634218A110A16831203133C
:102110000910080083160313FF3092008312031383
:1021200000309500203097000430920017080C38DA
:1021300097000711080083120313B814BB00831221
:10214000031306140800831203139F121F129F111A
:10215000831603139F130800831203131F151F19FF
:04216000AF2808009C
:0C21640083160313811101118110011476
:1021700081128B16831203130A30E0000A30E1004B
:102180000A30E200080083120313E00B29290A3009
:10219000E00083120313EC1DD028EF08031DEF03AA
:1021A00083120313671ED728EA03031967128A11E3
:1021B0000A12FA238A110A1683120313E10B292942
:1021C0000A30E1008A110A125D258A110A1683126B
:1021D0000313551FEE28DB03031955138312031352
:1021E0004D08073983120313E4003E3E8400831236
:1021F00003133D08831203138000831203134D0859
:10220000F839CD0083120313640A0739CD04831211
:102210000313B91383120313B91539168312031369
:102220005F1C1529E50303195F1083120313E20BEA
:1022300029290A30E200831203130608083A8600AF
:1022400083120313EC1C29298A110A163E228A11D3
:102250000A160B118A110A123E2883120313043046
:10226000E400E40B31290800831203132830E40052
:10227000E40B38290800831203130A30A00034212C
:10228000A00B3F290800831203133230A1003B2129
:10229000A10B4729080083120313A200A20B4E29A9
:0222A000080034
:0E22A2008316031305080B38850083160313FB
:1022B00004309F00831203139F019F171F1483167E
:1022C0000313B201B301B4010800831603133208EB
:1022D000003A03196D29B2030800831203131F1972
:1022E00008008316031334187D29B418A229B419E1
:1022F000C729B401B415B301080033199629B318DE
:102300009129831603139F13831203139F121F1225
:102310009F1183160313B314831603130030B20006
:1023200008003315831203131F15080083120313CB
:102330001E0883120313EB0083160313B401B414B5
:10234000B30108003319BB29B318B6298316031348
:102350009F13831203139F121F129F1583160313DB
:10236000B314831603130030B20008003315831230
:1023700003131F150800831203131E08831203138F
:10238000BD0083160313B401B415B301080033195B
:10239000E029B318DB29831603139F138312031359
:1023A0009F121F169F1583160313B314831603136E
:1023B0000030B20008003315831203131F15080004
:1023C000831203131E0883120313C600831603131C
:0A23D000B4013414B3010800080042
:0623DA0083160313051633
:1023E00083160313051183120313051183120313BC
:1023F000EC01080083120313ED00831203136D1F19
:102400001A2A831203130515831203136C14831203
:102410000313ED1F192A83120313CE19142A8A11EC
:102420000A1232258A110A168A110A12C1248A1147
:102430000A16352A831203130511831203136C1035
:10244000EC10EE0183120313ED1F352A83120313E0
:10245000CE19302A8A110A1232258A110A16352A13
:102460008A110A1224248A110A16831203136D0892
:102470003F3903190800EE00EC140800831203131F
:102480003819080083120313EE03031D0800EC1033
:102490008312031338153C1783120313CB01080072
:1024A00083120313B814BB0083120313061408002D
:1024B00083120313051E652A831203136C19642A01
:1024C0006C15EC153230EF006D2A831203136C1D6E
:1024D0006D2A6C11EC153230EF0083120313EC1DE2
:1024E000080083120313EF08031D0800EC11831684
:1024F00003132D08C0388A110A16FA218A110A1608
:022500000800D1
:0E2502008312031330081F39013A031D8B2A80
:102510008A110A16CD2C013A023A031D922A8A1119
:102520000A16F22C023A033A031D992A8A110A1656
:10253000E82C033A043A031DA02A8A110A166A2CD1
:10254000043A053A031DA72A8A110A16542C053AA3
:10255000063A031DAE2A8A110A160D2C063A073ACE
:10256000031DB52A8A110A163D2C073A083A031DA5
:10257000BC2A8A110A16F42A083A093A031DC32A0A
:102580008A110A16262C093A0A3A031DCA2A8A1108
:102590000A16AA2C0A3A0B3A031DD12A8A110A16E6
:1025A000952C0B3A0C3A031DD82A8A110A16802C56
:1025B0000C3A0D3A031DDF2A8A110A16BD2C0D3A7A
:1025C000043483120313381900343815BC178312EE
:1025D0000313300883160313AB008312031331086F
:0825E00083160313AC0007345D
:0825E80083120313B818033439
:1025F0008312031338190034831203133108003A8D
:10260000031D0A2B83120313660883160313A0000D
:102610005F2B5F2B013A031D152B831203136608F2
:1026200083160313A1005F2B5F2B033A031D202B9E
:1026300083120313660883160313A2005F2B5F2B1C
:10264000013A031D2B2B8312031366088316031311
:10265000A3005F2B5F2B073A031D412B8316031347
:102660000130AF0083160313B50183120313CC01AD
:1026700083120313BA10B9168312031338155F2B94
:102680005F2B013A031D572B831603130030AF0055
:1026900083160313B50183120313CC0083120313B3
:1026A000BA10B9168312031338155F2B5F2B033A48
:1026B000031D5D2B07345F2B5F2B02345F2B073428
:1026C000831203178D00A0308D02831603178C131D
:1026D0000C14831203170C080800831383160317C6
:1026E0008C18702B0408831203178D00A0308D0204
:1026F000831203130008831203178C008316031739
:102700008C130C158B1B8D2B55308D00AA308D0032
:102710008C140C118C188A2B08008B1355308D00EB
:10272000AA308D008C140C118C18942B8B17080078
:1027300008008313A0308400040860238000840A0A
:102740000408B23A031D9C2B08008313A0308400B8
:102750006D23840A0408B03A031DA82B08008313D4
:1027600013308A000408F1238A110A1680006D23B1
:1027700008008313A0308400AF23840A0408B03A11
:0827800003190800BC2B08003E
:082788008312031330088400E2
:10279000B400831203133108031DD42B83130008E4
:1027A00083120313B5000634013A031DDD2B831792
:1027B000000883120313B5000634033A031DEA2B05
:1027C00004088A110A1660238A110A168312031359
:1027D000B500063404088A110A16F1238A110A1674
:0227E0000634BD
:0E27E200A03CFF3C013E123C03190034031CD6
:1027F0000034123C820722346134A134DF34F434D3
:102800000634BE34FF340034003400340034003465
:0A28100014340034003400340034A6
:06281A0083120313671A8C
:102820000034831203133819003483120313310860
:102830000C39031D0234831203133C143815831220
:0C2840000313310883120313CB0007348C
:04284C0083120313DD
:102850004E180034831203133C19073483120313F8
:102860003819003438153C158312031305118312EF
:0A28700003136C10EC10EE010734A6
:06287A0083120313B818DD
:10288000033483120313671A0034831203133819B5
:10289000003483120313BC14381583120313310858
:0828A00083120313CB0007347F
:0828A80083120313B91A003476
:1028B000831203133819003483120313310883166B
:1028C0000313B50083120313CC0083120313BA1051
:0428D000B9160734FA
:0C28D40083120313B91A0034831203139B
:1028E0003819003483120313310883160313B5001B
:1028F00083120313CC0083120313BA14B9160734DE
:10290000831203134E18003483120313BC1A0734C6
:1029100083120313381900343815BC1683120313BD
:0A292000310883120313CB000734C3
:06292A00831203134E1896
:102930000034831203133C1A07348312031338192B
:10294000003438153C168312031331088312031325
:04295000CB0007347D
:0C295400831203134E1800348312031387
:10296000CE1B073483120313BC19073483120313DD
:0A297000381900343815BC1507347F
:06297A008312031338195B
:10298000003438153C1783120313310883120313E4
:0A299000CB0083120313EC10073490
:06299A0083120313310853
:1029A000013A031DD82C831203133A143815DB2C7B
:0829B0008312031338100734F1
:0829B800831203133008B40080
:1029C0008400831203133108B5008313800006349A
:1029D00083120313BB0183120313B8108312031372
:0429E00006100734A2
:0C29E400023083120313B5000230B4006F
:0229F0000634AB
:02400E00723FFF
:1042000022006100A100DF00F4000600BE00FF00F4
:10421000000000000000000000001400000000008A
:04422000000000009A
:00000001FF
