<0xaed4,3.3>
:020000040000FA
:060000008A110A16532CC0
:020006000734BD
:080008008B13FF0003088312B3
:100010000313F1000A08F2000408F4008316031326
:10002000010883120313F300831203130C08F50075
:100030000D08F600831603130C0883120313F5054D
:10004000831603130D0883120313F6058A150A1687
:100050007518C5298A110A12F518C82F8A110A12B3
:10006000F51AE42E8A110A12751AA42F8A150A129B
:100070008B1E3B280B19D92B8B133D28831203139E
:100080007408840072088A007308831603138100C1
:0E0090008312031371088300FF0E7F0E090018
:02009E0000342C
:0200A00000342A
:0E00A200831203175908013A031D87288312A1
:1000B00003133A11831203133C1083160313D11157
:1000C00083120313B9168A150A1203238A110A121E
:1000D0000319722883120313B8140130BE008A1565
:1000E0000A12F82983120313FF30CA008A150A1670
:1000F000A7208A110A12831603132B0883120313F5
:100100006111E700611583120317D90AA22B033A84
:10011000031D2929831203136119962883120313DF
:10012000B8140330BE008A150A12F829831203138B
:10013000B81C9D288A150A12F829831603132A0869
:10014000031DAA2883160313401D080083160313FA
:100150004115AE2883160313521F080083120313A0
:10016000C11EB628831603135116B928831603132C
:10017000511283120313411EC12883160313D11693
:10018000C42883160313D112831203134008831665
:100190000313DB008312031341080F398316031383
:1001A000DC008A150A16B7238A110A128312031378
:1001B000430E07398A150A1609238A110A12831673
:1001C00003132108831203134302031CFF28031D9A
:1001D000F128831603132008831203134202031C21
:1001E000FF2883160313200883160313DF008316EA
:1001F000031321080F3983160313E0000C2983121F
:100200000313420883160313DF008312031343080A
:100210000F3983160313E000831603135F0883125C
:100220000313DE0083160313600883120313DF0039
:100230008A150A16ED238A110A128316031327085A
:10024000831203136111E700611583120317D90AA2
:10025000A22B013A031D44298312031361190800DC
:100260008316031351148A150A12C2218A110A1225
:10027000831603132308831203136111E70061152A
:1002800083120317D90AA22B073A031DBE29831232
:1002900003136119532983120313B8141530BE00D8
:1002A0008A150A12F82983120313061E08008A1100
:1002B0000A162D268A110A1283160313D0148A15E2
:1002C0000A12C2218A110A128312031344088312EC
:1002D0000313AD0083120313450883120313AE000A
:1002E0008A150A1662218A110A128312031339121F
:1002F000831203133A17831603132208831203137E
:100300006110E500611483160313D1148A150A12D3
:10031000C2218A110A12831203170F30DE008312E2
:100320000313BA153A128312031790019101831235
:100330000313B81EA32983120313B8141B30BE0085
:100340008A150A12F82983120313BF1FB029BF139D
:10035000BC143F0883120313E110E600E114B7292F
:10036000BC103F08831203136111E700611583126B
:100370000313871483120317D90AA22B013A031D12
:10038000DD2983120317EB1CD929EB108A150A12F9
:10039000D4228A110A1283120317170896008312B7
:1003A0000317100883160317900083120317D90A46
:1003B00008008A150A12152BA22B033A031DEC29FB
:1003C000831603132308831203136111E7006115D9
:1003D00083120317D90AA22B013A031D7C2A831228
:1003E00003133C1C08003C1083120313CB01CC0107
:1003F0008316031351148A150A12C2218A110A1294
:1004000083120313C11E082A8316031351160B2AE5
:1004100083160313511283120313411E132A8316EA
:100420000313D116162A83160313D1128312031352
:10043000400883160313DB008312031341080F39AE
:1004400083160313DC008A150A16B7238A110A12D1
:10045000831603132108831203134302031C482A43
:10046000031D3A2A83160313200883120313420242
:10047000031C482A83160313200883160313DF0086
:100480008316031321080F3983160313E000552A3E
:1004900083120313420883160313DF00831203132E
:1004A00043080F3983160313E000831603135F0814
:1004B00083120313DE0083160313600883120313F1
:1004C000DF008A150A16ED238A110A128A110A160C
:1004D0002D268A110A12831203130915831603139A
:1004E0002308831203136111E700611583120317B8
:1004F0000B30D900A22BA22B0D3A031D8A2A1430EF
:10050000831203136111E700611583120317D90ADF
:10051000A22BA22B013A031D142B83120313611982
:10052000992A83120313B8141530BE008A150A12D3
:10053000F82983120313061E080083120313CE0842
:100540000319B02ACE03831603132308831203135F
:100550006111E7006115831203170E30D9000800FE
:1005600083120313440883120313AD008312031391
:10057000450883120313AE008A150A1662218A11F8
:100580000A12831203133912831203133A178316C4
:1005900003132208831203136110E500611483160C
:1005A0000313D1148A150A12C2218A110A12831266
:1005B00003170F30DE0083120313BA153A128312A9
:1005C000031790019101831203133A158312031349
:1005D000B81EF22A83120313B8141B30BE008A150A
:1005E0000A12F82983120313520883120313DB0043
:1005F00083120313BF1F052BBF13BC143F088312C4
:100600000313E110E600E1140C2BBC103F08831229
:1006100003136111E700611583120313871483121A
:100620000317D90AA22BA22B073A031D4A2B8312C8
:100630000317EB1C452BEB10831203138710831257
:100640000313BA192C2B83160313D1108A150A121F
:10065000C2218A110A122D2B3A168316031711088C
:10066000203A0319412B8313031B83179230840014
:1006700011088407831203171008800083160317DC
:10068000910A83120317D90A08008A150A12152B3A
:10069000A22BA22B013A031D892B83120313CD0336
:1006A000031D552B8A150A12F829831203176E08A9
:1006B00083120313AD00831203176F088312031311
:1006C000AE00831203134B0883120313B30083128B
:1006D00003134C0883120313B4008A150A12002670
:1006E0008A110A12831203132D0883120313CB00FD
:1006F000831203132E0883120313CC0014308312C9
:1007000003136111E700611583120317D90AA22BA5
:10071000A22B033A031DA22B831203136119982BFA
:1007200083120313B8141530BE008A150A12F82973
:1007300083120313061A0800831203170A30D90024
:060740000800A22B0800D6
:0A074600831203175908013A031D3E
:10075000E02B831203133A11831203133C10831608
:100760000313D11183120313B9168A150A12032336
:100770008A110A120319C42B83120313B81401300F
:10078000BE008A150A12F82983120313FF30CA002B
:100790008A150A16A7208A110A1283120313B81C9D
:1007A000D42B8A150A12F829831603132B088312F7
:1007B00003136111E700611583120317D90AA92EEB
:1007C000033A031D822C831203136119EF2B83124A
:1007D0000313B8140330BE008A150A12F8298312D5
:1007E0000313B81CF62B8A150A12F8298316031373
:1007F0002A08031D032C83160313401D08008316CB
:1008000003134115072C83160313521F080083128C
:100810000313C11E0F2C831603135116122C8316BB
:100820000313511283120313411E1A2C8316031350
:10083000D1161D2C83160313D11283120313400803
:1008400083160313DB008312031341080F39831649
:100850000313DC008A150A16B7238A110A128312C1
:100860000313430E07398A150A1609238A110A123F
:10087000831603132108831203134302031C582C0D
:10088000031D4A2C8316031320088312031342020C
:10089000031C582C83160313200883160313DF0050
:1008A0008316031321080F3983160313E000652C08
:1008B00083120313420883160313DF00831203130A
:1008C00043080F3983160313E000831603135F08F0
:1008D00083120313DE0083160313600883120313CD
:1008E000DF008A150A16ED238A110A1283160313F4
:1008F0002708831203136111E700611583120317A0
:10090000D90AA92E013A031D9D2C831203136119E4
:1009100008008316031351148A150A12C2218A1182
:100920000A12831603132308831203136111E700CD
:10093000611583120317D90AA92E073A031D172D33
:10094000831203136119AC2C83120313B8141530EE
:10095000BE008A150A12F82983120313061E080026
:100960008A110A162D268A110A1283160313D0142F
:100970008A150A12C2218A110A128312031344082B
:1009800083120313AD00831203134508831203136C
:10099000AE008A150A1662218A110A128312031305
:1009A0003912831203133A17831603132208831292
:1009B00003136110E500611483160313D1148A1523
:1009C0000A12C2218A110A12831203170F30DE00A5
:1009D00083120313BA153A1283120317900191017F
:1009E00083120313B81EFC2C83120313B8141B309C
:1009F000BE008A150A12F82983120313BF1F092D9E
:100A0000BF13BC143F0883120313E110E600E11486
:100A1000102DBC103F08831203136111E70061150C
:100A200083120313871483120317D90AA92E013ADC
:100A3000031D382D83120317EB1C342DEB108A1580
:100A40000A12D4228A110A12831203171708960079
:100A5000831603132308831203136111E700611542
:100A600083120317D90A08008A150A12152BA92E1A
:100A7000033A031D572D831203136119472D831267
:100A80000313B8141530BE008A150A12F829831210
:100A90000313061A08008316031323088312031393
:100AA0006111E700611583120317D90AA92E013AD3
:100AB000031D032E831203136119662D8312031382
:100AC000B8141530BE008A150A12F82983120313D0
:100AD0003C1C6D2D83160313511483120313061E41
:100AE0000800831203133C1C08003C1083120313FC
:100AF000CB01CC01912D83120313B9168A150A126A
:100B000003238A110A1203198D2D83120313B814BB
:100B10000130BE008A150A12F82983120313FF3030
:100B2000CA0083120313C11E992D83160313511695
:100B30009C2D83160313511283120313411EA42DFF
:100B400083160313D116A72D83160313D112831214
:100B50000313400883160313DB00831203134108B9
:100B60000F3983160313DC008A150A16B7238A117E
:100B70000A12831603132108831203134302031C72
:100B8000D92D031DCB2D83160313200883120313C5
:100B90004202031CD92D8316031320088316031366
:100BA000DF008316031321080F3983160313E000B7
:100BB000E62D83120313420883160313DF0083120A
:100BC000031343080F3983160313E000831603133E
:100BD0005F0883120313DE00831603136008831279
:100BE0000313DF008A150A16ED238A110A128316F1
:100BF00003132308831203136111E70061158312A5
:100C00000317D90AA92E0F3A031D282E83120313A6
:100C10006119122E83120313B8141530BE008A1501
:100C20000A12F82983120313061E08008A110A16F5
:100C30002D268A110A128312031309150A308A1508
:100C40000A12D2248A110A1283120317D90AA92E72
:100C5000013A031D9A2E83160313D31A0800831634
:100C60000313D0148A150A12C2218A110A128312A0
:100C70000313440883120313AD00831203134508C2
:100C800083120313AE008A150A1662218A110A1212
:100C9000831203133912831203133A1783160313B3
:100CA0002208831203136110E500611483160313F5
:100CB000D1148A150A12C2218A110A12831203174B
:100CC0000F30DE0083120313BA153A128312031792
:100CD00090019101831203133A1583120313B81E76
:100CE000792E83120313B8141B30BE008A150A1222
:100CF000F82983120313520883120313DB008312B3
:100D00000313BF1F8C2EBF13BC143F0883120313A1
:100D1000E110E600E114932EBC103F088312031388
:100D20006111E700611583120313871483120317FF
:100D3000D90AA92E033A031DA92E83120317EB1C0F
:100D4000A62EEB108A150A12F82908008A150A1235
:040D5000152B080057
:0C0D5400831203138313031B831720304A
:100D600084002D3A0319B92E00308000840A04084B
:100D7000B12E831203132430A3002830A20083165F
:100D800003132F309900243098008312031380300E
:100D9000980090309800831603130C128C1698124A
:100DA000831203134A3092009101831603138C10AF
:100DB000831603137D3092008316031307118312E9
:100DC000031307110800080083120313A00123086E
:100DD000243A0319F02E2308273A0319232F322F20
:100DE0009A1A3D2F1A081F39133A031D3D2FA016DA
:100DF00005304038831203139200920E0310920CB8
:100E00001215831603138C14831203131A0883120A
:100E10000313A101C039003A031D102F2114322FF2
:100E2000003A403A031D162FA114322F403AC03A1F
:100E3000031D1C2F2115322FC03A803A031D222F8B
:100E4000A115322F3D2F1A08AC00240825062606CE
:100E50002C06031D3D2F2016831603138C128312BC
:100E6000031318128313230884001A088000201A21
:100E7000502FA30A8A110A123E2883120313A401D9
:100E8000A501A601A7012430A300831203138C102F
:100E900012119101831603138C108A110A123E2835
:100EA0002430A300831203138C10121191018316B6
:100EB00003138C10831203132408A800A119722FA6
:100EC0002118662F21197C2FA1186C2F8A150A165C
:100ED00051228A110A12862F8A150A16BF228A11F8
:100EE0000A12862F831203132508A9008A150A16F1
:100EF00045248A110A12862F831203132508A9009C
:100F00008A150A16E3248A110A12862F8312031304
:100F1000063A0319912F063AAA00073A031DFF303B
:100F2000A90083120313280829062A06AB00982F6C
:100F3000831203130715831203132830A2008316AC
:100F4000031398160C16A72F83120313A001831303
:100F500083120313220884002D3A031DC02F83122D
:100F60000313A1018316031398120C128C1683121B
:100F7000031318168312031307118A110A123E284D
:100F80008312031300089900A20A8A110A123E284C
:100F900083120313A0018312031312119101831210
:100FA00003138C10831203132430A300A0018A11B1
:100FB0000A123E28831603130C128C129812080092
:100FC000831203130130A900831203132608003A89
:100FD000031DF22F83120317180883120313AA00AC
:100FE0000634FD2F383E831203178313031B831728
:0C0FF0008400000883120313AA000634DA
:020FFC000734B8
:020FFE000734B6
:1010000083160313D400FF30013C03180328D40BCC
:101010000328080083160313051283120313051215
:1010200001300020831203130516083000208316B8
:101030000313403094008312031320309400831272
:1010400003130808F8390538880040308A150A1655
:1010500017200030172000301720003017200030F4
:1010600017200030172000301720003017200030E4
:1010700017200030172000301720003017200030D4
:1010800017200030172000301720003017200030C4
:10109000172000301720003017200030172083164B
:1010A00003130030D0001720831603130430D1003F
:1010B00017208A150A12831203130808F83900381A
:1010C0008800831203130808F83906388800403076
:1010D0008A150A16172000301720FF301720FF301E
:1010E0001720003017200030172000301720003064
:1010F0001720003017200030172000301720003054
:101100001720003017200030172000301720003043
:101110001720003017200030172000301720003033
:1011200017208A150A12831203130808F8390038A9
:101130008800831203130808F83906388800413004
:101140008A150A1617201330172000301720831233
:101150000313130883160313D200172083120313FB
:10116000130883160313D3008A150A12831203137C
:101170000808F8390038880083160313061683160A
:10118000031388158316031309118312031309111E
:101190008316031386118312031386118316031318
:1011A000861283160313511108008316031340306F
:1011B0009400831203132030940083120313080851
:1011C000F8390538880040308A150A161720003093
:1011D0001720003017200030172000301720003073
:1011E0001720003017200030172000301720003063
:1011F0001720003017200030172000301720003053
:101200001720003017200030172000301720003042
:10121000172000301720003017208A150A12831279
:1012200003130808F83900388800831203130808EC
:10123000F8390638880040308A150A161720003021
:101240001720FF301720FF30172000301720003004
:1012500017200030172000301720003017200030F2
:1012600017200030172000301720003017200030E2
:1012700017200030172000301720003017200030D2
:10128000172000301720003017208A150A12831209
:1012900003130808F8390038880008008316031380
:1012A0004030940083120313203094008312031300
:1012B0000808F8390638880041308A150A161720C0
:1012C00012301720003017208312031313088316DF
:1012D0000313D2001720831203131308831603137A
:1012E000D3008A150A12831203130808F83900384C
:1012F0008800831203130808F83905388800403045
:101300008A150A1617201230172083160313500867
:10131000172083160313510817208A150A12831207
:1013200003130808F83900388800080083160313EF
:10133000403094008312031320309400831203136F
:101340000808F8390638880041308A150A1617202F
:10135000123017200030172083120313130883164E
:101360000313D200172083120313130883160313E9
:10137000D3008A150A12831203130808F8390038BB
:10138000880008008316031340309400831203136F
:1013900020309400831203130808F83905388800B8
:1013A00040308A150A1617201230172083160313AF
:1013B0005008172083160313510817208A150A12A4
:0E13C000831203130808F8390038880008006B
:0213CE00831288
:1013D0000317D901DA01831603135110831603137F
:1013E000511083160313D1108316031351110800F3
:1013F00083120313881300008817831203138710C6
:10140000831603132108831603132902031C202AC1
:10141000031D122A831603132008831603132802C0
:10142000031C202A83160313200883160313DF00EE
:101430008316031321080F3983160313E0002D2AA6
:1014400083160313280883160313DF008316031380
:1014500029080F3983160313E000831603135F086E
:1014600083120313DE008316031360088312031331
:10147000DF008A150A16ED238A150A128312031754
:1014800010088312031794008312031711088312A4
:101490000317950083120313391283120313B91231
:1014A00083120317DA01D90183120313BA195C2AD4
:1014B00083160313D1105D2A3A16831603135110B5
:1014C00083160313D0108A150A12C2218A150A1234
:1014D000831203131010831203130E0883120313D5
:1014E000AD00831203130F0883120313AE0083129F
:1014F00003176E0883120313B300831203176F08D8
:1015000083120313B4008A150A12002683120313F0
:101510004B0883120313B300831203134C08831286
:101520000313B4000026831203132D088312031340
:10153000CB00831203132E0883120313CC008A15E9
:101540000A12831203133C1083120313BA17831277
:101550000317FF30E9008A150A1692218A150A122C
:1015600083160313511583120313091183160313F2
:101570002A08031DCA2A83160313C2011430C600A9
:10158000C11400308A110A1657228A150A128316CE
:101590000313411183120313BA1C08008A110A12A3
:1015A000AA268A150A1208008312031387108312D1
:1015B0000313B91283120317100883120317920042
:1015C0008312031711088312031793008312031366
:1015D000BA19EE2A83160313D110EF2A3A16831292
:1015E0000313101083160313A41CF92A8316031384
:1015F000511083120313BA1C08008A110A12AA267A
:101600008A150A120800831203138313031B83171E
:101610003F3084000008E000840A0008E006040867
:101620004A3A031D0C2B6008080083120313B81EEE
:10163000212B83120313B8141B30BE008A150A1223
:10164000F82983120313BC1C322B83120313E118F5
:10165000312B83120313B8141E30BE008A150A12F0
:10166000F8293E2B8312031361193E2B83120313B7
:10167000B8141E30BE008A150A12F8298316031307
:10168000D31F4D2B2D30831203136110E50061141D
:10169000831203133A1739120800831203136118D7
:1016A0000800831203133A1F582B3A13BA17080085
:1016B00083120313391A852B831203171F30170265
:1016C00003186D2B1708970A193E8313031B831702
:1016D0008400831203134F088000831203171F3006
:1016E000180203187E2B1808980A393E8313031B2F
:1016F0008317840083120313510880008312031799
:101700000530DB00831203133916831203135108CB
:1017100047020318932B83120313B8141730BE002B
:101720008A150A12F8298312031346085102031876
:10173000A12B83120313B8141830BE008A150A12A5
:10174000F829831203134F0849020318AF2B8312A1
:101750000313B8141930BE008A150A12F82983122F
:10176000031348084F020318BD2B83120313B81448
:0C1770001A30BE008A150A12F829080081
:04177C0083120313BE
:10178000E101E201E301E401E501E601E701E8012D
:10179000E901EA01EB01EC01831603138111011148
:1017A0008110011481128B16831203130930E20099
:1017B000080083160313D31BE22B83120317900F29
:1017C000E22B910A83120313611CE92BE50BE92B31
:1017D0006110831203136208E20A003A031DF72B1B
:1017E00083120317E9080319F62BE903562C023A72
:1017F000031D0F2C831203175A190E2C8312031783
:10180000DA190E2C83120313391E0E2C83120317C0
:10181000DB03031D0E2C831203133912562C013ADD
:10182000031D232C83120313E11D192CE80B192C23
:10183000E11183160313D319222C83120317DC083A
:10184000031DDC03562C073A031D2E2C83160313AD
:10185000411C2D2CC50B2D2C4110562C023A031D7A
:10186000332C5A2C562C013A031D522C831203138D
:10187000E11C3D2CE60B3D2CE11083120313BA1D35
:10188000512C83120317DE03031D512C8312031303
:10189000BA11831203133A1E512C3A128316031302
:1018A000D110562C0F3A031D562CE2010B118A1150
:1018B0000A123E28831203136308E30A003A031D49
:1018C000692C83120313611D682CE70B682C6111CE
:1018D000A52C023A031D742C83120313E11F732CF1
:1018E000EC0B732CE113A52C013A031D7F2C831202
:1018F0000313611E7E2CE90B7E2C6112A52C073A86
:10190000031D8A2C83160313C11C892CC60B892C3A
:10191000C110A52C013A031D8E2CA52C033A031DE2
:10192000992C83120313E11E982CEA0B982CE112D8
:10193000A52C013A031D9E2CA92CA52C0E3A031DA3
:10194000A52CE301831203133B140B118A110A1215
:101950003E28831203136408E40A003A031DB62CE0
:10196000831203130608203A8600CE2C013A031D89
:10197000BF2C8A150A16A4218A150A12CE2C043A05
:10198000031DCA2C83120313611FC92CEB0BC92C36
:101990006113CE2C0F3A031DCE2CE4010B118A11DA
:1019A0000A123E2883120313EE00ED01ED0BD62C34
:0619B000EE0BD62C08002E
:0A19B6008316031305083F3885006F
:1019C0008316031309309F00831203139F019F178F
:1019D0001F1483160313D801D901DA0108008316F6
:1019E00003135808003A0319F72CD8030800831290
:1019F00003131F190800831603135A180D2DDA1844
:101A0000322D5A19572DDA197C2D5A1AA12DDA1AAE
:101A1000C62DDA01DA16D90108005919262DD91870
:101A2000212D831603139F13831203139F121F127A
:101A30009F1183160313D914831603130130D800A2
:101A400008005915831203131F150800831203138E
:101A50001E0883120313D00083160313DA01DA146D
:101A6000D901080059194B2DD918462D8316031397
:101A70009F13831203139F121F129F1583160313C4
:101A8000D914831603130130D800080059158312A6
:101A900003131F150800831203131E088316031374
:101AA000C70083160313DA015A15D9010800591922
:101AB000702DD9186B2D831603139F1383120313F4
:101AC0009F121F169F1183160313D9148316031335
:101AD0000130D80008005915831203131F150800A0
:101AE000831203131E0883120313CF0083160313FC
:101AF000DA01DA15D90108005919952DD918902D58
:101B0000831603139F13831203139F121F169F152F
:101B100083160313D914831603130130D800080069
:101B20005915831203131F150800831203131E088F
:101B300083120313D20083160313DA015A16D90154
:101B400008005919BA2DD918B52D831603139F1300
:101B5000831203139F161F129F1183160313D914A8
:101B6000831603130130D80008005915831203139C
:101B70001F150800831203131E0883120313D300DA
:101B800083160313DA01DA16D90108005919DF2D7B
:101B9000D918DA2D831603139F13831203139F168C
:101BA0001F129F1583160313D914831603130130D4
:101BB000D80008005915831203131F15080083125B
:101BC00003131E0883120313D10083160313DA01D3
:081BD0005A14D90108000800B5
:081BD800831203133308AD0270
:101BE000031CAE033408AE02031CAF0308008312CB
:101BF00003133308AD02031CAE033408AE02080021
:101C000083120313AF013308AD070318AE0A34087B
:101C1000AE070318AF0A080083120313AE01AD0C20
:101C20000318AE07AE0CAD0C0318AE07AE0CAD0C2E
:101C30000318AE07AE0CAD0C0318AE07AE0CAD0C1E
:101C40000318AE07AE0CAD0C0318AE07AE0CAD0C0E
:101C50000318AE07AE0CAD0C0318AE07AE0CAD0CFE
:101C6000080083120313AF01B5001030B700350828
:101C700003102D1C3C2EAF07AF0CAE0CAD0C0310A7
:101C8000B70B392E080083120313B001B5001830CA
:101C9000B700350803102D1C4E2EB007B00CAF0C4A
:101CA000AE0CAD0C0310B70B4B2E080083120313C0
:101CB000B300AF010830B7002E0DAF0D3308AF02EF
:101CC0000318642EAF070310AE0DB70B5C2EB501E1
:101CD0000830B7002D0DAF0DB50D3308AF02B601BA
:101CE0000301031C360FB50203187E2E3308AF071D
:101CF000B60103010318360FB5070310AD0DB70B7E
:101D00006A2E080083120313B300B0011830B70025
:101D10002D0DAE0DAF0DB00DAD0D3308B002031893
:101D20002D142D1CB007B70B882E08008312031347
:101D3000B001B1011830B7002D0DAE0DAF0DB00DD3
:101D4000B10DAD0D3308B0023408031C340FB102DD
:101D500003182D142D18AF2EB1073308B007B70B99
:101D60009C2E0800831203132030B700B201B1018A
:101D70000310AD0DAE0DAF0DB00DB10DB20D0318CA
:101D8000C92E34083202031DC72E33083102031C4A
:101D9000D02E3308B102031CB2033408B2022D1452
:061DA000B70BB82E08008D
:0A1DA60083160313081283120313BF
:101DB000081283120313B811831203138812000050
:101DC000881683120313B81283120313D7018312E8
:101DD0000313B811080083120313B81283120313FC
:101DE000B819F62E83120313D700092F8312031399
:101DF000570603190800D706831203138812000040
:101E00008816283083120313E110E600E114E1186C
:101E1000072F83120313081683120313B8158312B6
:101E200003135708013A031D1A2F83160313D01307
:101E30005013322F033A031D222F83160313D0179A
:101E40005013322F013A031D2A2F83160313D01388
:101E50005017322F073A031D322F83160313D01762
:101E60005017322F8A150A124E218A150A1228306D
:101E700083120313E110E600E114E1183D2F8312F1
:101E80000313EF01F001831203130130EF0703186E
:101E9000F00A831603132108831203137002031C34
:101EA000692F031D5B2F831603132008831203136E
:101EB0006F02031C692F8316031320088316031374
:101EC000DF008316031321080F3983160313E00084
:101ED000762F831203136F0883160313DF00831218
:101EE000031370080F3983160313E00083160313DE
:101EF0005F0883120313DE00831603136008831246
:101F00000313DF008A150A16ED238A150A128312BD
:101F100003136F08831603132806031D432F831230
:101F200003137008831603132906031D432F83121E
:0A1F30000313E113EC00E1170800B1
:061F3A00831203130130C5
:101F4000A900831203132608003A031DAF2F83163E
:101F50000313520883120313AA000634E52F013A33
:101F6000031DBA2F83160313530883120313AA0009
:101F70000634E52F033A031DC52F831603135008BB
:101F800083120313AA000634E52F013A031DD02F54
:101F900083160313510883120313AA000634E52F96
:101FA000073A031DDB2F831203176E0883120313F6
:101FB000AA000634E52F013A031DE52F831203170B
:0C1FC0006F0883120313AA0006340234D9
:041FCC008312031762
:101FD0005A08031D003483120313A608031DF42FAF
:101FE00083120313BB15FD2F83120313BB1483123B
:0C1FF0000313260883120313BF000734FC
:06200000521630333033AC
:0A200600831203175908013A031D65
:102010003A28831203133A1183160313D111831242
:102020000313CB01CC0183120313B9168A150A12CC
:1020300003238A110A160319252883120313B814DF
:102040000130BE008A150A12F82983120313FF30EB
:10205000CA008A150A16A7208A110A1683160313C6
:102060002B08831203136111E70061158312031714
:10207000D90A302A033A031DDD288312031361199C
:10208000492883120313B8140330BE008A150A12BC
:10209000F82983120313B81C50288A150A12F8294C
:1020A000831603132A08031D5D2883160313401D9E
:1020B0000800831603134115612883160313521F6A
:1020C000080083120313C11E6928831603135116D7
:1020D0006C2883160313511283120313411E7428B4
:1020E00083160313D116772883160313D112831294
:1020F0000313400883160313DB0083120313410804
:102100000F3983160313DC008A150A16B7238A11C8
:102110000A1683120313430E07398A150A16092378
:102120008A110A168316031321088312031343022C
:10213000031CB228031DA42883160313200883124E
:1021400003134202031CB2288316031320088316CC
:102150000313DF008316031321080F3983160313BB
:10216000E000BF2883120313420883160313DF0025
:102170008312031343080F3983160313E0008316F9
:1021800003135F0883120313DE0083160313600832
:1021900083120313DF008A150A16ED238A110A162B
:1021A000831603132608831203136111E7006115D8
:1021B00083120317D90A302A302A013A031D052950
:1021C00083120313611908008A110A162D268A1139
:1021D0000A16831203133A15831203130915831683
:1021E000031351148A150A12C2218A110A16831682
:1021F00003132308831203136111E700611583128F
:1022000003170530D900302A302A073A031D132955
:102210001430831203136111E70061158312031751
:10222000D90A302A302A013A031DA2298312031346
:102230006119222983120313B8141530BE008A15C0
:102240000A12F82983120313061E080083120313CF
:10225000CE0803193929CE038316031323088312EA
:1022600003136111E7006115831203170830D900C9
:10227000080083160313D0148A150A12C2218A118A
:102280000A1683120313440883120313AD0083124A
:102290000313450883120313AE008A150A16622140
:1022A0008A110A16831203133912831203133A1781
:1022B000831603132208831203136110E5006114CF
:1022C00083160313D1148A150A12C2218A110A1621
:1022D000831203170F30DE0083120313BA153A126C
:1022E000831203179001910183120313B81E8029F2
:1022F00083120313B8141B30BE008A150A12F82982
:1023000083120313520883120313DB008312031397
:10231000BF1F9329BF13BC143F0883120313E1109E
:10232000E600E1149A29BC103F08831203136111DF
:10233000E700611583120313871483120317D90A68
:10234000302A302A033A031DD82983120317EB1CC5
:10235000D329EB1083120313871083120313BA19C6
:10236000BA2983160313D1108A150A12C2218A11C1
:102370000A16BB293A16831603171108203A0319C7
:10238000CF298313031B831792308400110884071D
:10239000831203171008800083160317910A831213
:1023A0000317D90A08008A150A12152B302A302A79
:1023B000013A031D172A83120313CD03031DE329DA
:1023C0008A150A12F829831203176E088312031361
:1023D000AD00831203176F0883120313AE0083123C
:1023E00003134B0883120313B300831203134C0827
:1023F00083120313B4008A150A1200268A110A16E2
:10240000831203132D0883120313CB0083120313CB
:102410002E0883120313CC001430831203136111AE
:10242000E700611583120317D90A302A302A0F3AC0
:10243000031D302A831203136119262A8312031302
:10244000B8141530BE008A150A12F8298312031336
:10245000061A0800831203170430D9000800302A36
:02246000080072
:0E2462008316031386108316031306118312CC
:1024700003130608F9390038860083160313C201D6
:10248000C001C1014017C801C901CC01CD01CA0179
:10249000CB0183160313FF30AF00B000B100B200D0
:1024A000B300B400B501B601B701B8010800831646
:1024B0000313C4004130C300632A83160313C4000E
:1024C0004030C300632A8316031340309400831204
:1024D000031320309400831203130808F8390038DE
:1024E0008800831603134308CE01831203138C1153
:1024F0009300831603131418822A83160313CE0B3A
:10250000792A0800831603134408CE0183120313AB
:102510008C119300831603131418932A8316031344
:10252000CE0B8A2A0800831203130808F8390038F2
:102530008800080083160313411C08009A2A83169A
:1025400003134119080083160313401A1A2C83162B
:102550000313C01A2C2C83160313401B3F2C831625
:102560000313C01CA02B831603134208003A031D5B
:10257000E42A83160313C1180800C20A4708CA00D8
:10258000831603134A088316031333020318CE2A53
:1025900083120313B8146530BE003F2C8316031357
:1025A0004A08831603133702031CDC2A8312031321
:1025B000B8146630BE003F2C831603130A30C600E1
:1025C000C1140130572A9F2B013A031D122B831689
:1025D0000313C1180800C2014708CB008316031378
:1025E0004B088316031334020318FC2A83120313C7
:1025F000B8146930BE003F2C831603134B088316B2
:1026000003133802031C0A2B83120313B8146A3015
:10261000BE003F2C831603130A30C600C1140030DD
:10262000572A9F2B033A031D252B831603134118AA
:102630000800C20A7830C50041148312031306084B
:10264000F9390238860008009F2B013A031D532BED
:102650008316031341180800C20A4708C8008316EE
:102660000313480883160313310203183D2B83120A
:102670000313B8146330BE003F2C831603134808BD
:10268000831603133502031C4B2B83120313B81458
:102690006430BE003F2C831603130530C50041147F
:1026A0000130572A9F2B073A031D872B83160313EC
:1026B000411808004708C900831603134908831608
:1026C0000313320203186A2B83120313B814673002
:1026D000BE003F2C831603134908831603133602EA
:1026E000031C782B83120313B8146830BE003F2CF0
:1026F000831203130608F939003886008316031382
:10270000C20A0A30C50041140030572A9F2B013AF3
:10271000031D9F2B83160313411808008312031314
:102720000608F93904388600831203133817831614
:102730000313C2011430C600C1144015080008007C
:1027400083160313C01DD22B831603134208003ACD
:10275000031DBA2B8316031341180800C20A3C302C
:10276000C600C114831203130608F939063886001F
:102770000800D12B013A031DD12B83160313C11876
:102780000800831203130608F939003886008316FF
:102790000313C201C01140140A30C600C114003036
:1027A000572A080083160313401C192C83160313A1
:1027B0004208003A031DF92B83160313C1180800C1
:1027C000C20A4708CC00831603134C088316031370
:1027D0002F020318F12B83120313B8146130BE00CB
:1027E0003F2C831603130A30C600C1140130572A48
:1027F000182C013A031D182C83160313C118080066
:10280000C2014708CD00831603134D088316031336
:1028100030020318112C83120313B8146230BE0067
:102820003F2C831603130A30C600C1140030572A08
:1028300008000800831203130608F93900388600DF
:1028400083160313C0010230C200C0140A30C50051
:102850004114C1100030572A831203133813831216
:1028600003130608F9390038860083160313C001E4
:10287000C201C0150A30C5004114C11008008312FE
:1028800003133813831203130608F939003886003E
:1028900083160313C001C20140141430C600C114D2
:0628A00041100030572A30
:0A28A6008312031300308B00831629
:1028B00003138C00831603138D008A150A167623E2
:1028C0008A110A12AA268A150A12DB248A150A120C
:1028D000BE238A110A16831203138313031B831763
:1028E000383084000408613A0319792C8001840A85
:1028F000722C3814831603130810831603138810E0
:10290000831603130811831203130808F8390038DB
:1029100088008A150A1600208A110A168A150A12DA
:102920000A208A110A168A150A16DD238A110A1648
:102930008A150A1645218A110A16831603130130D7
:10294000AA008A110A1631228A110A168A150A1655
:10295000A1238A110A168A150A16AC208A110A16B2
:102960008A150A169C248A110A168A150A12D32679
:102970008A110A168A150A12E7218A110A16831289
:1029800003138B170B1700308A150A1609238A11B7
:102990000A1683120313FF30CA008A150A16922101
:1029A0008A110A16013083120313D900831203130C
:1029B0003B1683120313B91FDE2C00288312031366
:1029C000BA1EE92CBA128A150A12D5208A110A16E3
:1029D000F12C8A150A124E218A110A16831203134A
:1029E000BA1683120313BA1F102DBA1383120317DA
:1029F0001530DD008A150A12EF248A110A16831297
:102A000003130A30E000E00B032D83120317DD0BE4
:102A1000FA2C83120313500883120313DA001E2DBD
:102A20008A150A12EF248A110A16831603132A182C
:102A30001E2D8A110A169F228A110A168316031365
:102A40002508831203135202031C2F2D8312031334
:102A5000081283120313B81183120313B8168312DA
:102A60000317DA080319572D83160313D31D3D2DC1
:102A7000831203170A30DC00572D83120317DC087A
:102A8000031D572D831203133A1D4C2D831203137C
:102A9000B8141F30BE00512D83120313B814043034
:102AA000BE008A150A12F8218A110A162C2E8312EA
:102AB00003175A1C612D8A110A1640268A110A161C
:102AC0002C2E83120317DA1C6B2D8A110A12A323F2
:102AD0008A110A162C2E831203175A1D752D8A117E
:102AE0000A1603208A110A162C2E83120317DA1DE8
:102AF0007F2D8A110A1251208A110A162C2E8A154E
:102B00000A16CE228A110A16831203133B1E912D38
:102B10003B128312031359088A150A12EB268A11F5
:102B20000A1683120313BB1DA12DBB1183120313BD
:102B3000081283120313B8118312031388120000C2
:102B4000881683120313BB1CF32DBB103B15831295
:102B500003133F08831203136112E9006116831601
:102B600003132108831203134302031CCF2D031DFB
:102B7000C12D831603132008831203134202031C82
:102B8000CF2D83160313200883160313DF0083164B
:102B9000031321080F3983160313E000DC2D831281
:102BA0000313420883160313DF0083120313430841
:102BB0000F3983160313E000831603135F08831293
:102BC0000313DE0083160313600883120313DF0070
:102BD0008A150A16ED238A110A16831203130816A2
:102BE00083120313B815831203133B1D092E83129E
:102BF0000313611A092E831203130812831203139D
:102C0000B81183120313881200008816831203136D
:102C10003B1183120313BB1E132EBB128A150A1617
:102C2000B6208A110A16831203133B1F1D2E3B1375
:102C30008A150A1606218A110A1683120313BB1F6E
:102C4000272EBB138A150A1634218A110A168A15F3
:102C50000A162B208A110A16D92C08008312031396
:102C60008312031307192D2E831603130C128C12D3
:102C7000981283120313071183120313BA14080066
:102C8000831203175908013A031D7B2E8316031381
:102C9000A41B2414831203133A1183160313D111B6
:102CA00083120313CB01CC0183120313B9168A15C7
:102CB0000A1203238A110A160319662E83120313BC
:102CC000B8140130BE008A150A12F82983120313C2
:102CD000FF30CA008A150A16A7208A110A16831621
:102CE00003132B08831203136111E700611583128C
:102CF0000317D90AE52F033A031D212F831203136B
:102D000061198A2E83120313B8140330BE008A158A
:102D10000A12F82983120313B81C912E8A150A127D
:102D2000F82983160313A41BA62E831603132A085F
:102D3000031DA22E83160313401D080083160313E0
:102D40004115A62E83160313521F08008312031386
:102D5000C11EAE2E831603135116B12E8316031314
:102D6000511283120313411EB92E83160313D11679
:102D7000BC2E83160313D11283120313400883164B
:102D80000313DB008312031341080F398316031367
:102D9000DC008A150A16B7238A110A168312031358
:102DA000430E07398A150A1609238A110A16831653
:102DB00003132108831203134302031CF72E031D80
:102DC000E92E831603132008831203134202031C07
:102DD000F72E83160313200883160313DF008316D0
:102DE000031321080F3983160313E000042F831205
:102DF0000313420883160313DF00831203134308EF
:102E00000F3983160313E000831603135F08831240
:102E10000313DE0083160313600883120313DF001D
:102E20008A150A16ED238A110A168316031327083A
:102E3000831203136111E700611583120317D90A86
:102E4000E52F013A031D3F2F831203136119080078
:102E5000831203133A158316031351148A150A12A9
:102E6000C2218A110A16831603132308831203133F
:102E70006111E700611583120317D90AE52F073A9C
:102E8000031D682F8312031361194E2F831203133E
:102E9000B8141530BE008A150A12F82983160313D8
:102EA0002418562F83120313061E08008A110A16CF
:102EB0002D268A110A168312031309150A308A1562
:102EC0000A12D2248A110A1683120317D90AE52F8F
:102ED000013A031DD72F83160313D31A0800831654
:102EE0000313D0148A150A12C2218A110A168312FA
:102EF0000313440883120313AD0083120313450820
:102F000083120313AE008A150A1662218A110A166B
:102F1000831203133912831203133A178316031310
:102F2000D1148A150A12C2218A110A1683120317B4
:102F30000F30DE0083120313BA153A1283160313FF
:102F40002208831203136110E50061148312031732
:102F50009001910183120313B81EB62F831203133D
:102F6000B8141B30BE008A150A12F8298312031305
:102F7000520883120313DB0083120313BF1FC92FF0
:102F8000BF13BC143F0883120313E110E600E114E1
:102F9000D02FBC103F08831203136111E7006115A5
:102FA00083120313871483120317D90AE52F033AF8
:102FB000031DE52F83120317EB1CE22FEB108A157C
:0C2FC0000A12F8298A150A12152B0800C5
:042FCC008312031752
:102FD0005A08031D0034831203133A180334831272
:102FE000031326088A150A1609238A110A120734C0
:0E2FF00083120313BE0183120313B8100734BB
:022FFE000800C9
:1030000083120317E601E701E801FF30E9008316A8
:1030100003138712831603130716831603138711EE
:10302000831603139401831203139401080083127F
:103030000317E701831203138C1193008316031304
:103040001418080083120317E70B1E2883120317B6
:103050000130E600080083120317E908031D080089
:103060003230E900831203176808003A031D39283B
:103070008B28013A031D432883120313500883123F
:103080000317E3008B28033A031D4D288312031313
:10309000500883120317E4008B28013A031D5728B8
:1030A00083120313500883120317E2008B28073A98
:1030B000031D612883120313500883120317E000D5
:1030C0008B28013A031D6B288312031350088312C7
:1030D0000317E1008B28033A031D7528831203139D
:1030E000500883120313DC008B28013A031D7F284C
:1030F00083120313500883120317E5008B280F3A3D
:10310000031D8B2883120313500883120313DD0061
:1031100083120317E80183160313403094008312CF
:10312000031320309400831203130808F83904387D
:10313000880041301720831203176808E80A172017
:10314000831203130808F839003888000800831236
:0831500003170530E8008B288D
:0831580083160313D014831643
:10316000031350108316031350150800831603131E
:10317000D0148A150A12C2218A150A16831603135F
:103180005019D3288316031350148A150A12C2212A
:103190008A150A1683160313D0108A150A12C22143
:1031A0008A150A1601348316031350108A150A1261
:1031B000C2218A150A160A3083120313E112EA00AB
:1031C000E1168A150A124E218A150A12EF248A1571
:1031D0000A1683120313E11AE12883160313501110
:1031E0008A150A12C2218A150A168316031350146F
:1031F0008A150A12C2218A150A1683160313D010E3
:103200008A150A12C2218A150A160134831603137D
:10321000501C132983160313D0108A150A12C221D9
:103220008A150A16013483160313D0148A150A125C
:10323000C2218A150A168316031350158A150A121D
:10324000C2218A150A168316031350148A150A120E
:10325000C2218A150A1683160313D0108A150A1282
:10326000C2218A150A16013483160313D0148A1555
:103270000A12C2218A150A168316031350108A15E2
:0A3280000A12C2218A150A1608007E
:06328A0083160313D111AD
:1032900083160313511383120317EB01EE01EC01A4
:1032A000831603130714831203130630900083124E
:1032B00003138E018F01831203130C108316031363
:1032C0000C10080083120317EB106B10831203130A
:1032D0002D0883120317EE00831203132E088312A6
:1032E0000317EF0083120313FF30AD06AE06031081
:1032F0000130AD070318AE0A831203132D088312A1
:1033000003138E00831203132E08831203138F00FE
:10331000831203130C10831603130C14831203136C
:103320001014080083160313D115831203176B14AE
:103330006B15831203131010831203138E018F0178
:103340008312031310140800831203176B1C080068
:10335000831203131010831203176B19BC298312F5
:1033600003130E0883120317EC00831203130F08D4
:1033700083120317ED00BD296B11831203138E0115
:103380008F0183120313101408008312031310100B
:1033900083120317EB14831203130C108A110A1201
:0233A0003E28C5
:0E33A20083120313B8180334831203175A085A
:1033B000031D0034831603132A0803191A2A8312E3
:1033C00003132608003A031DEB2983120313BB17CE
:1033D0000734192A192A013A031DFE2983160313FB
:1033E000401683160313521BF82983160313CF0AC2
:1033F000831203133B170734192A192A033A031DB2
:10340000112A83160313401683160313521B0B2A2B
:1034100083120313D40A83120313BB160734192A29
:10342000192A013A031D192A83120313BB17073403
:10343000192A502A831203132608003A031D262A4C
:103440008316031340170734502A502A013A031DEC
:10345000362A83160313C018073483160313CF0AC2
:103460008316031340160734502A502A033A031DCB
:10347000462A83160313C018073483160313CF0A92
:103480008316031340160734502A502A013A031DAD
:10349000502A83160313C0190734C0160734502A64
:0234A0000234F4
:0E34A2008312031325081F39013A031D5B2A0C
:1034B0008A150A16022D013A023A031D622A8A155C
:1034C0000A16102D023A033A031D692A8A110A16B8
:1034D000F82F033A043A031D702A8A150A16F32CB2
:1034E000043A053A031D772A8A110A16E62F053A8F
:1034F000063A031D7E2A8A150A16152C063A073A43
:10350000031D852A8A150A16D129073A083A031D90
:103510008C2A8A110A12FE2F083A093A031D932AAF
:103520008A110A120328093A0A3A031D9A2A8A11B3
:103530000A12FF2F0A3A0B3A031DA12A8A150A1212
:10354000E62F0B3A0C3A031DA82A8A150A16C52C39
:103550000C3A0D3A031DAF2A8A110A12E02F0D3AD8
:103560000E3A031DB62A8A150A129D2F0E3A0F3AFB
:10357000031DBD2A8A150A16172D0F3A043483132A
:1035800083120313A608031D83172508840000086F
:0A359000AA00840A0008A90006340E
:06359A0008008312031378
:1035A000B91DDC2AB910B911391183160313D113CF
:1035B00083120313D8010800831203133A1808007A
:1035C00083120313391DF02A3911B914831603131A
:1035D000D1170A3083120313E111E800E115080046
:1035E00083120313B91C080083120313E1190800A6
:1035F00083160313D21F082B831203133A14831666
:103600000313D11383120313D80183120313B910C8
:10361000080083120313D80083160313D01250122C
:10362000D011003A031D192B83120313B91508009A
:10363000392B013A031D1D2B392B033A031D242B73
:1036400083160313D016392B013A031D2B2B831637
:1036500003135016392B073A031D332B831603131C
:10366000D0165016392B013A031D392B831603133C
:0A367000D01583120313391508006A
:06367A00831203178D000E
:10368000A0308D02831603178C130C1483120317BA
:103690000C0808008313831603178C184D2B04089D
:1036A000831203178D00A0308D02831203130008CC
:1036B000831203178C00831603178C130C158B1BB6
:1036C0006A2B55308D00AA308D008C140C118C188B
:1036D000672B08008B1355308D00AA308D008C1499
:1036E0000C118C18712B8B17080008008313A03065
:1036F000840004083D238000840A0408C03A031DA6
:10370000792B08008313A03084004A23840A04081C
:10371000BD3A031D852B080083131C308A00040862
:1037200072248A150A1680004A2308008313A030E9
:1037300084008C23840A0408BD3A03190800992BDD
:0237400008007F
:0E374200831603138710831203138710831658
:103750000313081383160313881383120313081724
:103760008312031388178813000088170800831634
:10377000031340309400831203132030940083120B
:1037800003130808F83902388800831603135C080D
:103790008A150A161720831603135B0817208A154B
:1037A0000A16831203130813000008178312031369
:0A37B0000808F83900388800080006
:0637BA00831603138910C1
:1037C00083160313881283120313891483120313BD
:1037D00088168812000088160800831603134030EC
:1037E00094008312031320309400831203130808FB
:1037F000F839033888008316031360088A150A16FF
:103800001720831603135F088A150A1617208A15D6
:103810000A168312031389100000891483120313FC
:0A3820000808F83900388800080095
:06382A0083160313D31DF9
:103830000334831203175A08031D0034831603133D
:10384000511183120313260883120317DA0083121F
:1038500003176B108312031794019501831203174A
:103860009201930183120313DE0183120317960161
:103870009701980183160317910183120313BC105B
:0A388000831203170130D90007344A
:06388A0083120313250860
:103890008400A900831203132608031D552C8313EB
:1038A000000883120313AA000634013A031D5E2C9C
:1038B0008317000883120313AA000634033A031D7A
:1038C0006B2C04088A150A163D238A150A168312E2
:1038D0000313AA00063404088A150A1672248A15EE
:0438E0000A1606348A
:0C38E400A03CFF3C013E203C03190034D6
:1038F000031C0034203C820728340A341B34FF3474
:1039000000345D3405340F341434053401343C3450
:10391000963414343234FF34FF34FF34FF34FF3430
:10392000FF340034003400340034463400340134B1
:08393000023400340034483475
:08393800080083160313DD00F3
:103940004130DE00831603134030940083120313CA
:1039500020309400831203130808F83904388800D3
:10396000831603135E088A150A161720831603139D
:103970005D088A150A1617208A150A168312031382
:0A3980000808F83900388800080034
:06398A008312031301305B
:10399000A900831203132608003A031DD72C8312B3
:1039A0000317170883120313AA000634E22C183EEB
:1039B000831203178313031B8317840000088312E9
:0639C0000313AA00063407
:0A39C60083120313B91A03348312AD
:1039D00003132508A9008400831203132608AA00F4
:0639E00083138000063491
:0A39E600831203175A08031D003472
:1039F00083120313260883120313D90083120313BF
:043A00003B16073436
:0C3A0400831203132608013A031D0C2D49
:103A100083120313B9170F2D8312031338100734C1
:0E3A2000033083120313AA000330A9000634FA
:023A2E00831201
:063A30000313BA1607346F
:02400E00713F00
:1042000028000A001B00FF0000005D0005000F00F1
:104210001400050001003C00960014003200FF006D
:10422000FF00FF00FF00FF00FF0000000000000093
:1042300000004600000001000200000000004800ED
:00000001FF
