<0xe0fb,3.3>
:020000040000FA
:060000008A110A12482CCF
:080008008B13FF0003088312B3
:100010000313F1000A08F2000408F4008316031326
:10002000010883120313F300831203130C08F50075
:100030000D08F600831603130C0883120313F5054D
:10004000831603130D0883120313F6058A110A128F
:10005000F51AEF2E8A110A12751AB52F8A110A1293
:100060007618D92F8A110A168B1E37280B196F2B79
:100070008B133928831203137408840072088A00D2
:10008000730883160313810083120313710883001E
:06009000FF0E7F0E0900C7
:0400960000340034FE
:06009A00840A8000023E12
:1000A00083120317D80B4D280800840A80008003B0
:1000B0008003000883120317D80B55280800831209
:1000C00003171930D800831203178313031B8317F8
:1000D0000F30840066305520831203171930D80082
:1000E000831203178313031B8317283084006430A3
:1000F0004D20831203171930D8008316031383137E
:10010000031B8317AE30840064304D208312031725
:100110001930D800831603138313031B8317C730CA
:10012000840066305520831203171930D8008316D7
:1001300003178313031B83178F30840032304D2045
:10014000831203171930D800831603178313031B78
:100150008317A83084003230552008005F208316B2
:100160000313091083120313091083160313891054
:1001700083120313891083160313091183120313C7
:100180000911831603130710831203130714831234
:100190000317C20183120317FF30CF00831203132A
:1001A0003911B91183120317FF30C700C800C90005
:1001B000831203130130C500831203131930C800E2
:1001C0004A30C6000130C700831203133913492394
:1001D00020305623203065232030742308008312FA
:1001E00003174A08183C0318FD2883120313B91A91
:1001F0000800831203171830CA0083120313B91AB8
:100200003629831203174A08831203178313031B2B
:100210008317293E8400000883120317C700F821C2
:10022000831203174A08831603138313031B8317D0
:10023000C83E8400000883120317C80009228312F5
:1002400003174A08831603178313031B8317A93E5A
:100250008400000883120317C9001A2283120317AF
:10026000CA0BD42983120313B916D4298312031796
:100270004A08831203178313031B8317103E84005D
:10028000000883120317C700F821831203174A08D6
:10029000831603138313031B8317AF3E84000008E8
:1002A00083120317C8000922831203174A08831612
:1002B00003178313031B8317903E840000088312E7
:1002C0000317C9001A2283120317CA0AD4298312FA
:1002D00003135A08831203174F06031908008312E9
:1002E00003135A0883120317CF007F39CA00183C42
:1002F00003187C291830CA0083120313DA1BAA29B9
:10030000831203174A08831203178313031B8317EF
:10031000293E8400000883120317C700F8214A0809
:10032000831603138313031B8317C83E840000083E
:1003300083120317C80009224A0883160317831380
:10034000031B8317A93E8400000883120317C9000A
:100350001A22D429831203174A088312031783131E
:10036000031B8317103E8400000883120317C70085
:10037000F8214A08831603138313031B8317AF3E28
:100380008400000883120317C80009224A08831654
:1003900003178313031B8317903E84000008831206
:1003A0000317C9001A22D4298312031747085902D8
:1003B0000318DF2959084702D4004216E129D40066
:1003C000421248085A020318EA295A084802D5007E
:1003D000C216EC29D500C21249085B020318F529A0
:1003E0005B084902D6004217F729D6004213C92AF2
:1003F00083160313290703182A08831603132A02F6
:100400000318042A2A08052A2A0283120317C700A0
:100410000800831603132B0703182C0883160313F5
:100420002C020318152A2C08162A2C0283120317F3
:10043000C8000800831603132D0703182E0883161F
:1004400003132E020318262A2E08272A2E028312AF
:100450000317C900080083120317D401D501D60180
:10046000831603132908831203174502031C3A2A33
:10047000D4004212831603132B088312031744027D
:10048000031C442AD500C212831603132D088312BD
:1004900003174602031C4E2AD6004213C92A08003D
:1004A000831603132608F82183160313270809224D
:1004B0008316031328081A228312031747085906C4
:1004C000031D6B2A48085A06031D6B2A49085B0660
:1004D000031D6B2A08008A110A129426B226831281
:1004E00003131E0883120317C5008526B226831244
:1004F00003131E0883120317C400A326B226831217
:1005000003131E0883120317C6008A110A12492317
:100510002B228A110A129426B226831203131E0874
:1005200083120317D9008526B226831203131E08EF
:1005300083120317DA00A326B226831203131E08C0
:1005400083120317DB008A110A1283120317D401E6
:10055000D501D60183120317470859020318B42A9C
:1005600059084702D40042168312031748085A025A
:100570000318BE2A5A084802D500C2168312031770
:1005800049085B020318C82A5B084902D6004217D3
:10059000C92A831203174214C21442158312031787
:1005A000421ED62A5408D907CF30D92A5408D90276
:1005B000DF30562383120317C21EE22A5508DA07DA
:1005C000DF30E52A5508DA02CF306523831203179E
:1005D000421FEE2A5608DB07DF30F12A5608DB02FD
:1005E000CF30742383120317421CFE2AD408031D44
:1005F000FD2A42104E305623FE2AD40383120317DD
:10060000C21C0A2BD508031D092BC2104E306523CE
:100610000A2BD50383120317421D1E2BD608031D78
:10062000152B42114E3074231E2BD6038312031751
:10063000421F1C2BDF301D2BCF3074238312031776
:1006400042080F3903190800FF30D7003423DE3089
:10065000D700342383120317421D302B4F307423ED
:100660009630D7003423F22A8312031307150000B3
:100670000000000000000000000007110000000062
:10068000000000000000000083120317D70B342B7A
:1006900008008316031307118312031392018312B8
:1006A00003131708F039970007110800831203138A
:1006B00088008312031309148A110A1627248A1149
:1006C0000A1283120313091008008312031388000F
:1006D0008312031389148A110A1627248A110A1215
:1006E00083120313891008008312031388008312F6
:1006F000031309158A110A1627248A110A12831274
:100700000313091108008A110A128526B2268312E2
:1007100003131E0883120317C4009426B226831203
:1007200003131E0883120317C500A326B2268312E3
:1007300003131E0883120317C6008A110A128312BC
:1007400003174B08003A031DB12B83120317D40182
:10075000D501D601831203176430CD00CB0A0800FF
:10076000272C013A031DD72B83120317CD08031D35
:10077000080049238312031714304502031CC32BBE
:10078000D4004212C72B4508143CD40042168312F1
:10079000031714304402031CD02BD500C212D42BF3
:1007A0004408143CD500C216CB0AC922272C033AB0
:1007B000031DE92B831203171E30D400D5006430CB
:1007C000D6004212C2124213C92283120317CB0A67
:1007D000272C013A031DF42BE82083120317C8309D
:1007E000CD00CB0A0800272C073A031D272C8312C3
:1007F0000317CD08031D080083120317440883164E
:100800000313AB0083120317450883160313A900D3
:1008100083120317460883160313AD0083160313D0
:100820000230A9072908E13EAA008316031302300B
:10083000AB072B08E13EAC00831603130230AD0773
:100840002D08553EAE00831203133B11080008002B
:10085000831203130530CA00831203134213831259
:100860000313B91383120313450883120313C9003A
:1008700083120313480883120317CA008312031359
:10088000B9128312031339138312031339120800A8
:100890008312031300308B00831603138C0083161E
:1008A00003138D00831203138313031B8317383044
:1008B000840004084B3A0319602C8001840A592CE7
:1008C000831203138313031B831757308400040818
:1008D000593A03196E2C8001840A672C8A110A1672
:1008E0006D248A110A12B8268A110A168B218A11E0
:1008F0000A1603208A110A1620258A110A12AE2030
:100900008A110A165C238A110A1283160313003017
:100910008800831203138801831603138611831240
:100920000313861183160313861283120313861290
:100930008316031306158316031305168316031374
:10094000061483120313B80183120313D7018B1704
:100950000B17831203133A178312031338178312EA
:100960000313BA1483120313BA1CB82C6400B22CFC
:1009700083120313C201552676268A110A160A30FD
:1009800020248A110A12B226831203131E0883122E
:100990000313C00083120313C01FD52C8316031347
:1009A000A401831203134212DC2C831603130130BB
:1009B000A40083120313421683120313051EE42CB2
:1009C000831203133814E72C831203133810831295
:1009D00003133813831203133A13831203133912C8
:1009E00083120313391383120313B91383120313EE
:1009F000391E102D3912831203130608083A860097
:100A0000831203134208083AC200831203134208F8
:100A1000403AC20055268A110A12EF208A110A12A2
:100A2000831203133B1C1E2D3B108A110A167E20D5
:100A30008A110A12831203133813352D83120313FC
:100A4000391C352D39108A110A161D218A110A12F6
:100A5000831203133818352D83120313B91D352D56
:100A60008A110A1267218A110A1283120313BB1C0E
:100A7000A12DBB10831203133C08033A031D682DFC
:100A800083120313381C5A2D8A110A1228248A1142
:100A90000A1283120313391283120313C215552647
:100AA0008A110A12EF208A110A1283120313C2114B
:100AB00055265D2D83120313391283120313C216B8
:100AC000C2115526831203133911B9159E2D9E2D7F
:100AD000073A031D8F2D8A110A1228248A110A123F
:100AE00083120313C216C21155268A110A12EF206F
:100AF0008A110A1283120313460883120313D200C9
:100B000083120313470883120313D30083120313C2
:100B10003917831203133911B9159E2D9E2D831297
:100B20000313B911391583120313C212C2114213F0
:100B300055268A110A1250228A110A1283120313AF
:100B40003813831203133B1DC62D831203133A1768
:100B50008A110A1283238A110A12831203133B1982
:100B6000C52D831203133A138B130B138A110A1624
:100B700079248A110A128B170B178A110A12B826C8
:100B80008A110A12831203133813F62C83120313EB
:100B9000BA1FCB2D552683120313BB1D272EBB1165
:100BA000831203135708003A031DFA2D9426B22628
:100BB000831203131E0883120317C5008526B2266D
:100BC000831203131E0883120317C400A326B22640
:100BD000831203131E0883120317C6008312031324
:100BE000D9018A110A163C258A110A1283120313AD
:100BF000D70A272E013A031D0A2E6726B226831232
:100C000003131E0883120313BD0083120313D70AB4
:100C10002826272E033A031D192E83120313D90AFF
:100C20008A110A163C258A110A1283120313D70A65
:100C3000272E013A031D272E6726B226831203139F
:100C40001E0883120313BE0083120313D701F62C70
:100C5000831603132108831203133D02031C332E52
:100C600083120313C217831603132008831203137E
:100C70003D0203183E2E83120313C213831603137F
:100C80002208831203133D02031C492E831203130F
:100C9000B817831603132308831203133D020318A6
:100CA000542E83120313B81308008312031342084F
:100CB0008312031388008312031386168A110A16FF
:100CC00027248A110A128312031386120800831242
:100CD00003139F121F169F15831603139F1383126E
:100CE00003131030C300C30B732E080083120313C9
:100CF0009F161F129F11831603139F138312031352
:100D00001030C300C30B822E0800831203139F12FE
:100D10001F129F11831603139F13831203131030A6
:100D2000C300C30B912E0800831203139F121F16DA
:100D30009F11831603139F13831203131030C300F4
:100D4000C30BA02E0800831203139F121F129F15BE
:100D5000831603139F13831203131030C300C30BB6
:100D6000AF2E0800831203131F151F19B52E08009C
:100D7000831203138313031B83172B308400383A29
:100D80000319C72E00308000840A0408BF2E831286
:100D900003132F30AE003330AD00831603132F3012
:100DA000990024309800831203138030980090300B
:100DB0009800831603130C128C16981283120313D7
:100DC000003090051D080A389D008E018F018316A2
:100DD000031306128312031306120800080083127D
:100DE0000313AB012E082F3A0319FB2E2E08323ABB
:100DF0000319322F412F9A1A4C2F1A081F39163A0D
:100E0000031D4C2FAB1683120313FF309B000530DC
:100E1000F038831203139C009C0E03109C0C1014DA
:100E2000831603130D14831203131A08831203137A
:100E3000AC01C039003A031D1F2F2C14412F003A7A
:100E4000403A031D252FAC14412F403AC03A031DF0
:100E50002B2F2C15412FC03A803A031D312FAC1592
:100E6000412F4C2F1A08B7002F08300631063706DD
:100E7000031D4C2F2B16831603138C12831203139E
:100E8000181283132E0884001A0880002B1A602F72
:100E9000AE0A8A110A123A2883120313AF01B00175
:100EA000B101B2012F30AE00831203130D101010E8
:100EB0008E018F01831603130D108A110A123A282E
:100EC0002F30AE00831203130D1010108E018F010E
:100ED000831603130D10831203132F08B300AC19EC
:100EE000832F2C18772F2C198D2FAC187D2F8A115A
:100EF0000A1698248A110A12972F8A110A16D524E5
:100F00008A110A12972F831203133008B4008A1132
:100F10000A16E3248A110A12972F8312031330084A
:100F2000B4008A110A1610258A110A12972F83120B
:100F30000313063A0319A22F063AB500073A031D18
:100F4000FF30B40083120313330834063506B600AD
:100F5000A92F831203130616831203133330AD0037
:100F60008316031398160C16B82F83120313AB01C4
:100F70008313831203132D088400383A031DD12FE5
:100F800083120313AC018316031398120C128C16F0
:100F90008312031318168312031306128A110A12FE
:100FA0003A288312031300089900AD0A8A110A1225
:100FB0003A2883120313AB01831603130D10831217
:100FC00003130D108312031310108E018F0183126F
:100FD00003132F30AE00AB018A110A123A28831690
:0A0FE00003130C128C129812080083
:060FEA0083120313381B03
:0E0FF000003438173B1583120317CB0107346A
:06200000521630333033AC
:0A20060083160313871083120313DF
:102010008714831603138712831203138712831600
:1020200003138711831203138711831603131413E9
:10203000831203131416141494160330E700E70BED
:102040001F2883120313DB01DC01DE01DF01E00145
:10205000E101DA010800831203130430E700E70B03
:102060002F2808008312031387102B2083120313D9
:10207000630883120313930083160313141C3E2872
:10208000831203136208831203139300831603134E
:10209000141C48282B208312031387148312031364
:1020A0002130E700E70B52288312031387102B20FF
:1020B000831203136308831203139300831603131D
:1020C000141C602883120313130883120313E50002
:1020D00083120313620883120313930083160313FE
:1020E000141C702883120313130883120313E400D3
:1020F0002B208312031387142B200800831603134D
:102100001413831203131416141494168312031356
:102110003A1783120313BE30E3000230E20032208C
:102120000A308A110A1620248A110A1601308312F5
:102130000313E200B630E3003220083083120313A9
:10214000E200B830E3003220C8308A110A16202499
:102150008A110A160C3083120313E3003220831213
:10216000031365083F39E5008312031364088312E3
:102170000313A60083120313650883120313A70039
:10218000831203135B0883120313A000831203134B
:102190005C0883120313A100403083120313A007CD
:1021A0000318A10A3830A1078A110A1680228A1161
:1021B0000A1683120313983083120313E300831269
:1021C0000313200883120313E20032209930831294
:1021D0000313E30083120313210883120313E200A5
:1021E0003220BE30E300083083120313E2003220B5
:1021F00014308A110A1620248A110A168312031336
:102200003A130800840A8009000884038009800AC0
:102210000319013E840A800008000314831203138B
:10222000801F1C298009000884038009800A031983
:10223000013E840A80000310080083160313141360
:10224000831203131416141494160F3083120313FD
:10225000E300322083120313E51E31296508C038DC
:10226000332965083F39E5000B1383120313640813
:1022700083120313DE008312031365088312031312
:10228000DF000B17831203135E0883120313A000F1
:10229000831203135F0883120313A1008312031335
:1022A000600883120313A6008312031361088312CC
:1022B0000313A7008A110A1680228A110A168312B4
:1022C00003138313031B8317213084000D21831212
:1022D0000313031C6D295D146E295D1028308A11CB
:1022E0000A16DF228A110A16831203132208143CED
:1022F00003187B29A00A0B138312031320088312EF
:102300000313DA00831203135D1C8829DA13892969
:06231000DA170B170800AC
:0A2316008316031305081F38850025
:102320008316031302309F00831203139F019F172C
:102330001F1483120313D401D501D60108008312A0
:1023400003135408003A0319A729D4030800831281
:1023500003131F190800831203135618BB29D6183C
:10236000E0295619052AD6192A2A561A4F2AD601C3
:102370005616D50108005519D429D518CF2983162A
:1023800003139F13831203139F121F129F118312B3
:102390000313D514831203130230D400080055151B
:1023A000831203131F150800831203131E088312E0
:1023B0000317C40083120313D601D614D5010800F5
:1023C0005519F929D518F429831603139F1383127D
:1023D00003139F121F129F1583120313D514831228
:1023E00003130230D40008005515831203131F1580
:1023F0000800831203131E0883120317C6008312FA
:102400000313D6015615D501080055191E2AD518F3
:10241000192A831603139F13831203139F121F1687
:102420009F1183120313D514831203130230D400B7
:1024300008005515831203131F1508008312031398
:102440001E0883120317C50083120313D601D61585
:10245000D50108005519432AD5183E2A83160313BF
:102460009F13831203139F121F169F1583120313CA
:10247000D514831203130230D400080055158312BB
:1024800003131F150800831203131E08831203137E
:10249000BF0083120313D6015616D5010800551943
:1024A000682AD518632A831603139F138312031314
:1024B0009F161F129F1183120313D5148312031347
:1024C0000230D40008005515831203131F150800AD
:1024D000831203131E0883120313C0008312031315
:0A24E000D6015614D50108000800CB
:0624EA0083120313260813
:1024F000A002031CA1032708A102031CA2030800D9
:10250000831203132608A002031CA1032708A102BB
:10251000080083120313A2012608A0070318A10ACA
:102520002708A1070318A20A080083120313A101B8
:10253000A00C0318A107A10CA00C0318A107A10C63
:10254000A00C0318A107A10CA00C0318A107A10C53
:10255000A00C0318A107A10CA00C0318A107A10C43
:10256000A00C0318A107A10CA00C0318A107A10C33
:10257000A00C080083120313A201A8001030AA00C7
:1025800028080310201CC52AA207A20CA10CA00C2D
:102590000310AA0BC22A080083120313A301A80088
:1025A0001830AA0028080310201CD72AA307A30C60
:1025B000A20CA10CA00C0310AA0BD42A08008312B1
:1025C0000313A600A2010830AA00210DA20D2608BF
:1025D000A2020318ED2AA2070310A10DAA0BE52AF7
:1025E000A8010830AA00200DA20DA80D2608A202FD
:1025F000A9010301031C290FA8020318072B2608B1
:10260000A207A90103010318290FA8070310A00DB1
:10261000AA0BF32A080083120313A600A3011830A3
:10262000AA00200DA10DA20DA30DA00D2608A30246
:1026300003182014201CA307AA0B112B08008312D7
:102640000313A301A4011830AA00200DA10DA20DAF
:10265000A30DA40DA00D2608A3022708031C270F15
:10266000A402031820142018382BA4072608A30757
:10267000AA0B252B0800831203132030AA00A50102
:10268000A4010310A00DA10DA20DA30DA40DA50D75
:102690000318522B27082502031D502B260824025D
:1026A000031C592B2608A402031CA5032708A50216
:0826B0002014AA0B412B0800C5
:0826B8008316031381110111C7
:1026C0008110011481128B16831203130A30CB0080
:1026D0000A30CC000A30CD001430D000080083123C
:1026E0000313381CD22B83120313B91DD22B831270
:1026F0000313391F962B83120313D208031D942B47
:10270000D308031D932B831203133916831203136B
:10271000460883120313D20083120313470883125F
:102720000313D300D22BD303D203D22B8312031370
:10273000B91BC02B83120313061DBB2B831203137B
:10274000CA0BD22B0530CA0083120313B9178312A8
:102750000313C90BD22B83120313460883120313EE
:10276000D20083120313470883120313D30083128A
:1027700003133917BF2B831203130530CA00D22B62
:10278000831203130619CE2B83120313CA0BD22B09
:102790000530CA0083120313B913D22B831203131B
:1027A0000530CA0083120313CB0B1C2C0A30CB005C
:1027B000831203134F1CDF2BCE0BDF2B4F10831222
:1027C0000317CD0383120313CC0B1C2C0A30CC004F
:1027D00083120313BA1CF32B83120313D00BF32BB6
:1027E00083120313BA1083120313391483120313D1
:1027F000B919032C831203133A1F032C83120313FA
:102800000608083A860083120313BA1783120313CB
:10281000BB1583120313CD0B1C2C0A30CD00831281
:102820000313B9191C2C831203133A1B1C2C83129B
:1028300003130608083A86000B118A110A123A2877
:1028400083120313CE004F144F18242C0800831258
:1028500003132830D100D10B2B2C08008312031353
:08286000D100D10B312C08005E
:08286800831203178D00A0305C
:102870008D02831603178C130C14831203170C0894
:1028800008008313831603178C18442C0408831242
:1028900003178D00A0308D028312031300088312EA
:1028A00003178C00831603178C130C158B1B612CDC
:1028B00055308D00AA308D008C140C118C185E2CB4
:1028C00008008B1355308D00AA308D008C140C112C
:1028D0008C18682C8B17080008008313A030840024
:1028E000040834248000840A0408AF3A031D702CC5
:1028F00008008313A03084004124840A0408AF3AFE
:10290000031D7C2C0800831315308A000408512510
:102910008A110A168000412408008313A030840025
:102920008324840A0408AF3A03190800902C080095
:102930008312031330081F39013A031DA22C8A1198
:102940000A166A2D013A023A031DA92C8A110A16A9
:10295000A92D023A033A031DB02C8A110A16A22DA2
:10296000033A043A031DB72C8A110A16922D043A31
:10297000053A031DBE2C8A110A169B2D053A063A0C
:10298000031DC52C8A110A16852D063A073A031D28
:10299000CC2C8A110A12F52F073A083A031DD32CC2
:1029A0008A110A16782D083A04348313831203130C
:1029B000B108031D8317300884000008B500840A9D
:0629C0000008B40006341B
:0A29C6008312031330088400B400EC
:1029D000831203133108031DF32C831300088312A1
:1029E0000313B5000634013A031DFC2C83170008BD
:1029F00083120313B5000634033A031D092D04089E
:102A00008A110A1634248A110A1683120313B50098
:102A1000063404088A110A1651258A110A1606344A
:102A2000831203133008B40084008313831203134A
:102A300041188317831203133108B5008000063450
:102A4000831603138610831203138614831603134D
:102A500087128312031387128316031387118312BD
:102A6000031387110800831203138C11930083163C
:102A7000031314180800372D8316031340309400F5
:102A80008312031320309400831203138610413005
:102A90003325831203135908332583120313861435
:022AA00008002C
:0E2AA200A03CFF3C013E0F3C03190034031C16
:102AB00000340F3C8207A034A334AC34A734003474
:102AC00000340034003432340034FF340034FF3436
:042AD0000034FF349B
:0C2AD400831203133108013A031D742D16
:102AE00083120313BA15772D831203133812073498
:102AF00083120313B108031D812D831203134110A8
:0A2B0000842D8312031341140734DF
:062B0A0083120313381BC7
:102B100000343817BB1483120313310883120313D4
:042B2000BC000734BA
:0C2B240083120313381B003483120313C8
:062B30003B1438170734C6
:0A2B3600831203135A0883120313DD
:042B4000B5000634A2
:0C2B440083120313C40183120313B812A0
:022B5000073448
:0E2B5200033083120313B5000330B4000634C1
:02400E00721F1F
:10420000A000A300AC00A700000000000000000018
:0E42100032000000FF000000FF000000FF0071
:00000001FF
