<0xd0c,3.5>
:020000040000FA
:060000008A110A16592CBA
:020006000800F0
:080008008B13FF0003088312B3
:100010000313F1000A08F2000408F4008316031326
:10002000010883120313F300831203130C08F50075
:100030000D08F600831603130C0883120313F5054D
:10004000831603130D0883120313F6058A150A128B
:100050007518E52F8A110A12F518D72F8A110A127E
:10006000F51AF32E8A110A12751AB32F8A110A167D
:100070008B1E3B280B19742E8B133D288312031300
:100080007408840072088A007308831603138100C1
:0E0090008312031371088300FF0E7F0E090018
:02009E0000342C
:0200A00000342A
:0E00A200831203175908013A031D87288312A1
:1000B00003133A11831203133C1083160313D11157
:1000C00083120313B9168A150A1209238A110A1218
:1000D0000319722883120313B8140130BE008A1565
:1000E0000A12F82983120313FF30CA008A150A1670
:1000F0001F228A110A12831603132B08831203137B
:100100006111E700611583120317D90AAB2B033A7B
:10011000031D2929831203136119962883120313DF
:10012000B8140330BE008A150A12F829831203138B
:10013000B81C9D288A150A12F829831603132A0869
:10014000031DAA2883160313401D080083160313FA
:100150004115AE2883160313521F080083120313A0
:10016000C11EB628831603135116B928831603132C
:10017000511283120313411EC12883160313D11693
:10018000C42883160313D112831203134008831665
:100190000313DB008312031341080F398316031383
:1001A000DC008A150A16D3238A110A12831203135C
:1001B000430E07398A150A16DC228A110A128316A1
:1001C00003132108831203134302031CFF28031D9A
:1001D000F128831603132008831203134202031C21
:1001E000FF2883160313200883160313DF008316EA
:1001F000031321080F3983160313E0000C2983121F
:100200000313420883160313DF008312031343080A
:100210000F3983160313E000831603135F0883125C
:100220000313DE0083160313600883120313DF0039
:100230008A150A1609248A110A128316031327083D
:10024000831203136111E700611583120317D90AA2
:10025000AB2B013A031D44298312031361190800D3
:100260008316031351148A150A12C2218A110A1225
:10027000831603132308831203136111E70061152A
:1002800083120317D90AAB2B073A031DC129831226
:1002900003136119532983120313B8141530BE00D8
:1002A0008A150A12F82983120313061E08008A1100
:1002B0000A1646268A110A1283160313D0148A15C9
:1002C0000A12C2218A110A128312031344088312EC
:1002D0000313AD0083120313450883120313AE000A
:1002E0008A150A1282278A110A12831203133912FD
:1002F000831203133A17831603132208831203137E
:100300006110E500611483160313D1148A150A12D3
:10031000C2218A110A12831203170F30DE008312E2
:100320000313BA153A128312031790019101831235
:100330000313B81EA32983120313B8141B30BE0085
:100340008A150A12F82983120313BF1FB029BF139D
:10035000BC143F0883120313E110E600E114B7292F
:10036000BC103F08831203136111E700611583126B
:100370000313381583120313871483120317D90A42
:10038000AB2B013A031DE02983120317EB1CDC2978
:10039000EB108A150A12D7228A110A128312031748
:1003A000170896008312031710088316031790008E
:1003B00083120317D90A08008A150A121B2BAB2BCC
:1003C000033A031DEF298316031323088312031333
:1003D0006111E700611583120317D90AAB2B013AAB
:1003E000031D7F2A831203133C1C08003C10831258
:1003F0000313CB01CC018316031351148A150A127F
:10040000C2218A110A1283120313C11E0B2A8316FA
:10041000031351160E2A831603135112831203136A
:10042000411E162A83160313D116192A83160313A5
:10043000D11283120313400883160313DB008312C7
:10044000031341080F3983160313DC008A150A16BB
:10045000D3238A110A12831603132108831203136C
:100460004302031C4B2A031D3D2A83160313200855
:10047000831203134202031C4B2A83160313200822
:1004800083160313DF008316031321080F39831625
:100490000313E000582A8312031342088316031340
:1004A000DF008312031343080F3983160313E000A0
:1004B000831603135F0883120313DE0083160313EE
:1004C000600883120313DF008A150A1609248A11B3
:1004D0000A128A110A1646268A110A128312031377
:1004E0000915831603132308831203136111E70010
:1004F0006115831203170B30D900AB2BAB2B0D3AD0
:10050000031D8D2A1430831203136111E700611556
:1005100083120317D90AAB2BAB2B013A031D1A2BFD
:100520008312031361199C2A83120313B814153024
:10053000BE008A150A12F82983120313061E08004A
:1005400083120313CE080319B32ACE0383160313B1
:100550002308831203136111E70061158312031747
:100560000E30D900080083120313440883120313CA
:10057000AD0083120313450883120313AE008A15DE
:100580000A1282278A110A12831203133912831264
:1005900003133A17831603132208831203136110FF
:1005A000E500611483160313D1148A150A12C221BF
:1005B0008A110A12831203170F30DE00831203130D
:1005C000BA153A1283120317900191018312031393
:1005D0003A1583120313B81EF52A83120313B814B5
:1005E0001B30BE008A150A12F82983120313520821
:1005F00083120313DB0083120313BF1F082BBF13E7
:10060000BC143F0883120313E110E600E1140F2B22
:10061000BC103F08831203136111E70061158312B8
:100620000313381583120313871483120317D90A8F
:10063000AB2BAB2B073A031D532B83120317EB1C79
:100640004E2BEB1083120313871083120313381100
:1006500083120313BA19352B83160313D1108A158D
:100660000A12C2218A110A12362B3A168316031770
:100670001108203A03194A2B8313031B8317923066
:100680008400110884078312031710088000831662
:100690000317910A83120317D90A08008A150A1250
:1006A0001B2BAB2BAB2B013A031D922B8312031395
:1006B000CD03031D5E2B8A150A12F8298312031736
:1006C0006E0883120313AD00831203176F088312A1
:1006D0000313AE00831203134B0883120313B300FA
:1006E000831203134C0883120313B4008A150A12F1
:1006F00092268A110A12831203132D088312031300
:10070000CB00831203132E0883120313CC00143082
:10071000831203136111E700611583120317D90ACD
:10072000AB2BAB2B033A031DAB2B831203136119C5
:10073000A12B83120313B8141530BE008A150A12B8
:10074000F82983120313061A0800831203170A30CC
:08075000D9000800AB2B0800E2
:08075800831203175908013A4E
:10076000031DE92B831203133A11831203133C1068
:1007700083160313D11183120313B9168A150A12B3
:1007800009238A110A120319CD2B83120313B814FB
:100790000130BE008A150A12F82983120313FF30B4
:1007A000CA008A150A161F228A110A12831203131D
:1007B000B81CDD2B8A150A12F829831603132B089F
:1007C000831203136111E700611583120317D90A1D
:1007D000B82E033A031D8B2C831203136119F82BD7
:1007E00083120313B8140330BE008A150A12F829C5
:1007F00083120313B81CFF2B8A150A12F8298316DB
:1008000003132A08031D0C2C83160313401D080034
:10081000831603134115102C83160313521F08006F
:1008200083120313C11E182C8316031351161B2C9D
:1008300083160313511283120313411E232C8316B4
:100840000313D116262C83160313D112831203131C
:10085000400883160313DB008312031341080F398A
:1008600083160313DC008A150A16D3238A110A1291
:1008700083120313430E07398A150A16DC228A11E4
:100880000A12831603132108831203134302031C65
:10089000612C031D532C83160313200883120313AA
:1008A0004202031C612C83160313200883160313D2
:1008B000DF008316031321080F3983160313E000AA
:1008C0006E2C83120313420883160313DF00831276
:1008D000031343080F3983160313E0008316031331
:1008E0005F0883120313DE0083160313600883126C
:1008F0000313DF008A150A1609248A110A128316C7
:1009000003132708831203136111E7006115831293
:100910000317D90AB82E013A031DA62C831203131C
:10092000611908008316031351148A150A12C22193
:100930008A110A1283160313230883120313611109
:10094000E700611583120317D90AB82E073A031D71
:10095000232D831203136119B52C83120313B814CA
:100960001530BE008A150A12F82983120313061ED9
:1009700008008A110A1646268A110A1283160313E2
:10098000D0148A150A12C2218A110A128312031383
:10099000440883120313AD00831203134508831226
:1009A0000313AE008A150A1282278A110A128312D3
:1009B00003133912831203133A1783160313220801
:1009C000831203136110E500611483160313D1141D
:1009D0008A150A12C2218A110A12831203170F30D4
:1009E000DE0083120313BA153A1283120317900123
:1009F000910183120313B81E052D83120313B8143B
:100A00001B30BE008A150A12F82983120313BF1F78
:100A1000122DBF13BC143F0883120313E110E6002C
:100A2000E114192DBC103F08831203136111E70074
:100A3000611583120313381583120313871483126D
:100A40000317D90AB82E013A031D442D8312031748
:100A5000EB1C402DEB108A150A12D7228A110A12BC
:100A600083120317170896008316031323088312B3
:100A700003136111E700611583120317D90A0800F7
:100A80008A150A121B2BB82E033A031D632D8312FD
:100A900003136119532D83120313B8141530BE00CC
:100AA0008A150A12F82983120313061A08008316FE
:100AB00003132308831203136111E70061158312E6
:100AC0000317D90AB82E013A031D0F2E8312031300
:100AD0006119722D83120313B8141530BE008A15E4
:100AE0000A12F829831203133C1C792D8316031371
:100AF000511483120313061E0800831203133C1CB7
:100B000008003C1083120313CB01CC019D2D8312EE
:100B10000313B9168A150A1209238A110A12031936
:100B2000992D83120313B8140130BE008A150A12DE
:100B3000F82983120313FF30CA0083120313C11E66
:100B4000A52D831603135116A82D831603135112D6
:100B500083120313411EB02D83160313D116B32D38
:100B600083160313D1128312031340088316031351
:100B7000DB008312031341080F3983160313DC00D3
:100B80008A150A16D3238A110A1283160313210821
:100B9000831203134302031CE52D031DD72D831677
:100BA00003132008831203134202031CE52D83164E
:100BB0000313200883160313DF0083160313210891
:100BC0000F3983160313E000F22D8312031342083A
:100BD00083160313DF008312031343080F398316B0
:100BE0000313E000831603135F0883120313DE0070
:100BF00083160313600883120313DF008A150A1695
:100C000009248A110A12831603132308831203137B
:100C10006111E700611583120317D90AB82E0F3A44
:100C2000031D342E8312031361191E2E8312031326
:100C3000B8141530BE008A150A12F829831203135E
:100C4000061E08008A110A1646268A110A12831205
:100C5000031309150A308A110A166D278A110A1220
:100C600083120317D90AB82E013A031DA92E831641
:100C70000313D31A080083160313D0148A150A121B
:100C8000C2218A110A128312031344088312031328
:100C9000AD0083120313450883120313AE008A15B7
:100CA0000A1282278A110A1283120313391283123D
:100CB00003133A17831603132208831203136110D8
:100CC000E500611483160313D1148A150A12C22198
:100CD0008A110A12831203170F30DE0083120313E6
:100CE000BA153A128312031790019101831203136C
:100CF0003A1583120313B81E852E83120313B814FA
:100D00001B30BE008A150A12F829831203135208F9
:100D100083120313DB0083120313BF1F982EBF132C
:100D2000BC143F0883120313E110E600E1149F2E68
:100D3000BC103F08831203136111E7006115831291
:100D40000313381583120313871483120317D90A68
:100D5000B82E033A031DB82E83120317EB1CB52ED1
:100D6000EB108A150A12F82908008A150A121B2BA3
:020D7000080079
:0E0D7200831203138313031B831720308400A6
:100D80002D3A0319C82E00308000840A0408C02EB2
:100D9000831203132430A3002830A2008316031308
:100DA0002F3099002430980083120313803098006C
:100DB00090309800831603130C128C16981283122D
:100DC00003134A3092009101831603138C1083168B
:100DD00003137D309200831603130711831203134C
:100DE00007110800080083120313A0012308243A06
:100DF0000319FF2E2308273A0319322F412F9A1A7D
:100E00004C2F1A081F39133A031D4C2FA01605301A
:100E10004038831203139200920E0310920C1215A5
:100E2000831603138C14831203131A0883120313FB
:100E3000A101C039003A031D1F2F2114412F003A90
:100E4000403A031D252FA114412F403AC03A031DFB
:100E50002B2F2115412FC03A803A031D312FA115A8
:100E6000412F4C2F1A08AC002408250626062C0614
:100E7000031D4C2F2016831603138C1283120313A9
:100E800018128313230884001A088000201A5F2F89
:100E9000A30A8A110A123E2883120313A401A50192
:100EA000A601A7012430A300831203138C10121192
:100EB0009101831603138C108A110A123E282430E4
:100EC000A300831203138C101211910183160313D4
:100ED0008C10831203132408A800A119812F211854
:100EE000752F21198B2FA1187B2F8A150A16242202
:100EF0008A110A12952F8A150A1692228A110A124D
:100F0000952F831203132508A9008A150A16612458
:100F10008A110A12952F831203132508A9008A113A
:100F20000A12EF278A110A12952F83120313063A29
:100F30000319A02F063AAA00073A031DFF30A900A3
:100F400083120313280829062A06AB00A72F831251
:100F500003130715831203132830A200831603130B
:100F600098160C16B62F83120313A0018313831255
:100F70000313220884002D3A031DCF2F831203137D
:100F8000A1018316031398120C128C1683120313FB
:100F900018168312031307118A110A123E288312AE
:100FA000031300089900A20A8A110A123E2883122C
:100FB0000313A0018312031312119101831203136F
:100FC0008C10831203132430A300A0018A110A128B
:0E0FD0003E28831603130C128C129812080090
:020FDE0083127C
:100FE0000313B91A0334831203132508A9008400DC
:0E0FF000831203132608AA0083138000063420
:020FFE000734B6
:1010000083160313D400FF30013C03180328D40BCC
:101010000328080083160313051283120313051215
:1010200001300020831203130516083000208316B8
:101030000313403094008312031320309400831272
:1010400003130808F8390538880040308A150A1655
:101050008F2100308F2100308F2100308F21003010
:101060008F2100308F2100308F2100308F21003000
:101070008F2100308F2100308F2100308F210030F0
:101080008F2100308F2100308F2100308F210030E0
:101090008F2100308F2100308F2100308F21831667
:1010A00003130030D0008F21831603130430D100C6
:1010B0008F218A150A12831203130808F8390038A1
:1010C0008800831203130808F83906388800403076
:1010D0008A150A168F2100308F21FF308F21FF30B3
:1010E0008F2100308F2100308F2100308F21003080
:1010F0008F2100308F2100308F2100308F21003070
:101100008F2100308F2100308F2100308F2100305F
:101110008F2100308F2100308F2100308F2100304F
:101120008F218A150A12831203130808F839003830
:101130008800831203130808F83906388800413004
:101140008A150A168F2113308F2100308F218312C8
:101150000313130883160313D2008F218312031382
:10116000130883160313D3008A150A12831203137C
:101170000808F8390038880083160313061683160A
:10118000031388158316031309118312031309111E
:101190008316031386118312031386118316031318
:1011A000861283160313511108008316031340306F
:1011B0009400831203132030940083120313080851
:1011C000F8390538880040308A150A168F2100301A
:1011D0008F2100308F2100308F2100308F2100308F
:1011E0008F2100308F2100308F2100308F2100307F
:1011F0008F2100308F2100308F2100308F2100306F
:101200008F2100308F2100308F2100308F2100305E
:101210008F2100308F2100308F218A150A1283120E
:1012200003130808F83900388800831203130808EC
:10123000F8390638880040308A150A168F210030A8
:101240008F21FF308F21FF308F2100308F21003020
:101250008F2100308F2100308F2100308F2100300E
:101260008F2100308F2100308F2100308F210030FE
:101270008F2100308F2100308F2100308F210030EE
:101280008F2100308F2100308F218A150A1283129E
:1012900003130808F8390038880008008316031380
:1012A0004030940083120313203094008312031300
:1012B0000808F8390638880041308A150A168F2147
:1012C00012308F2100308F218312031313088316ED
:1012D0000313D2008F218312031313088316031301
:1012E000D3008A150A12831203130808F83900384C
:1012F0008800831203130808F83905388800403045
:101300008A150A168F2112308F2183160313500875
:101310008F218316031351088F218A150A12831215
:1013200003130808F83900388800080083160313EF
:10133000403094008312031320309400831203136F
:101340000808F8390638880041308A150A168F21B6
:1013500012308F2100308F2183120313130883165C
:101360000313D2008F218312031313088316031370
:10137000D3008A150A12831203130808F8390038BB
:10138000880008008316031340309400831203136F
:1013900020309400831203130808F83905388800B8
:1013A00040308A150A168F2112308F2183160313BD
:1013B00050088F218316031351088F218A150A12B2
:0E13C000831203130808F8390038880008006B
:0213CE00831288
:1013D0000317D901DA01831603135110831603137F
:1013E000511083160313D1108316031351110800F3
:1013F00083120313881300008817831203138710C6
:10140000831603132108831603132902031C202AC1
:10141000031D122A831603132008831603132802C0
:10142000031C202A83160313200883160313DF00EE
:101430008316031321080F3983160313E0002D2AA6
:1014400083160313280883160313DF008316031380
:1014500029080F3983160313E000831603135F086E
:1014600083120313DE008316031360088312031331
:10147000DF008A150A1609248A150A128312031737
:1014800010088312031794008312031711088312A4
:101490000317950083120313391283120313B91231
:1014A00083120317DA01D90183120313BA195C2AD4
:1014B00083160313D1105D2A3A16831603135110B5
:1014C00083160313D0108A150A12C2218A150A1234
:1014D000831203131010831203130E0883120313D5
:1014E000AD00831203130F0883120313AE0083129F
:1014F00003176E0883120313B300831203176F08D8
:1015000083120313B4008A150A129226831203135E
:101510004B0883120313B300831203134C08831286
:101520000313B4009226831203132D0883120313AE
:10153000CB00831203132E0883120313CC008A15E9
:101540000A12831203133C108312031338118312FF
:101550000313BA1783120317FF30E9008A150A1222
:10156000B2278A150A128316031351158312031327
:101570000911831603132A08031DCD2A83160313AA
:10158000C2011430C600C11400308A110A165D224F
:101590008A150A1283160313411183120313BA1C0E
:1015A00008008A110A12B9268A150A120800831245
:1015B0000313871083120313381183120313B91214
:1015C0008312031710088312031792008312031764
:1015D000110883120317930083120313BA19F42A14
:1015E00083160313D110F52A3A1683120313101031
:1015F00083160313A41CFF2A8316031351108312AE
:101600000313BA1C08008A110A12B9268A150A1295
:101610000800831203138313031B83173F308400D6
:101620000008E000840A0008E00604084A3A031DA6
:10163000122B6008080083120313B81E272B831295
:101640000313B8141B30BE008A150A12F82983123E
:101650000313BC1C382B83120313E118372B83129E
:101660000313B8141E30BE008A150A12F829442B41
:10167000831203136119442B83120313B8141E3011
:10168000BE008A150A12F82983160313D31F532BA1
:101690002D30831203136110E500611483120313CC
:1016A0003A173912080083120313611808008312D5
:1016B00003133A1F5E2B3A13BA1708008312031361
:1016C000391A8B2B831203171F3017020318732B41
:1016D0001708970A193E8313031B8317840083128C
:1016E00003134F088000831203171F3018020318DA
:1016F000842B1808980A393E8313031B8317840030
:101700008312031351088000831203170530DB0096
:101710008312031339168312031351084702031867
:10172000992B83120313B8141730BE008A150A12BE
:10173000F82983120313460851020318A72B8312BA
:101740000313B8141830BE008A150A12F829831240
:1017500003134F0849020318B52B83120313B8145F
:101760001930BE008A150A12F8298312031348089B
:101770004F020318C32B83120313B8141A30BE0090
:081780008A150A12F82908007D
:08178800831203175908013A0E
:10179000031DFF2B83160313A41B241483120313AE
:1017A0003A1183160313D11183120313CB01CC0119
:1017B00083120313B9168A150A1209238A150A120D
:1017C0000319EA2B83120313B8140130BE008A15E3
:1017D0000A12F82983120313FF30CA008A150A1669
:1017E0001F228A150A12831603132B088312031370
:1017F0006111E700611583120317D90A6C2D033AB2
:10180000031DA52C8312031361190E2C83120313DD
:10181000B8140330BE008A150A12F8298312031384
:10182000B81C152C8A150A12F82983160313A41B59
:101830002A2C831603132A08031D262C8316031350
:10184000401D08008316031341152A2C8316031329
:10185000521F080083120313C11E322C8316031378
:101860005116352C83160313511283120313411E94
:101870003D2C83160313D116402C83160313D1126B
:1018800083120313400883160313DB008312031330
:1018900041080F3983160313DC008A150A16D32377
:1018A0008A150A1283120313430E07398A150A1682
:1018B000DC228A150A1283160313210883120313EC
:1018C0004302031C7B2C031D6D2C8316031320087D
:1018D000831203134202031C7B2C8316031320087C
:1018E00083160313DF008316031321080F398316B1
:1018F0000313E000882C831203134208831603139A
:10190000DF008312031343080F3983160313E0002B
:10191000831603135F0883120313DE008316031379
:10192000600883120313DF008A150A1609248A153A
:101930000A12831603132708831203136111E700A9
:10194000611583120317D90A6C2D013A031DC32CAC
:101950008312031361190800831203133A158316C7
:10196000031351148A150A12C2218A150A1283160A
:1019700003132308831203136111E7006115831217
:101980000317D90A6C2D073A031DEC2C831203139D
:101990006119D22C83120313B8141530BE008A15B6
:1019A0000A12F829831603132418DA2C831203135E
:1019B000061E08008A110A1646268A150A12831284
:1019C000031309150A308A110A166D278A150A129F
:1019D00083120317D90A6C2D013A031D5E2D83165D
:1019E0000313D31A080083160313D0148A150A129E
:1019F000C2218A150A1283120313440883120313A7
:101A0000AD0083120313450883120313AE008A1539
:101A10000A1282278A150A128312031339128312BB
:101A200003133A1783160313D1148A150A12C2211D
:101A30008A150A12831203170F30DE008312031374
:101A4000BA153A1283160313220883120313611086
:101A5000E5006114831203179001910183120313AF
:101A6000B81E3A2D83120313B8141B30BE008A151A
:101A70000A12F82983120313520883120313DB009E
:101A800083120313BF1F4D2DBF13BC143F088312D5
:101A90000313E110E600E114542DBC103F0883123B
:101AA00003136111E70061158312031338158312C4
:101AB0000313871483120317D90A6C2D033A031DED
:101AC0006C2D83120317EB1C692DEB108A150A127B
:0A1AD000F8298A150A121B2B0800E2
:061ADA008316031305084A
:101AE0003F3885008316031309309F0083120313C8
:101AF0009F019F171F1483160313D801D901DA0120
:101B00000800831603135808003A0319892DD803D7
:101B10000800831203131F190800831603135A18B1
:101B20009F2DDA18C42D5A19E92DDA190E2E5A1ADA
:101B3000332EDA1A582EDA01DA16D90108005919AB
:101B4000B82DD918B32D831603139F1383120313D3
:101B50009F121F129F1183160313D91483160313A8
:101B60000130D80008005915831203131F1508000F
:101B7000831203131E0883120313D000831603136A
:101B8000DA01DA14D90108005919DD2DD918D82D38
:101B9000831603139F13831203139F121F129F15A3
:101BA00083160313D914831603130130D8000800D9
:101BB0005915831203131F150800831203131E08FF
:101BC00083160313C70083160313DA015A15D901CC
:101BD00008005919022ED918FD2D831603139F13DF
:101BE000831203139F121F169F1183160313D91418
:101BF000831603130130D80008005915831203130C
:101C00001F150800831203131E0883120313CF004D
:101C100083160313DA01DA15D90108005919272EA2
:101C2000D918222E831603139F13831203139F12B6
:101C30001F169F1583160313D9148316031301303F
:101C4000D80008005915831203131F1508008312CA
:101C500003131E0883120313D20083160313DA0141
:101C60005A16D901080059194C2ED918472E831637
:101C700003139F13831203139F161F129F118316C2
:101C80000313D914831603130130D8000800591523
:101C9000831203131F150800831203131E088312F7
:101CA0000313D30083160313DA01DA16D9010800EF
:101CB0005919712ED9186C2E831603139F13831292
:101CC00003139F161F129F1583160313D91483162F
:101CD00003130130D80008005915831203131F1590
:101CE0000800831203131E0883120313D100831606
:0C1CF0000313DA015A14D901080008009F
:041CFC008312031339
:101D00003308AD02031CAE033408AE02031CAF035C
:101D10000800831203133308AD02031CAE0334081A
:101D2000AE02080083120313AF013308AD07031896
:101D3000AE0A3408AE070318AF0A08008312031373
:101D4000AE01AD0C0318AE07AE0CAD0C0318AE0718
:101D5000AE0CAD0C0318AE07AE0CAD0C0318AE07FD
:101D6000AE0CAD0C0318AE07AE0CAD0C0318AE07ED
:101D7000AE0CAD0C0318AE07AE0CAD0C0318AE07DD
:101D8000AE0CAD0C080083120313AF01B500103088
:101D9000B700350803102D1CCE2EAF07AF0CAE0CCC
:101DA000AD0C0310B70BCB2E080083120313B00148
:101DB000B5001830B700350803102D1CE02EB00711
:101DC000B00CAF0CAE0CAD0C0310B70BDD2E080041
:101DD00083120313B300AF010830B7002E0DAF0D0F
:101DE0003308AF020318F62EAF070310AE0DB70B82
:101DF000EE2EB5010830B7002D0DAF0DB50D33082F
:101E0000AF02B6010301031C360FB5020318102FF1
:101E10003308AF07B60103010318360FB5070310E7
:101E2000AD0DB70BFC2E080083120313B300B001F5
:101E30001830B7002D0DAE0DAF0DB00DAD0D330840
:101E4000B00203182D142D1CB007B70B1A2F080071
:101E500083120313B001B1011830B7002D0DAE0D80
:101E6000AF0DB00DB10DAD0D3308B0023408031C39
:101E7000340FB10203182D142D18412FB107330868
:101E8000B007B70B2E2F0800831203132030B700C2
:101E9000B201B1010310AD0DAE0DAF0DB00DB10D1E
:101EA000B20D03185B2F34083202031D592F33087B
:101EB0003102031C622F3308B102031CB203340841
:0A1EC000B2022D14B70B4A2F0800E0
:061ECA0083160313D11181
:101ED00083160313511383120317EB01EE01EC0178
:101EE0008316031307148312031306309000831222
:101EF00003138E018F01831203130C108316031337
:101F00000C10080083120317EB106B1083120313DD
:101F10002D0883120317EE00831203132E08831279
:101F20000317EF0083120313FF30AD06AE06031054
:101F30000130AD070318AE0A831203132D08831274
:101F400003138E00831203132E08831203138F00D2
:101F5000831203130C10831603130C148312031340
:101F60001014080083160313D115831203176B1482
:101F70006B15831203131010831203138E018F014C
:101F80008312031310140800831203176B1C08003C
:101F9000831203131010831203176B19DC2F8312A3
:101FA00003130E0883120317EC00831203130F08A8
:101FB00083120317ED00DD2F6B11831203138E01C3
:101FC0008F018312031310140800831203131010DF
:101FD00083120317EB14831203130C108A110A12D5
:021FE0003E2899
:0E1FE200831203175A08031D003483120313E1
:101FF000260883120313D900831203133B160734F8
:06200000521630333035AA
:0A200600831203175908013A031D65
:102010003A28831203133A1183160313D111831242
:102020000313CB01CC0183120313B9168A150A12CC
:1020300009238A110A160319252883120313B814D9
:102040000130BE008A150A12F82983120313FF30EB
:10205000CA008A150A161F228A110A16831603134C
:102060002B08831203136111E70061158312031714
:10207000D90A362A033A031DDD2883120313611996
:10208000492883120313B8140330BE008A150A12BC
:10209000F82983120313B81C50288A150A12F8294C
:1020A000831603132A08031D5D2883160313401D9E
:1020B0000800831603134115612883160313521F6A
:1020C000080083120313C11E6928831603135116D7
:1020D0006C2883160313511283120313411E7428B4
:1020E00083160313D116772883160313D112831294
:1020F0000313400883160313DB0083120313410804
:102100000F3983160313DC008A150A16D3238A11AC
:102110000A1683120313430E07398A150A16DC22A6
:102120008A110A168316031321088312031343022C
:10213000031CB228031DA42883160313200883124E
:1021400003134202031CB2288316031320088316CC
:102150000313DF008316031321080F3983160313BB
:10216000E000BF2883120313420883160313DF0025
:102170008312031343080F3983160313E0008316F9
:1021800003135F0883120313DE0083160313600832
:1021900083120313DF008A150A1609248A110A160E
:1021A000831603132608831203136111E7006115D8
:1021B00083120317D90A362A362A013A031D052944
:1021C00083120313611908008A110A1646268A1120
:1021D0000A16831203133A15831203130915831683
:1021E000031351148A150A12C2218A110A16831682
:1021F00003132308831203136111E700611583128F
:1022000003170530D900362A362A073A031D132949
:102210001430831203136111E70061158312031751
:10222000D90A362A362A013A031DA5298312031337
:102230006119222983120313B8141530BE008A15C0
:102240000A12F82983120313061E080083120313CF
:10225000CE0803193929CE038316031323088312EA
:1022600003136111E7006115831203170830D900C9
:10227000080083160313D0148A150A12C2218A118A
:102280000A1683120313440883120313AD0083124A
:102290000313450883120313AE008A150A1282271E
:1022A0008A110A16831203133912831203133A1781
:1022B000831603132208831203136110E5006114CF
:1022C00083160313D1148A150A12C2218A110A1621
:1022D000831203170F30DE0083120313BA153A126C
:1022E000831203179001910183120313B81E8029F2
:1022F00083120313B8141B30BE008A150A12F82982
:1023000083120313520883120313DB008312031397
:10231000BF1F9329BF13BC143F0883120313E1109E
:10232000E600E1149A29BC103F08831203136111DF
:10233000E700611583120313381583120313871402
:1023400083120317D90A362A362A033A031DDE29D7
:1023500083120317EB1CD929EB1083120313871088
:1023600083120313381183120313BA19C029831679
:102370000313D1108A150A12C2218A110A16C12923
:102380003A16831603171108203A0319D529831327
:10239000031B8317923084001108840783120317EC
:1023A0001008800083160317910A83120317D90AB5
:1023B00008008A150A121B2B362A362A013A031DF9
:1023C0001D2A83120313CD03031DE9298A150A125E
:1023D000F829831203176E0883120313AD008312CA
:1023E00003176F0883120313AE00831203134B0805
:1023F00083120313B300831203134C0883120313D5
:10240000B4008A150A1292268A110A16831203133F
:102410002D0883120313CB00831203132E0883129B
:102420000313CC001430831203136111E70061150C
:1024300083120317D90A362A362A0F3A031D362A81
:102440008312031361192C2A83120313B814153055
:10245000BE008A150A12F82983120313061A08000F
:0E246000831203170430D9000800362A080042
:02246E008316D3
:102470000313861083160313061183120313060831
:10248000F9390038860083160313C201C001C10167
:102490004017C801C901CC01CD01CA01CB01831687
:1024A0000313FF30AF00B000B100B200B300B400BE
:1024B000B501B601B701B801080083160313C400C3
:1024C0004130C300692A83160313C4004030C3009F
:1024D000692A8316031340309400831203132030BB
:1024E0009400831203130808F83900388800831613
:1024F00003134308CE01831203138C119300831638
:1025000003131418882A83160313CE0B7F2A08009E
:10251000831603134408CE01831203138C11930016
:10252000831603131418992A83160313CE0B902ACB
:102530000800831203130808F839003888000800DF
:1025400083160313411C0800A02A831603134119A4
:10255000080083160313401A202C83160313C01A95
:10256000322C83160313401B452C83160313C01C07
:10257000A62B831603134208003A031DEA2A83168A
:102580000313C1180800C20A4708CA0083160313C0
:102590004A088316031333020318D42A8312031341
:1025A000B8146530BE00452C831603134A08831601
:1025B00003133702031CE22A83120313B814663094
:1025C000BE00452C831603130A30C600C114013027
:1025D0005D2AA52B013A031D182B83160313C1187E
:1025E0000800C2014708CB00831603134B0883166B
:1025F000031334020318022B83120313B814693037
:10260000BE00452C831603134B08831603133802B0
:10261000031C102B83120313B8146A30BE00452C20
:10262000831603130A30C600C11400305D2AA52B9F
:10263000033A031D2B2B8316031341180800C20A0B
:102640007830C5004114831203130608F9390238A3
:1026500086000800A52B013A031D592B831603138E
:1026600041180800C20A4708C80083160313480827
:102670008316031331020318432B83120313B81478
:102680006330BE00452C83160313480883160313DA
:102690003502031C512B83120313B8146430BE009F
:1026A000452C831603130530C500411401305D2A03
:1026B000A52B073A031D8D2B831603134118080021
:1026C0004708C9008316031349088316031332020F
:1026D0000318702B83120313B8146730BE00452C07
:1026E000831603134908831603133602031C7E2B3B
:1026F00083120313B8146830BE00452C83120313F1
:102700000608F9390038860083160313C20A0A3016
:10271000C500411400305D2AA52B013A031DA52BED
:102720008316031341180800831203130608F939AE
:102730000438860083120313381783160313C2016B
:102740001430C600C1144015080008008316031396
:10275000C01DD82B831603134208003A031DC02B5B
:102760008316031341180800C20A3C30C600C11486
:10277000831203130608F939063886000800D72BA0
:10278000013A031DD72B83160313C11808008312C7
:1027900003130608F9390038860083160313C201B3
:1027A000C01140140A30C600C11400305D2A080070
:1027B00083160313401C1F2C831603134208003A90
:1027C000031DFF2B83160313C1180800C20A470814
:1027D000CC00831603134C08831603132F0203182F
:1027E000F72B83120313B8146130BE00452C8316F7
:1027F00003130A30C600C11401305D2A1E2C013AB1
:10280000031D1E2C83160313C1180800C2014708BC
:10281000CD00831603134D088316031330020318EB
:10282000172C83120313B8146230BE00452C831694
:1028300003130A30C600C11400305D2A08000800E6
:10284000831203130608F939003886008316031330
:10285000C0010230C200C0140A30C5004114C110CA
:1028600000305D2A83120313381383120313060802
:10287000F9390038860083160313C001C201C01560
:102880000A30C5004114C110080083120313381325
:10289000831203130608F9390038860083160313E0
:1028A000C001C20140141430C600C11441100030F0
:0228B0005D2A9F
:0E28B2008312031300308B00831603138C0077
:1028C000831603138D008A150A1649238A110A12EA
:1028D000B9268A150A126D258A110A1659268A11F7
:1028E0000A16831203138313031B831738308400E3
:1028F0000408613A03197F2C8001840A782C38146B
:10290000831603130810831603138810831603130A
:102910000811831203130808F839003888008A1553
:102920000A1678218A110A168A150A120A208A11B3
:102930000A168A150A16F9238A110A168A150A1226
:1029400065278A110A16831603130130AA008A111B
:102950000A1637228A110A168A150A16BD238A1109
:102960000A168A150A16CA208A110A168A150A1624
:10297000B8248A110A168A150A1600208A110A1626
:102980008A150A12E7218A110A16831203138B177C
:102990000B1700308A150A16DC228A110A168312D8
:1029A0000313FF30CA008A150A12B2278A110A16C9
:1029B000013083120313D900831203133B168312D1
:1029C0000313381183120313B91FE72C0028831255
:1029D0000313BA1EF62CBA12831203133819F52CFE
:1029E0008A150A12D5208A110A16072D8A150A128D
:1029F00096218A110A16831203133819042D8A1599
:102A00000A12C2218A110A1683120313BA168312FC
:102A10000313BA1F262DBA13831203171530DD00D6
:102A20008A150A1281258A110A16831203130A30A5
:102A3000E000E00B192D83120317DD0B102D83121C
:102A40000313500883120313DA00342D8A150A1277
:102A500081258A110A16831603132A18342D8A1128
:102A60000A16A5228A110A16831603132508831253
:102A700003135202031C452D831203130812831201
:102A80000313B81183120313B81683120317DA085D
:102A900003196D2D83160313D31D532D83120317B2
:102AA0000A30DC006D2D83120317DC08031D6D2D29
:102AB000831203133A1D622D83120313B8141F30BF
:102AC000BE00672D83120313B8140430BE008A15AC
:102AD0000A12F8218A110A16452E831203175A1C6E
:102AE000772D8A150A12C4238A110A16452E8312DD
:102AF0000317DA1C812D8A110A12AC238A110A16D7
:102B0000452E831203175A1D8B2D8A110A16032096
:102B10008A110A16452E83120317DA1D952D8A1184
:102B20000A1251208A110A16452E831203133811F6
:102B30008A150A16A1228A110A16831203133B1E54
:102B4000AA2D3B128312031359088A150A1618205E
:102B50008A110A1683120313BB1DBA2DBB118312EF
:102B60000313081283120313B8118312031388127C
:102B70000000881683120313BB1C0C2EBB103B15E0
:102B8000831203133F08831203136112E9006116D5
:102B9000831603132108831203134302031CE82D39
:102BA000031DDA2D83160313200883120313420238
:102BB000031CE82D83160313200883160313DF007C
:102BC0008316031321080F3983160313E000F52D34
:102BD00083120313420883160313DF0083120313C7
:102BE00043080F3983160313E000831603135F08AD
:102BF00083120313DE00831603136008831203138A
:102C0000DF008A150A1609248A110A168312031393
:102C1000081683120313B815831203133B1D222ECB
:102C200083120313611A222E8312031308128312D4
:102C30000313B8118312031388120000881683123D
:102C400003133B1183120313BB1E2C2EBB128A15D8
:102C50000A16D4208A110A16831203133B1F362E3C
:102C60003B138A150A161B218A110A1683120313B5
:102C7000BB1F402EBB138A150A1667218A110A163C
:102C80008A150A16A3218A110A16E22C080083125B
:102C90000313831203130719462E831603130C1212
:102CA0008C12981283120313071183120313BA14A0
:022CB00008001A
:0E2CB20083120313E101E201E301E401E501F5
:102CC000E601E701E801E901EA01EB01EC01831605
:102CD0000313811101118110011481128B168312CB
:102CE00003130930E200080083160313D31B7D2E63
:102CF00083120317900F7D2E910A83120313611C18
:102D0000842EE50B842E6110831203136208E20AFD
:102D1000003A031D922E83120317E9080319912E1E
:102D2000E903F12E023A031DAA2E831203175A1942
:102D3000A92E83120317DA19A92E83120313391E41
:102D4000A92E83120317DB03031DA92E831203137D
:102D50003912F12E013A031DBE2E83120313E11D19
:102D6000B42EE80BB42EE11183160313D319BD2E34
:102D700083120317DC08031DDC03F12E073A031D41
:102D8000C92E83160313411CC82EC50BC82E411033
:102D9000F12E023A031DCE2EF52EF12E013A031D1F
:102DA000ED2E83120313E11CD82EE60BD82EE11072
:102DB00083120313BA1DEC2E83120317DE03031DC7
:102DC000EC2E83120313BA11831203133A1EEC2E56
:102DD0003A1283160313D110F12E0F3A031DF12E70
:102DE000E2010B118A110A123E28831203136308B1
:102DF000E30A003A031D042F83120313611D032FFE
:102E0000E70B032F6111402F023A031D0F2F83128E
:102E10000313E11F0E2FEC0B0E2FE113402F013A8D
:102E2000031D1A2F83120313611E192FE90B192F8B
:102E30006112402F073A031D252F83160313C11C6F
:102E4000242FC60B242FC110402F013A031D292F18
:102E5000402F033A031D342F83120313E11E332F37
:102E6000EA0B332FE112402F013A031D392F442F73
:102E7000402F0E3A031D402FE301831203133B142E
:102E80000B118A110A123E28831203136408E40A04
:102E9000003A031D512F831203130608203A8600BF
:102EA000692F013A031D5A2F8A150A12C4278A1165
:102EB0000A16692F043A031D652F83120313611F3D
:102EC000642FEB0B642F6113692F0F3A031D692FD9
:102ED000E4010B118A110A123E2883120313EE003B
:0C2EE000ED01ED0B712FEE0B712F0800BF
:042EEC008312031337
:102EF000B8180334831203175A08031D00348316CD
:102F000003132A080319BF2F831203132608003A5C
:102F1000031D902F83120313BB170734BE2FBE2F40
:102F2000013A031DA32F83160313401683160313C0
:102F3000521B9D2F83160313CF0A831203133B17D3
:102F40000734BE2FBE2F033A031DB62F831603137B
:102F5000401683160313521BB02F83120313D40A97
:102F600083120313BB160734BE2FBE2F013A031D75
:102F7000BE2F83120313BB170734BE2FF52F831206
:102F800003132608003A031DCB2F831603134017A3
:102F90000734F52FF52F013A031DDB2F831603139A
:102FA000C018073483160313CF0A83160313401681
:102FB0000734F52FF52F033A031DEB2F8316031368
:102FC000C018073483160313CF0A83160313401661
:102FD0000734F52FF52F013A031DF52F8316031340
:0C2FE000C0190734C0160734F52F023466
:042FEC008312031336
:0A2FF000BE0183120313B81007346A
:022FFA0007349A
:022FFC00073498
:103000008316031308128312031308128312031387
:10301000B811831203138812000088168312031359
:10302000B81283120313D70183120313B8110800D7
:1030300083120313B81283120313B81923288312BF
:103040000313D70036288312031357060319080009
:10305000D7068312031388120000881628308312C3
:103060000313E110E600E114E1183428831203137E
:10307000081683120313B815831203135708013A75
:10308000031D472883160313D01350135F28033AF8
:10309000031D4F2883160313D01750135F28013ADE
:1030A000031D572883160313D01350175F28073AC0
:1030B000031D5F2883160313D01750175F288A1546
:1030C0000A124E218A150A16283083120313E110C2
:1030D000E600E114E1186A2883120313EF01F001FE
:1030E000831203130130EF070318F00A831603134A
:1030F0002108831203137002031C9628031D8828DD
:10310000831603132008831203136F02031C9628EF
:1031100083160313200883160313DF00831603139B
:1031200021080F3983160313E000A3288312031329
:103130006F0883160313DF008312031370080F391F
:1031400083160313E000831603135F08831203132F
:10315000DE0083160313600883120313DF008A1551
:103160000A1609248A150A16831203136F08831698
:1031700003132806031D7028831203137008831697
:1031800003132906031D702883120313E113EC00B7
:04319000E11708003B
:0C31940083160313D0148316031350108D
:1031A000831603135015080083160313501C0229BD
:1031B00083160313521FE02883160313501D013496
:1031C00083160313D0148A150A12C2218A150A160F
:1031D0008316031350108A150A12C2218A150A1683
:1031E0000A3083120313E112EA00E1168A150A126B
:1031F0004E218A150A1281258A150A168312031395
:10320000E11AF6288316031350118A150A12C221F7
:103210008A150A168316031350148A150A12C2213E
:103220008A150A1683160313D0108A150A12C221B2
:103230008A150A16013483160313501C4629831677
:103240000313521F2429013483160313D0148A1543
:103250000A12C2218A150A168316031350108A1502
:103260000A12C2218A150A160A3083120313E112C8
:10327000EA00E1168A150A124E218A150A128125E2
:103280008A150A1683120313E11A3A2983160313C7
:10329000D0148A150A12C2218A150A16831603133E
:1032A00050158A150A12C2218A150A1683160313AD
:1032B00050148A150A12C2218A150A16831603139E
:1032C000D0108A150A12C2218A150A1601348316F3
:1032D0000313D0148A150A12C2218A150A168316FE
:1032E000031350108A150A12C2218A150A16080003
:1032F00083120317E601E701E801FF30E9008316B6
:1033000003138712831603130716831603138711FB
:10331000831603139401831203139401080083128C
:103320000317E701831203138C1193008316031311
:103330001418080083120317E70B9629831203174A
:103340000130E600080083120317E908031D080096
:103350003230E900831203176808003A031DB129CF
:10336000032A013A031DBB29831203135008831259
:103370000317E300032A033A031DC529831203132D
:10338000500883120317E400032A013A031DCF29D2
:1033900083120313500883120317E200032A073A2B
:1033A000031DD92983120313500883120317E00069
:1033B000032A013A031DE3298312031350088312E1
:1033C0000317E100032A033A031DED2983120313B7
:1033D000500883120313DC00032A013A031DF72966
:1033E00083120313500883120317E500032A0F3AD0
:1033F000031D032A83120313500883120313DD00F5
:1034000083120317E80183160313403094008312DC
:10341000031320309400831203130808F83904388A
:10342000880041308F21831203176808E80A8F2132
:10343000831203130808F839003888000800831243
:0834400003170530E800032A20
:083448008312031325081F394C
:10345000013A031D2E2A8A150A16472D013A023A0F
:10346000031D352A8A150A16552D023A033A031D03
:103470003C2A8A110A16F62F033A043A031D432AFE
:103480008A150A12F12F043A053A031D4A2A8A15B1
:103490000A16352D053A063A031D512A8A150A16D1
:1034A000312C063A073A031D582A8A110A16762F3C
:1034B000073A083A031D5F2A8A110A16FD2F083AB7
:1034C000093A031D662A8A110A12FF2F093A0A3A9D
:1034D000031D6D2A8A110A16FE2F0A3A0B3A031DA4
:1034E000742A8A150A161D2D0B3A0C3A031D7B2AE5
:1034F0008A150A16FF2C0C3A0D3A031D822A8A15EA
:103500000A16E12C0D3A0E3A031D892A8A150A166D
:10351000742B0E3A0F3A031D902A8A150A165C2D59
:103520000F3A0434831383120313A608031D831771
:10353000250884000008AA00840A0008A9000634AF
:10354000080083120313B91DAF2AB910B91139113C
:1035500083160313D11383120313D80108008312B7
:1035600003133A18080083120313391DC32A3911B3
:10357000B91483160313D1170A3083120313E11110
:10358000E800E115080083120313B91C0800831238
:103590000313E119080083160313D21FDB2A8312D9
:1035A00003133A1483160313D11383120313D801A0
:1035B00083120313B910080083120313D800831673
:1035C0000313D0125012D011003A031DEC2A8312BB
:1035D0000313B91508000C2B013A031DF02A0C2B1C
:1035E000033A031DF72A83160313D0160C2B013A56
:1035F000031DFE2A8316031350160C2B073A031DD6
:10360000062B83160313D01650160C2B013A031DFC
:103610000C2B83160313D0158312031339150800DE
:10362000831203178D00A0308D02831603178C13AD
:103630000C14831203170C08080083138316031756
:103640008C18202B0408831203178D00A0308D02E4
:10365000831203130008831203178C0083160317C9
:103660008C130C158B1B3D2B55308D00AA308D0013
:103670008C140C118C183A2B08008B1355308D00CC
:10368000AA308D008C140C118C18442B8B17080059
:1036900008008313A0308400040810238000840AEB
:1036A0000408C03A031D4C2B08008313A03084008B
:1036B0001D23840A0408BD3A031D582B08008313F8
:1036C0001C308A0004088E248A150A1680001D23E7
:1036D00008008313A03084005F23840A0408BD3AE5
:0836E000031908006C2B08001F
:0836E800831203130130A90055
:1036F000831203132608003A031D862B8316031337
:10370000520883120313AA000634BC2B013A031D8E
:10371000912B83160313530883120313AA00063454
:10372000BC2B033A031D9C2B8316031350088312F2
:103730000313AA000634BC2B013A031DA72B8316E2
:103740000313510883120313AA000634BC2B073A53
:10375000031DB22B831203176E0883120313AA00F2
:103760000634BC2B013A031DBC2B831203176F08D0
:0A37700083120313AA00063402348A
:06377A0083160313871003
:10378000831203138710831603130813831603137E
:1037900088138312031308178312031388178813DF
:1037A000000088170800831603134030940083122A
:1037B000031320309400831203130808F8390238E9
:1037C0008800831603135C088A150A168F21831656
:1037D00003135B088F218A150A168312031308133B
:1037E00000000817831203130808F839003888000E
:0237F0000800CF
:0E37F2008316031389108316031388128312A3
:103800000313891483120313881688120000881684
:1038100008008316031340309400831203132030F2
:103820009400831203130808F839033888008316BC
:10383000031360088A150A168F21831603135F0885
:103840008A150A168F218A150A1683120313891006
:1038500000008914831203130808F839003888001F
:0238600008005E
:0E38620083160313D31D0334831203175A0871
:10387000031D00348316031351118312031326080A
:1038800083120317DA00831203176B1083120317D6
:10389000940195018312031792019301831203137C
:1038A000DE0183120317960197019801831603170F
:1038B000910183120313BC10831203170130D90046
:0238C0000734CB
:0E38C2008312031325088400A9008312031348
:1038D0002608031D712C8313000883120313AA000A
:1038E0000634013A031D7A2C831700088312031350
:1038F000AA000634033A031D872C04088A150A1609
:1039000010238A150A1683120313AA00063404082A
:0C3910008A150A168E248A150A16063441
:04391C00A03CFF3C90
:10392000013E203C03190034031C0034203C820774
:1039300028340A341B34FF3400345D3405340F342A
:103940001434053401343C34963414343234FF34A6
:10395000FF34FF34FF34FF34FF34003400340034CC
:103960000034463400340134023400340034483426
:10397000080083160313DD004130DE0083160313B5
:1039800040309400831203132030940083120313F9
:103990000808F83904388800831603135E088A156E
:1039A0000A168F21831603135D088A150A168F21C4
:1039B0008A150A16831203130808F839003888009C
:0239C0000800FD
:0E39C200831203130130A90083120313260899
:1039D000003A031DF32C83120317180883120313F4
:1039E000AA000634FE2C383E831203178313031BF0
:0E39F00083178400000883120313AA00063414
:0239FE00831232
:103A000003130130A900831203132608003A031D93
:103A1000112D83120317170883120313AA0006340B
:103A20001C2D183E831203178313031B8317840076
:0A3A3000000883120313AA000634F5
:063A3A00831203175A0875
:103A4000031D003483120313A608031D2B2D8312BC
:103A50000313BB15342D83120313BB1483120313FA
:0A3A6000260883120313BF00073489
:063A6A00831203175A0845
:103A7000031D0034831203133A1803348312031313
:0E3A800026088A150A16DC228A110A1207345B
:023A8E008312A1
:103A900003132608013A031D512D83120313B9178E
:0A3AA000542D83120313381007346D
:063AAA0003308312031338
:083AB000AA000530A90006344C
:083AB80083120313BA16073450
:02400E00713F00
:1042000028000A001B00FF0000005D0005000F00F1
:104210001400050001003C00960014003200FF006D
:10422000FF00FF00FF00FF00FF0000000000000093
:1042300000004600000001000200000000004800ED
:00000001FF
