<0xb573,2.4>
:020000040000FA
:060000008A110A125128CA
:080008008B13FF0003088312B3
:100010000313F1000A08F2000408F4008316031326
:10002000010883120313F300831203130C08F50075
:100030000D08F600831603130C0883120313F5054D
:10004000831603130D0883120313F6058A110A128F
:10005000F518A42D8A110A12F51A482E8A110A12CF
:10006000751A0E2F8A110A127618322F8A110A1663
:100070008B1E3B280B19122A8B133D288312031366
:100080007408840072088A007308831603138100C1
:0E0090008312031371088300FF0E7F0E090018
:02009E0000342C
:0200A00000342A
:0E00A2008312031300308B00831603138C00AF
:1000B000831603138D00831203138313031B83170B
:1000C0003830840004084E3A031969288001840AF4
:1000D0006228831603138313031B8317BE30840027
:1000E0000408C03A031977288001840A70288A110D
:1000F0000A16A8238A110A16B5248A110A12112693
:100100008A110A1283160313003088008312031326
:100110008801831603130910831203130910831631
:100120000313891083120313891083160313091113
:100130008312031309118316031387108312031309
:1001400087108316031385128312031385128316F7
:10015000031307108312031307108316031386116A
:1001600083120313861183160313051683160313D4
:100170008515831603138614831603130615831639
:100180000313061083120313BA1183120313061408
:100190008A110A124E278A110A128A110A1601229E
:1001A0008A110A1283120313B801831203138B17E7
:1001B0000B1783120313B91783120313B91FE22815
:1001C0006400DC2883120313CD158A110A120E2253
:1001D0008A110A128A110A124C248A110A128A11EF
:1001E0000A1232228A110A128A110A1283228A11F1
:1001F0000A128A110A1603208A110A1220220E22DC
:1002000083120313861C0B2983120313CD1683124A
:100210000313BA15142983120313CD128312031387
:10022000BA11831203130610831203133A1C2429F4
:10023000831203130A30E5005F145F181D2983122F
:1002400003138B130B13512883120313B91A46227D
:10025000831203133A1E4B2983120313BA1D41293B
:1002600083120313851D3B2983120313BA1A4129F4
:10027000BA163A17412983120313BA1E4129BA123A
:100280003A17831203133A1F4B293A138A110A169D
:100290001A208A110A1283120313381DF4298312BB
:1002A00003133C1C9829831203133A11831203137E
:1002B0004A10CA104A11CA112022831203134B0894
:1002C000003A031D6D2983160313200883120313BC
:1002D000E800E701671493299329013A031D7A295D
:1002E00083160313210883120313E800E701E714C0
:1002F00093299329033A031D8729831603132208A0
:1003000083120313E800E701671593299329013A43
:10031000031D932983160313230883120313E80094
:10032000E701E71593298A110A166E208A110A122D
:1003300083120313BC1CAB29831203133A158312D7
:1003400003134B0883120313E800E7018A110A160E
:100350006E208A110A1283120313BC1EB4298A115B
:100360000A161A208A110A12831203133C1DC72988
:1003700083120313CE19C2298A110A126A258A111F
:100380000A12C7298A110A125C248A110A128312DE
:100390000313BC1DD92983120313CE19D4298A1142
:1003A0000A126A258A110A128A110A12F9248A117C
:1003B0000A12831203133C1FE529831203134B080F
:1003C0008A110A125B278A110A1283120313BC1FB7
:1003D000EE298A110A1299228A110A128312031332
:1003E000BC0183120313381183120313B91DF929B9
:1003F000202283120313391EFE290E228A110A12AB
:10040000B6278A110A1283120313071A0D2A8312C0
:1004100003134E1183120313CE11142983120313F5
:100420004D088312031388008312031385168A1163
:100430000A1673228A110A12831203138512080006
:10044000831203134A0883120313880083120313D1
:1004500007148A110A1673228A110A1283120313CF
:1004600007100800831603130711831603137F3048
:10047000920083120313003095002030970004305F
:10048000920017080C389700071108008316031311
:100490003E08831203134C06031D752A83120313AF
:1004A000BA18642A831603133E088400031D5E2ACB
:1004B0008A110A16B4238A110A12632A8A110A16AB
:1004C0007C238A110A12752A831603133E088400BE
:1004D000031D702A8A110A16C8238A110A12752A66
:1004E0008A110A16BE238A110A1283120313B91243
:1004F00083160313BE01FF3083120313CC00831253
:060500000313381108008E
:0A05060083160313871583160313F1
:10051000871683120313D501D517D801D901D60147
:10052000D701FF30DD00DE00203016242030072404
:10053000080083120313D50183120313B811831625
:1005400003132C08831203135D06031DAA2A5514F6
:100550004E300724831603132B08831203135E0601
:10056000031DB52AD5144E301624831603132C0808
:1005700083120313DD00831603132B088312031366
:10058000DE00831603132C0827020318C92A270844
:10059000CA2A2C0883120313D900D801D80CD90C0D
:1005A000D80CD80CD90CD80C831603132B082602B0
:1005B0000318DC2A2608DD2A2B0883120313D70030
:1005C000D601D60CD70CD60C8312031392018312DA
:1005D00003139701831203138C30DC00831203137F
:1005E000D5125512831203135518F92AD516DB308C
:1005F000072483120313D518002B5516C730162471
:1006000083120313831203136430DB005517831224
:10061000031355181F2B83120313871D172B8312E7
:100620000313D51E162BD5124E3007241F2B831211
:100630000313551B1F2B203007240730252C831252
:100640000313D518372B83120313871E2F2B831206
:100650000313551E2E2B55124E301624372B8312A2
:100660000313551B372B203016240630252C8312FC
:1006700003135508303903193F2B3D24072B8312F0
:1006800003138C30DC0083120313C830DA008312AA
:100690000313D5125512831203135518512BDB3057
:1006A000072483120313D518572BC73016243D2473
:1006B00083120313DA0B572B831203138C30DC00E5
:1006C00083120313D51255128312031355186B2B83
:1006D000D516CB30072483120313D518722B551669
:1006E000D730162483120313831203136430DB0004
:1006F0005517831203135518912B8312031387196F
:10070000892B83120313D51E882BD5124E30072454
:10071000912B83120313551B912B20300724073094
:10072000252C83120313D518A92B83120313871AC0
:10073000A12B83120313551EA02B55124E301624E5
:10074000A92B83120313551BA92B20301624063026
:10075000252C83120313550830390319B12B3D247E
:10076000792B831203138C30DC0083120313D51210
:1007700055125513831203135518C12BD516DB30B0
:10078000072483120313D518C82B5516C730162417
:1007900083120313D518DE2B83120313551EDE2B91
:1007A0008312031356085704031DDA2B55124E30DB
:1007B0001624DE2B0130D602031CD7038312031349
:1007C0005518F42B83120313D51EF42B8312031335
:1007D00058085904031DF02BD5124E300724F42B72
:1007E0000130D802031CD903831203135508303992
:1007F0000319FC2B3D24C82B83120313D50183124C
:100800000313B8154E3007244E3016240800831207
:10081000031388008312031389148A110A167322A2
:100820008A110A128312031389100800831203131A
:1008300088008312031309158A110A1673228A117C
:100840000A12831203130911080083120313B81448
:10085000BB0083120313D51783120313FF30DD008F
:10086000DE000800831203135C08143A0319080021
:10087000DC03DC03DC03DC0308008312031307152D
:10088000000000000711831203135C088A110A1686
:080890008A228A110A120800F5
:080898008316031307168312F7
:1008A0000313CE01CF01D001D201D3018312031370
:1008B000CE112030FD25080083120313B81808005C
:1008C000831203134E1D692C831203134E11CE1194
:1008D000AE2C831203134E1C6F2C02300C2EDB3017
:1008E000FD258316031378309200831203137830AA
:1008F000D1007D30D000CF01D401831203134E14F8
:100900004E17CE124E16CE14831603138C14831278
:1009100003131215831203134E188A2C8312031328
:10092000541CAE2C83160313DC3092008312031385
:10093000C830D1009630CF00D001831203134E147B
:100940004E17CE124E16CE10831603138C1483123C
:1009500003131215831203134E18AA2CCB30FD2556
:1009600083160313DC30920083120313C830D100C6
:100970002030D000CF01D401831203134E144E1740
:10098000CE124E12CE14831603138C14831203134B
:100990001215831203134E18C92C83120313541813
:1009A000D32C08300C2EDB30FD2583120313C83006
:1009B000D1003230CF00D001D40183160313DC30D4
:1009C0009200831203134E144E17CE124E12CE1005
:1009D000831603138C14831203131215831203134B
:1009E0004E18EE2C831203134E15CE154E30FD25F6
:1009F000080083120313B818080083120313CE1BD8
:100A00000800831203134E1C072D03300C2ECB302D
:100A1000FD2583120313C830D10083160313240865
:100A200083120313CF0083160313250883120313C5
:100A3000D00083160313DC309200831203134E148C
:100A40004E17CE124E16CE14831603138C14831237
:100A500003131215831203134E182A2D8316031342
:100A6000240883120313CF0083160313250883126F
:100A70000313D00083120313920192158312031300
:100A80009701831203138C10CB30FD2583120313BF
:100A90007830D10083160313783092008312031349
:100AA000FF30D200831203134E144E17CE124E168F
:100AB000CE10831603138C148312031312158312A2
:100AC00003134E185F2D83120313CE17CE154E302D
:100AD000FD250800CB30FD25831203137830D100AB
:100AE00083160313240883120313CF008316031302
:100AF000250883120313D00083160313FF309200DE
:100B0000831203134E144E17CE124E16CE108316B8
:100B100003138C14831203131215831203134E183C
:100B20008D2D83120313CE155C2C831203134E18E4
:100B3000A32D83120313D3080319A32DD303031D7D
:100B4000A32D4E30FD25080083120313CE1CB02DBB
:100B500083120313071AB02D831203135414EE2DBE
:100B6000831203134E1FC82D831203134E1EC12D73
:100B700083120313510883160313120603199203F9
:100B8000C72D831603131208FF3A031D920ACE2DB8
:100B90008312031351088316031392008312031365
:100BA0004F085004031DD82D83120313D414EE2DC7
:100BB0000130CF02031CD003500803194E128312D8
:100BC0000313071500000000000083120313071130
:100BD000831203138C108A110A123E288316031302
:100BE0008C1083120313121183120313CE0183128C
:100BF00003138C108A110A123E28831203138800F3
:100C00008312031387148A110A1673228A110A1297
:100C1000831203138710080083120313B814BB0058
:020C20000800CA
:0E0C2200831203138313031B83172B308400EC
:100C3000383A0319202E00308000840A0408182E48
:100C4000831203132F30AE003330AD00831603132D
:100C50002F309900243098008312031380309800BD
:100C600090309800831603130C128C16981283127E
:100C70000313003090051D080A389D008E018F0176
:100C800083160313061283120313061208000800CA
:100C900083120313AB012E082F3A0319542E2E088A
:100CA000323A03198B2E9A2E9A1AA52E1A081F393A
:100CB000153A031DA52EAB1683120313FF309B00BC
:100CC0000530F038831203139C009C0E03109C0C1B
:100CD0001014831603130D14831203131A088312BE
:100CE0000313AC01C039003A031D782E2C149A2E40
:100CF000003A403A031D7E2EAC149A2E403AC03A78
:100D0000031D842E2C159A2EC03A803A031D8A2E7C
:100D1000AC159A2EA52E1A08B7002F0830063106FA
:100D20003706031DA52E2B16831603138C12831270
:100D30000313181283132E0884001A0880002B1A3C
:100D4000B92EAE0A8A110A123E2883120313AF018C
:100D5000B001B101B2012F30AE00831203130D10A8
:100D600010108E018F01831603130D108A110A12C1
:100D70003E282F30AE00831203130D1010108E0189
:100D80008F01831603130D10831203132F08B30072
:100D9000AC19DC2E2C18D02E2C19E62EAC18D62E21
:100DA0008A110A1690228A110A12F02E8A110A1646
:100DB000F0228A110A12F02E831203133008B400B5
:100DC0008A110A16D3238A110A12F02E83120313F2
:100DD0003008B4008A110A16FC248A110A12F02E77
:100DE00083120313063A0319FB2E063AB500073A9D
:100DF000031DFF30B4008312031333083406350695
:100E0000B600022F83120313061683120313333026
:100E1000AD008316031398160C16112F83120313BB
:100E2000AB018313831203132D088400383A031D8A
:100E30002A2F83120313AC018316031398120C128A
:100E40008C168312031318168312031306128A11C9
:100E50000A123E288312031300089900AD0A8A1172
:100E60000A123E2883120313AB01831603130D10DD
:100E7000831203130D108312031310108E018F01C0
:100E8000831203132F30AE00AB018A110A123E28E1
:0C0E9000831603130C128C129812080039
:040E9C0083160313A3
:100EA0000516831603130511831203130511831608
:100EB0000313BA01080083160313BB008316031340
:100EC0003B1F7B2F831203130515831603133A145C
:100ED00083160313BB1F7A2F83120313CE19752FAA
:100EE0008A110A126A258A110A128A110A12F92431
:100EF0008A110A12962F8312031305118316031306
:100F00003A10BA10BC0183160313BB1F962F83122D
:100F10000313CE19912F8A110A126A258A110A1217
:100F2000962F8A110A125C248A110A12831603135F
:100F30003B083F3903190800BC00BA1408008312AB
:100F400003133819080083160313BC03031D08009C
:100F5000BA108312031338153C1783120313CB0105
:100F6000080083120313B814BB0008008312031394
:100F7000051EC32F831603133A19C22F3A15BA154B
:100F80003230BD00CB2F831603133A1DCB2F3A11FD
:100F9000BA153230BD0083160313BA1D080083163C
:100FA0000313BD08031D0800BA11831603132D088F
:0E0FB000C0388A110A125B278A110A12080043
:020FBE00A03C55
:100FC000FF3C013E123C03190034031C0034123C68
:100FD000820722346134A134DF34F4340634BE3461
:100FE000FF3400340034003400340034143400344E
:060FF0000034003400345F
:06200000521630323034AC
:0A20060083120313E7012030E020ED
:10201000831603130430B4000E30B5001830B60038
:102020002130B7002930B8002E30B9009E30B300FF
:10203000B20108008316031334083202031827285C
:10204000B20A3308003E83120313E8006E28831699
:1020500003133508320203183428B20A3308013E4C
:1020600083120313E8006E28831603133608320226
:1020700003184128B20A3308023E83120313E80012
:102080006E28831603133708320203184E28B20A4B
:102090003308033E83120313E8006E2883160313EC
:1020A0003808320203185B28B20A3308043E831250
:1020B0000313E8006E28831603133908320203184D
:1020C0006828B20A3308053E83120313E8006E281D
:1020D0003308063E83120313E8006E2883160313A9
:1020E0002E18D028052114218312031368081E021C
:1020F0000319BD2803187E2867177F2867138312EA
:102100000313FF30EA00EF20831203136716E7166C
:1021100083120313671B8E28DF308F28CF30E02017
:1021200083120313671A9528D028142183120313EE
:1021300068081E020319BD280318A328831203137D
:10214000671FBD28A72883120313671BBD288312AE
:1021500003133A1DB428E713831603131208323A07
:102160000319B3289203BC28E7138316031312083C
:10217000193A0319BC28920390284E30E0208312AC
:1021800003130F30E70567080F3983120313CA04DE
:102190001421831203131E0883120313E6000800A0
:1021A000831603132E142030E020831203130F3004
:1021B000E70583120313680883120313E60008007F
:1021C0008312031388008312031309148A110A1659
:1021D00073228A110A16831203130910080083164A
:1021E0000313FF3092008312031300309500203058
:1021F00097000430920017080C3897000711080068
:1022000083120313B814BB000800831203139F1238
:102210001F129F11831603139F1383120313103091
:10222000EC00EC0B11290800831203131F151F1972
:042230001729080062
:0C223400831203132608A002031CA10360
:102240002708A102031CA203080083120313260817
:10225000A002031CA1032708A10208008312031394
:10226000A2012608A0070318A10A2708A10703183E
:10227000A20A080083120313A101A00C0318A107EE
:10228000A10CA00C0318A107A10CA00C0318A10716
:10229000A10CA00C0318A107A10CA00C0318A10706
:1022A000A10CA00C0318A107A10CA00C0318A107F6
:1022B000A10CA00C0318A107A10CA00C080083120C
:1022C0000313A201A8001030AA0028080310201C44
:1022D0006A29A207A20CA10CA00C0310AA0B672963
:1022E000080083120313A301A8001830AA002808CD
:1022F0000310201C7C29A307A30CA20CA10CA00C8A
:102300000310AA0B7929080083120313A600A20167
:102310000830AA00210DA20D2608A2020318922956
:10232000A2070310A10DAA0B8A29A8010830AA0050
:10233000200DA20DA80D2608A202A9010301031C6D
:10234000290FA8020318AC292608A207A901030136
:102350000318290FA8070310A00DAA0B982908003D
:1023600083120313A600A3011830AA00200DA10DAB
:10237000A20DA30DA00D2608A30203182014201CF3
:10238000A307AA0BB629080083120313A301A40113
:102390001830AA00200DA10DA20DA30DA40DA00DB3
:1023A0002608A3022708031C270FA40203182014E1
:1023B0002018DD29A4072608A307AA0BCA290800AC
:1023C000831203132030AA00A501A4010310A00D5D
:1023D000A10DA20DA30DA40DA50D0318F729270823
:1023E0002502031DF52926082402031CFE292608C0
:1023F000A402031CA5032708A5022014AA0BE629A2
:022400000800D2
:0E240200831603138111011181100114811240
:102410008B16831203130A30E0000A30E1000A3001
:10242000E200080083120313E00B682A0A30E00080
:1024300083160313BA1D1F2ABD08031DBD03831293
:102440000313671E262AEA03031967128A110A1268
:1024500032248A110A1683120313E10B682A0A3008
:10246000E1008A110A1295258A110A1683120313B4
:10247000551F3D2ADB030319551383120313B913A8
:1024800083120313B9153916831203135F1C4B2AE9
:10249000E50303195F1083120313E20B682A0A3065
:1024A000E200831203130608083A8600831203131E
:1024B000BA1D5F2A831203130608013A86008316A9
:1024C0000313BA1C682A8A110A129F278A110A1656
:1024D0000B118A110A123E28831203130430E40000
:1024E000E40B702A0800831203132830E400E40B85
:1024F000772A0800831203130A30A0007322A00B6E
:102500007E2A0800831203133230A1007A22A10B25
:10251000862A080083120313A200A20B8D2A08004A
:102520008312031330081F39013A031D9A2A8A11B6
:102530000A16ED2C013A023A031DA12A8A110A1645
:102540000F2D023A033A031DA82A8A110A16082DF4
:10255000033A043A031DAF2A8A110A169F2C043A43
:10256000053A031DB62A8A110A16892C053A063A3D
:10257000031DBD2A8A110A16232C063A073A031DA9
:10258000C42A8A110A163F2C073A083A031DCB2A9F
:102590008A110A16032B083A093A031DD22A8A1116
:1025A0000A16722C093A0A3A031DD92A8A110A1608
:1025B000CA2C0A3A0B3A031DE02A8A110A16002C8B
:1025C0000B3A0C3A031DE72A8A110A16592C0C3AC9
:1025D0000D3A031DEE2A8A110A16DD2C0D3A043439
:1025E00083120313381900343815BC1783120313F0
:1025F000300883160313AB008312031331088316CC
:062600000313AC000734D7
:0A26060083120313B8180334831283
:10261000031338190034831203133108003A031DE1
:10262000192B83120313660883160313A0006E2B65
:102630006E2B013A031D242B8312031366088316A5
:102640000313A1006E2B6E2B033A031D2F2B831255
:102650000313660883160313A2006E2B6E2B013A38
:10266000031D3A2B83120313660883160313A3007A
:102670006E2B6E2B073A031D502B8316031301306C
:10268000AF0083160313BE0183120313CC01831220
:102690000313BA10B9168312031338156E2B6E2B61
:1026A000013A031D662B831603130030AF00831617
:1026B0000313BE0183120313CC0083120313BA1059
:1026C000B9168312031338156E2B6E2B033A031DB4
:0E26D0006C2B07346E2B6E2B02346E2B0734EE
:0226DE00831265
:1026E00003178D00A0308D02831603178C130C1472
:1026F000831203170C0808008313831603178C1822
:102700007F2B0408831203178D00A0308D028312E3
:1027100003130008831203178C00831603178C130E
:102720000C158B1B9C2B55308D00AA308D008C1402
:102730000C118C18992B08008B1355308D00AA3082
:102740008D008C140C118C18A32B8B17080008001B
:102750008313A030840004086F238000840A0408D7
:10276000B23A031DAB2B08008313A03084007C23F6
:10277000840A0408B03A031DB72B080083130730FE
:102780008A000408DF278A110A1680007C230800CB
:102790008313A0308400BE23840A0408B03A0319CE
:0627A0000800CB2B08002D
:0A27A6008312031330088400B4000E
:1027B000831203133108031DE32B831300088312D4
:1027C0000313B5000634013A031DEC2B83170008F0
:1027D00083120313B5000634033A031DF92B0408D2
:1027E0008A110A166F238A110A1683120313B50081
:1027F000063404088A110A12DF278A110A160634E1
:1028000083120313BA1D0D2C831203131B303108DE
:102810001B3C83160313B200132C831203133108DD
:1028200083160313B20083120313851D1B2C83121E
:102830000313BA161E2C83120313BA128312031346
:062840003A163A170734B6
:0A28460083120313671A0034831293
:102850000313381900348312031331080C39031D94
:102860000234831203133C14381583120313310806
:0E28700083120313CB00831203133A120734B2
:02287E008312C3
:102880000313B818033483120313671A0034831236
:1028900003133819003483120313BC143815831240
:1028A0000313310883120313CB00831203133A126C
:0228B0000734EB
:0E28B20083120313B818033483120313671A3A
:1028C00000348312031338190034831203131B30AE
:1028D00031081B3C83160313B20083120313BC168A
:0428E000381507346C
:0C28E400831203134E18003483120313F8
:1028F0003C190734831203133819003438153C157A
:10290000831203130511831603133A10BA10BC0186
:0229100007348A
:0E29120083120313B91A003483120313381909
:10292000003483120313310883160313BE0083128D
:0E2930000313CC0083120313BA10B916073438
:02293E00831202
:102940000313B91A003483120313381900348312A5
:102950000313310883160313BE0083120313CC0044
:0A29600083120313BA14B9160734EA
:06296A00831603130508AB
:1029700000388500831603130E309F008312031363
:102980009F019F171F1483120313ED01EE01EF0146
:042990000800080033
:0C299400831203134E1800348312031347
:1029A000CE1B073483120313BC190734831203139D
:0A29B000381900343815BC1507343F
:0629BA008312031338191B
:1029C000003438153C1783120313310883120313A4
:0A29D000CB0083160313BA1007347E
:0629DA0083120313310813
:1029E000013A031DF82C831203133A143815FB2CFB
:0829F0008312031338100734B1
:0829F800831203133008B40040
:102A00008400831203133108B50083138000063459
:0E2A100083120313BB0183120313B8100734A3
:022A1E00023084
:0C2A200083120313B5000430B400063428
:02400E00723FFF
:1042000022006100A100DF00F4000600BE00FF00F4
:10421000000000000000000000001400000000008A
:04422000000000009A
:00000001FF
