<0x36ff,1.3>
:020000040000FA
:060000008A110A124D28CE
:020006000334C1
:080008008B13FF0003088312B3
:100010000313F1000A08F2000408F4008316031326
:10002000010883120313F300831203130C08F50075
:100030000D08F600831603130C0883120313F5054D
:10004000831603130D0883120313F6058A110A128F
:10005000F51A532D8A110A12751A182E8A110A12CE
:1000600075193C2E8A110A128B1E37280B19072D81
:100070008B133928831203137408840072088A00D2
:10008000730883160313810083120313710883001E
:06009000FF0E7F0E0900C7
:0400960000340034FE
:06009A0083120313803005
:1000A0008B00831603138C00831603138D008312B9
:1000B00003138316031309118312031309118A1101
:1000C0000A1275278A110A121C258A110A12522651
:1000D0008A110A12A0278A110A1283120313003010
:1000E000A4008316031386118316031306128316C6
:1000F00003130810831603138810831603130811C3
:10010000831603138811831603130812831603132F
:100110008812831603130813831603138813831698
:100120000313871083160313061083160313861414
:100130008316031309148316031386128312031301
:100140000B30C900BC012014831603138111011563
:100150008110011481128B16831203130030920058
:10016000831203139101831203138C10831603135C
:100170007D30920083120313013092008312031327
:100180008B170B17831203130030BC001F30B10014
:100190005F30B2004330AC001430AF001130B80013
:1001A0000030B9000430C1000030C2000030B90096
:1001B0000030A0001530C4008930C5000030A40014
:1001C00008148312031387148312031306108A1171
:1001D0000A12B5248A110A125D248A110A123D24DA
:1001E0008A110A1244228A110A1283120313A414D8
:1001F00083120313861583120313861283120313CB
:100200000612182483120313A41D0D29EF30BA001F
:10021000FF308E24BA0B0829FF2383120313061024
:10022000B52483120313A01C1729852400288312E8
:100230000313A01D55294D084E06031D4C2983129A
:1002400003136E086F06031D4C2983120313201A33
:100250003B29831203136E088400031D35298A117C
:100260000A1281278A110A123A298A110A12492789
:100270008A110A124C29831203136E088400031D8D
:1002800047298A110A1295278A110A124C298A11C4
:100290000A128B278A110A1283120313CD01CE0191
:1002A00083120313EF01FF30EE008A110A12662653
:1002B0008A110A128A110A12D6278A110A12831287
:1002C0000313201D6529BC01102983120313A41AEE
:1002D000102983120313861C7729A0163C1683125B
:1002E0000313A419BC1483120313241A3C1483129D
:1002F0000313C71A8529A016BC1583120313A4196A
:10030000BC1483120313241A3C14831203133C18E5
:10031000C82183120313BC18922183120313A01265
:100320008612102983120313A01683120313861654
:100330008312031306148A110A1244228A110A1224
:10034000182459226E22BC188B22E3233C118312FD
:1003500003130610831203132830BF00BF0BB62906
:1003600020150130A6000616BC0108000324112444
:1003700083120313BC19BF293C1ABF29080083123A
:100380000313861EC5298612C62986168524AE2922
:1003900083120313A0168312031386168316031306
:1003A000260883120313CA008A110A125D248312DD
:1003B00003130030B9001130B800831203133C1945
:1003C000E529BC1903243C1A1124CA08031DEE298F
:1003D00020150230A6000616BC01392C8312031327
:1003E0003C1C392C831203133108BB007224831286
:1003F0000313071138088A110A12C2278A110A1238
:100400008312031339088A110A12C2278A110A12A9
:100410008312031307150730B907B90FF229102A01
:100420000311831203131530380203191B2AB80A6B
:100430000830B907F2290830B9023108BB0072242C
:1004400083120313071138088A110A12C2278A116E
:100450000A128312031339088A110A12C2278A1159
:100460000A128312031307150730B902B90B1D2AAC
:10047000392A031183120313103038020319DD29BE
:10048000B8030830B9021D2A071183120313440868
:100490008A110A12C2278A110A128312031345080D
:1004A0008A110A12C2278A110A128312031307152E
:1004B0000800831203130817B32283120313213099
:1004C000BA00831203130830CB00272430308E2467
:1004D000CB0B652ABA0B612A232308000813B32229
:1004E000831203131B30BA00831203130830CB00AE
:1004F000272430308E24CB0B782ABA0B742A23237E
:10050000831203133C198A2ABC1903243C1A1124B0
:10051000BC1C08000800831203132F08BF00081733
:1005200093232330BA00831203130830CB0027240F
:1005300049308E24CB0B972ABA0B932ABB23831204
:100540000313081FA52A0813B02A831203133C19AA
:10055000AF2ABC1903243C1A1124BC1C080008173C
:10056000BF0B902A0800831203130430CB0027240A
:1005700087308E24CB0BB72A831203130430CB00B1
:10058000272474308E24CB0BC02A8312031304302B
:10059000CB00272466308E24CB0BC92A8312031389
:1005A0000430CB0027245B308E24CB0BD22A83125D
:1005B00003130430CB00272452308E24CB0BDB2ACC
:1005C000831203130430CB0027244A308E24CB0B34
:1005D000E42A831203130610831203130430CB00A2
:1005E000272444308E24CB0BF02A831203130430CB
:1005F000CB0027243F308E24CB0BF92A8312031320
:100600000430CB0027243A308E24CB0B022B8312EC
:1006100003130430CB00272436308E24CB0B0B2B56
:10062000831203130430CB00272433308E24CB0BEA
:10063000142B831203130430CB00272430308E2474
:10064000CB0B1D2B0800831203130430CB0027248F
:1006500030308E24CB0B272B831203130430CB00B6
:10066000272433308E24CB0B302B8312031304301A
:10067000CB00272436308E24CB0B392B8312031367
:100680000430CB0027243A308E24CB0B422B83122C
:1006900003130430CB0027243F308E24CB0B4B2B8D
:1006A000831203130430CB00272444308E24CB0B59
:1006B000542B831203130614831203130430CB004C
:1006C00027244A308E24CB0B602B83120313043073
:1006D000CB00272452308E24CB0B692B83120313BB
:1006E0000430CB0027245B308E24CB0B722B83127B
:1006F00003130430CB00272466308E24CB0B7B2BD6
:10070000831203130430CB00272474308E24CB0BC8
:10071000842B831203130430CB00272487308E24CC
:10072000CB0B8D2B0800831203130430CB0027243E
:1007300050308E24CB0B972B831203130430CB0045
:1007400027244C308E24CB0BA02B831203130430B0
:10075000CB00272449308E24CB0BA92B8312031303
:100760000430CB00272445308E24CB0BB22B8312D0
:1007700003130610080083120313061483120313D5
:100780000430CB00272445308E24CB0BC22B8312A0
:1007900003130430CB00272449308E24CB0BCB2B02
:1007A000831203130430CB0027244C308E24CB0B50
:1007B000D42B831203130430CB00272450308E2413
:1007C000CB0BDD2B08000813FA30BA002724613068
:1007D0008E24A418F923BA0BE62BFA30BA0027248A
:1007E00061308E24A418F923BA0BEF2B08140817D4
:1007F0000800013083120313091CBA000800091C09
:100800008B22E32308008A110A12D6278A110A12C2
:1008100083120313C71ABC10C71A3C10C71ABC11A5
:100820000800861CBC10861C3C10861C3C1208006C
:100830008A110A121E248A110A1208008312031355
:1008400088110810881408110816081788158312D3
:10085000031388128A110A12000000008816000093
:10086000000000000000000000008A110A12881237
:1008700008008312031308140800A411A412241200
:10088000831203134708C039C03ABA00C03A0319AB
:1008900052243A08403A031957243A08803A031977
:1008A000A416080024168312031306100800A415CA
:1008B000091583120313061008008312031307108F
:1008C00000308A110A12C2278A110A1283120313F6
:1008D00032088A110A12C2278A110A1283120313DC
:1008E000071408008312031391018C108312031361
:1008F0003B08831603139200831203130530920002
:100900008C1C802C01309200080083120313643089
:10091000BA0086308E24BA0B892C08008312031388
:1009200091018C1083160313920083120313073076
:1009300092008C1C992C0130920008008312031342
:100940000330BA008312031391018C108316031332
:10095000FF309200831203137F3092008C1CAE2C68
:10096000BA0BA22C013092000800831203138710E7
:10097000881343308E24881740308A110A12C22708
:10098000003083160317C2277F30C227FF30C227EB
:100990000030C2270030C2270030C2270030C227F3
:1009A0000030C2270030C2270030C2270030C227E3
:1009B0000030C2270030C2270030C2270030C227D3
:1009C0000030C2270030C2270030C2270030C227C3
:1009D0008312031387148312031387104130C22735
:1009E0001230C2270030C227831203131308831268
:1009F0000313C700C22783120313130883120313C0
:100A0000C8008312031387148A110A120800831284
:100A10000313C90B112D0B30C900CA080319112D7E
:100A2000CA030B118A110A123A2883120313861182
:080A30008B108A110A123A280A
:080A3800831203138313031B57
:100A400083174F3084005C3A03192B2D003080004F
:100A5000840A0408232D831203135330D200573025
:100A6000D100831603132F3099002430980083128D
:100A700003138030980090309800831603130C12F3
:100A80008C169812831203130030900517080B3848
:100A900097008E018F01831603130611831203132F
:100AA00006110800080083120313CF0183120313F9
:100AB0005208533A0319612D5208563A0319952DDD
:100AC000A42D9A1AAF2D1A081F39143A031DAF2D01
:100AD000CF1683120313FF3095000530F0388312D0
:100AE00003139600960E0310960C1014831603132E
:100AF0000C15831203131A08C039003A031D822D06
:100B00005014A42D003A403A031D882DD014A42D72
:100B1000403AC03A031D8E2D5015A42DC03A803A9C
:100B2000031D942DD015A42DAF2D1A08DB005308FA
:100B3000540655065B06031DAF2D4F16831603138F
:100B40008C128312031318128113520884001A089E
:100B500080004F1AC32DD20A8A110A123A28831232
:100B60000313D301D401D501D6015330D20083122F
:100B700003130C1110108E018F01831603130C1137
:100B80008A110A123A285330D200831203130C112F
:100B900010108E018F01831603130C11831203139F
:100BA0005308D700D019E62D5018DA2D5019F02D22
:100BB000D018E02D8A110A16EA208A110A12FA2D9D
:100BC0008A110A1635218A110A12FA2D831203138B
:100BD0005408D8008A110A1636218A110A12FA2DF1
:100BE000831203135408D8008A110A12F0278A11BD
:100BF0000A12FA2D83120313063A0319052E063A38
:100C0000D900073A031DFF30D80083120313570899
:100C100058065906DA000C2E8312031306158312A8
:100C200003135730D1008316031398160C161B2E8E
:100C300083120313CF01811383120313510884001D
:100C40005C3A031D342E83120313D0018316031361
:100C500098120C128C1683120313181683120313A6
:100C600006118A110A123A28831203130008990008
:100C7000D10A8A110A123A2883120313CF0183166C
:100C800003130C11831203130C118312031310109E
:100C90008E018F01831203135330D200CF018A11CA
:040CA0000A123A28D2
:0C0CA4008316031305081F388500831613
:100CB000031302309F00831203139F019F171F1419
:100CC00083120313EB01EC01ED01080083120313FF
:100CD0006B08003A03196E2EEB030800831203130E
:100CE0001F190800831203136D18822EED18A72E0A
:100CF0006D19CC2EED19F12E6D1A162FED016D1612
:100D0000EC0108006C199B2EEC18962E8316031329
:100D10009F13831203139F121F129F118312031339
:100D2000EC14831203130230EB0008006C158312DD
:100D300003131F150800831203131E0883160313E1
:100D4000A00083120313ED01ED14EC0108006C19EF
:100D5000C02EEC18BB2E831603139F1383120313AC
:100D60009F121F129F1583120313EC148312031397
:100D70000230EB0008006C15831203131F150800E6
:100D8000831203131E0883160313A1008312031397
:100D9000ED016D15EC0108006C19E52EEC18E02E44
:100DA000831603139F13831203139F121F169F11A1
:100DB00083120313EC14831203130230EB000800B8
:100DC0006C15831203131F150800831203131E08EA
:100DD00083160313A20083120313ED01ED15EC013A
:100DE00008006C190A2FEC18052F831603139F13A4
:100DF000831203139F121F169F1583120313EC1403
:100E0000831203130230EB0008006C1583120313E6
:100E10001F150800831203131E0883160313A30073
:100E200083120313ED016D16EC0108006C192F2FCE
:100E3000EC182A2F831603139F13831203139F1694
:100E40001F129F1183120313EC1483120313023039
:100E5000EB0008006C15831203131F1508008312A2
:100E600003131E0883160313A40083120313ED015A
:080E70006D14EC0108000800FC
:080E7800831203178D00A03066
:100E80008D02831603178C130C14831203170C089E
:100E900008008313831603178C184C2F0408831241
:100EA00003178D00A0308D028312031300088312F4
:100EB00003178C00831603178C130C158B1B692FDB
:100EC00055308D00AA308D008C140C118C18662FB3
:100ED00008008B1355308D00AA308D008C140C1136
:100EE0008C18702F8B17080008008313A030840023
:100EF00004083C278000840A0408AA3A031D782FBE
:100F000008008313A03084004927840A0408A73A04
:100F1000031D842F0800831311308A000408672101
:100F20008A110A128000492708008313A030840028
:100F30008B27840A0408A73A03190800982F080091
:100F400083120313E701E801831603138712831644
:100F50000313071683160313871183160313071150
:100F60008312031307158316031307108312031349
:100F700007158316031340309400831203132030A7
:100F80009400080083120313E801831203138C11E9
:100F90009300831603131418080083120313E80B3D
:100FA000C92F831203130130E700080083120313D3
:100FB00087104130C2271230C227C2278312031381
:100FC0001308FC3983120313C700C22783120313CB
:100FD000130883120313C800831203138714080035
:100FE00083120313A0190034831203135408D8008A
:100FF0008400831203135508D9008113800006343E
:06200000521630303133AE
:0A200600831203136208DC02031CBE
:10201000DD036308DD02031CDE03080083120313E3
:102020006208DC02031CDD036308DD020800831282
:102030000313DE016208DC070318DD0A6308DD070D
:102040000318DE0A080083120313DD01DC0C0318F9
:10205000DD07DD0CDC0C0318DD07DD0CDC0C0318E0
:10206000DD07DD0CDC0C0318DD07DD0CDC0C0318D0
:10207000DD07DD0CDC0C0318DD07DD0CDC0C0318C0
:10208000DD07DD0CDC0C0318DD07DD0CDC0C0800C3
:1020900083120313DE01E4001030E600640803102D
:1020A0005C1C5328DE07DE0CDD0CDC0C0310E60B99
:1020B0005028080083120313DF01E4001830E60003
:1020C000640803105C1C6528DF07DF0CDE0CDD0CE8
:1020D000DC0C0310E60B6228080083120313E200F5
:1020E000DE010830E6005D0DDE0D6208DE02031839
:1020F0007B28DE070310DD0DE60B7328E4010830B2
:10210000E6005C0DDE0DE40D6208DE02E501030170
:10211000031C650FE402031895286208DE07E50139
:1021200003010318650FE4070310DC0DE60B81289B
:10213000080083120313E200DF011830E6005C0D93
:10214000DD0DDE0DDF0DDC0D6208DF0203185C140F
:102150005C1CDF07E60B9F28080083120313DF01D6
:10216000E0011830E6005C0DDD0DDE0DDF0DE00D49
:10217000DC0D6208DF026308031C630FE002031832
:102180005C145C18C628E0076208DF07E60BB3287A
:102190000800831203132030E600E101E001031080
:1021A000DC0DDD0DDE0DDF0DE00DE10D0318E02887
:1021B00063086102031DDE2862086002031CE72831
:1021C0006208E002031CE1036308E1025C14E60B11
:0421D000CF2808000C
:0C21D4008312031354081F39013A031D45
:1021E000F4288A110A169F29013A023A031DFB2896
:1021F0008A110A16D529023A033A031D02298A11C7
:102200000A168D29033A043A031D09298A110A1670
:102210007B29043A053A031D10298A110A16CB2995
:10222000053A063A031D17298A110A120328063AAD
:10223000073A031D1E298A110A16BE29073A083AD1
:10224000031D25298A110A16DC29083A093A031DBB
:102250002C298A110A16B129093A0A3A031D332991
:0C2260008A110A16E0290A3A04340334FB
:04226C0083120313C3
:1022700054088400D800831203135508031D48290D
:10228000831603138113000883120313D900063445
:10229000013A031D53298316031381170008831283
:1022A0000313D9000634033A031D602904088A1178
:1022B0000A123C278A110A1683120313D900063426
:0E22C00004088A110A1667218A110A160634CC
:0222CE00A03C32
:1022D000FF3C013E0A3C03190034031C00340A3C55
:1022E0008207003400340034003400340034FF34FA
:0622F00000340034FF344D
:0A22F60083120313A01900348312B1
:102300000313550883120313EE00EF008312031327
:0A2310002012A0154D08CE0007347E
:06231A0083120313A01959
:10232000003483120313550883120313EE00EF00E9
:0E233000831203132016A0154D08CE000734AB
:02233E00831208
:102340000313A0190034831203135508013A031D27
:10235000AD2983120313A014B02983120313201094
:02236000073440
:0E23620083120313A01A0034831203132019F0
:0C2370000334831203133C15BC14073423
:04237C0083120313B2
:10238000A01A003483120313201903348312031399
:062390003C153C1407346B
:0A23960083120313A6018312031340
:0A23A0002011831203130612073404
:0623AA0001308312031351
:0823B000D9000330D800063407
:0823B80083120313BC0107347A
:0823C00083120313BC01073472
:02400E00713F00
:10420000000000000000000000000000FF000000AF
:044210000000FF00AB
:00000001FF
